:020000022000DC
:10700000800D0120A54B030007200600914B0300D3
:10701000914B0300914B0300914B030000000000D3
:10702000000000000000000000000000C14C030050
:10703000914B030000000000254C0300914B03001E
:10704000554F030031EB0400554F0300554F03002B
:10705000554F0300554F0300554F0300554F030094
:10706000554F0300554F0300554F0300554F030084
:10707000554F0300554F0300554F0300554F030074
:10708000554F0300554F0300554F0300554F030064
:10709000554F0300554F0300554F0300554F030054
:1070A000554F0300554F0300554F0300554F030044
:1070B000554F0300554F0300554F0300554F030034
:1070C000554F0300554F0300554F0300554F030024
:1070D000554F0300554F0300554F0300554F030014
:1070E000554F0300554F0300554F0300554F030004
:1070F000554F0300554F0300554F0300554F0300F4
:107100004FEA4102B2F1E04324BFB3F5001CDCF1C9
:10711000FE5C0DD901F0004C4FEAC0024CEA507001
:10712000B2F1004F40EB830008BF20F00100704730
:1071300011F0804F21D113F13872BCBF01F0004033
:10714000704741F480114FEA5252C2F11802C2F165
:10715000200C10FA0CF320FA02F018BF40F00100E6
:107160004FEAC1234FEAD32303FA0CFC40EA0C0098
:1071700023FA02F34FEA4303CCE77FEA625307D1D5
:1071800050EA01331EBF4FF0FE4040F4400070470C
:1071900001F0004040F0FE4040F40000704700BFA6
:1071A00053B94AB9002908BF00281CBF4FF0FF316E
:1071B0004FF0FF3000F00CB8ADF1080C6DE904CED3
:1071C00000F022F8DDF804E0DDE9022304B07047A6
:1071D000704700BF10F8012B11F8013B012A28BFAE
:1071E0009A42F7D0D01A7047034611F8012B03F8E2
:1071F000012B002AF9D17047034613F8012B002A0E
:10720000FBD1181A013870472DE9F04786468C46A5
:107210000846089E154674461946002B40F0C28069
:107220008542B2FA82F245D94AB1C2F1200300FA8E
:1072300002FC2EFA03F3954043EA0C0C94404FEA0B
:10724000154EA8B2BCFBFEF8230C0EFB18CC08FBB5
:1072500000F943EA0C43994528D9EB1808F1FF37A8
:1072600004D2994502D9A8F102072B44A3EB0903E4
:10727000A4B2B3FBFEFC0EFB1C330CFB00F044EA93
:107280000344A04214D92C190CF1FF3304D2A042BC
:1072900002D9ACF102032C44241A43EA07401EB180
:1072A000D440002334607360BDE8F0874746DDE7D3
:1072B0006346F1E792BB431B01214FEA154EAFB283
:1072C000B3FBFEFC200C0EFB1C330CFB07F840EA62
:1072D0000343984562D9EB180CF1FF3004D298456E
:1072E00002D9ACF102002B44A3EB0803A4B2B3FB18
:1072F000FEFC0EFB1C330CFB07F744EA0344A742D9
:107300004ED92C190CF1FF3304D2A74202D9ACF1AB
:1073100002032C44E41B43EA0040C0E7C2F120030F
:1073200020FA03F1954090402EFA03F303434FEA0D
:10733000154EAFB2B1FBFEFC0EFB1C10190C0CFB82
:1073400007F841EA0041884504FA02F422D9691895
:107350000CF1FF3004D2884502D9ACF10200294477
:10736000A1EB08019BB2B1FBFEFC0EFB1C110CFB58
:1073700007F743EA01439F420ED9EB180CF1FF31A6
:1073800004D29F4202D9ACF102012B44DB1B41EA3B
:10739000004192E76046E3E76146F7E76046A3E70E
:1073A0006346B7E7834206D916B9002108467BE752
:1073B000C6E900E0F9E7B3FA83F78FB9834201D356
:1073C000724508D8BEEB020460EB030301209C4623
:1073D0001EB9002168E73846FAE7C6E9004CF8E72D
:1073E000C7F1200CBB4022FA0CF41C432EFA0CF11E
:1073F00020FA0CF3B84001434FEA14490EFA07F59E
:10740000B3FBF9F81FFA84FE09FB18300B0C08FBDC
:107410000EFA43EA00439A4502FA07F240D9E3180C
:1074200008F1FF3004D29A4502D9A8F102002344A2
:10743000A3EB0A0389B2B3FBF9F809FB183308FB85
:107440000EFE41EA03418E452CD9611808F1FF3345
:1074500004D28E4502D9A8F10203214443EA004038
:10746000A0FB0298A1EB0E014145CE46434602D354
:1074700006D14D4504D2B9EB020E68EB0403013886
:10748000002EA6D0B5EB0E0261EB030101FA0CFC55
:1074900022FA07F34CEA0303F940C6E9003198E702
:1074A0004046C5E74346D9E773B5002101AA40F637
:1074B00003400EF00DFF0446002869D1019CE368EB
:1074C0001B789BB910F0E0FDBFF35B8FAC4B1A68E3
:1074D000BFF35B8F02F00902BFF35B8F53E8001F1D
:1074E00043E800200028F9D1BFF35B8F20460DF060
:1074F000C7FF01AA002141F203000EF0E9FE044695
:10750000002845D101989F4DC268D2F80130C5F8D6
:107510006A30D2F80530C5F86E300DF0B1FF214663
:1075200001AA41F201000EF0D3FE044680BB01988F
:10753000C3685A7885F862205A88A5F864201A79B9
:1075400085F86320B3F80720A5F86620B3F8053066
:10755000A5F868300DF094FF214601AA41F202001F
:107560000EF0B6FE044698B90198C36805F17201A1
:107570005A1C413352F8044B41F8044B9A42F9D15A
:107580000DF07EFF95F86E305C0604D46FF01204A7
:10759000204602B070BD01AA002142F203000EF0A5
:1075A00097FE04460028F3D1019B774EDA68D2F8A3
:1075B0000100D2F8051003C618460DF061FF214600
:1075C00001AA42F202000EF083FE04460028DFD139
:1075D000019CE368B3F8012091B249B1D97839B17F
:1075E000A5F8FC20DA78114606F1280042F0C0FF29
:1075F00020460DF045FF01AA002142F23A000EF0AC
:1076000067FE0446002840F0AE800198C368B3F8D6
:107610000130A5F818310DF033FF95F86E6016F0C3
:10762000200618D1022140F66D400EF0ABFC044656
:10763000002800F0958002210C303AF09AFD0123D9
:10764000037046702146324640F66D400EF040FE13
:10765000044600289CD195F88E30190712D501AA4E
:10766000002142F21C000EF033FE044600288FD1A8
:107670000198C368D3F80120D3F80530C5E9362353
:107680000DF0FEFE95F8D0305A0610D501AA002163
:1076900042F22A000EF01CFE044600287FF478AF68
:1076A0000198C3685B7885F81A310DF0E9FE08216E
:1076B00042F201000EF066FC0446002850D008217A
:1076C0000C303AF056FD95F8D010304B11F0020F07
:1076D00002462F4808BF18468B0695F8D13048BFA0
:1076E00040F0400013F0090F18BF40F40060CE07CF
:1076F00048BF40F0100000213AF0E9FF2146002287
:1077000042F201000EF0E4FD044600287FF440AF91
:1077100095F86E30B5F8FC1098062BD4C9B901AABB
:1077200041F205000EF0D4FD044600287FF430AF8E
:10773000B5F8FC30019C4BB9E368B3F80120A5F81B
:10774000FC209A881348114642F012FF20460DF0A3
:1077500097FE082140F601400EF014FC0446D8B90B
:107760006FF0680414E7601D7FF412AF1F23A5F8C3
:10777000183152E70029ECD16FF0040408E700BF8C
:107780001801002050000020200100200E120700E8
:107790002E1207005001002008210C303AF0E9FCBD
:1077A00095F8D030D907024653BF4FF000512CA1B5
:1077B000D1E9000128483AF08AFF2146002240F62C
:1077C00001400EF085FD044600287FF4E1AE01463D
:1077D00001AA4FF601400EF07BFD044620BB019844
:1077E0000DF04EFE214601AA4FF602400EF070FD4C
:1077F0000446C8B90198C368B3F80130A5F8B3309E
:107800000DF03EFE95F8B3305B070DD501AA214679
:107810004FF603400EF05CFD30B90198C3685B7809
:1078200085F8B2300DF02CFE3BF0ABFB044600288F
:107830007FF4AEAE12F084F8044600287FF4A8AEC0
:10784000EB79002B3FF4A4AE082104483AF09DFEEA
:107850000EF088FC9CE600BF108800021801002092
:1078600090880002008000202DE9F843D0E9073815
:10787000856903EB08042F34A5420F46164619D834
:10788000DFF87080A3FB080117A3D3E90023FFF7FB
:1078900087FC0346601BA0FB080123F07F4412A372
:1078A000D3E90023FFF77CFC20F07F403C60306090
:1078B000BDE8F883DFF83C900BA3D3E90023A5FBD8
:1078C0000901FFF76DFC20F07F4409480A2106A357
:1078D000D3E90023E8FB0901FFF762FC20F07F40B9
:1078E0003C603060BDE8F8838D49FD1A0700000058
:1078F00000166BF100CA9A3B9FED0D7B124B134AA9
:107900001348144910B483ED007B9FED0B7B82ED8F
:10791000007B9FED0B7B104B4FF0FF34002281ED7D
:10792000007B04601A605DF8044B19F0E1BC00BFF5
:10793000FFFFFFFFFF1F000000000000000000002D
:107940001F00000000000000E0010020C8380020F7
:1079500060930020D8010020589300200000000010
:107960002DE9F04F8DB09A46179C9DF85890636CA6
:1079700005460E46904653B1B4F87E301BB1B4F8BC
:107980007C209A4278D2D4F88020002A77D14FF612
:10799000FF739A4520D027780137FFB22770002F58
:1079A00078D06F496F4BC1F8048004F11C000022AD
:1079B000C86081F80A900D60A1F808A099600120C4
:1079C000114616F0E9F9002873D1636CC4F894509D
:1079D00013B120461EF0AEF894F8245015F00105BE
:1079E0004AD1614A614B11781B788B4277D04FF6B0
:1079F000FF739A45D4F88080B4F87C9015BF0AF1E3
:107A000001074FF0000ABFB25746B8F1000F30D05F
:107A1000B9F1000F2DD0226F0AF1010A40F2712155
:107A20001FFA8AF301FB02FA0AFB03F30993504B96
:107A30004FF0070BA6FB03010BFB061146A3D3E98E
:107A40000023FFF7ADFB099A494B1618A5FB03016C
:107A50000BFB051140A3D3E90023FFF7A1FB504422
:107A60003044804586BFA8EB0606C4F88060C4F8A1
:107A700080A04F44A4F87C700DB0BDE8F08F216F5A
:107A800040F27123A1FB0313914273F10003FFF451
:107A90007EAFF1E7374A3849384840F64A1339F0A3
:107AA000A5FA87F31188BFF36F8F0323184602DF0F
:107AB00077E7304A3249314840F66C1339F096FA8C
:107AC000002383F31188BFF36F8F0323184602DF6F
:107AD000636CC4F89450002B7FF47BAF7CE70133D8
:107AE00004210BA8137027F055FB0B9B2549069426
:107AF000A1FB0321244A0095581A01EB5001A21A58
:107B00002248D208A0FB0202090A40F2471052089C
:107B100000FB113302321E4905910133CDE90355B3
:107B2000CDE90155D2B2012128460B9317F02CFD67
:107B300010F0FD0F0DD00F4A1649104840F2BB73EC
:107B400039F054FA85F31188BFF36F8F0323184679
:107B500002DF0B9D4BE700BF00CA9A3B000000000C
:107B600084950020240A0020A9C50020A8C5002073
:107B70008D49FD1A8CF10600D0F20600A8ED060032
:107B80009CEF060021F1D490BC950020BD86F21A2E
:107B9000E13A0400D4F20600002900F0A1812DE9A9
:107BA000F04F012893B0054600F28582D04E4FF089
:107BB0009808994608FB006803B20B9398F8847004
:107BC00000EBC00400EB440417F001074FEAC40BBC
:107BD000924606EBC40440F0778294F82500FF2318
:107BE00084F8273000F0030026F036FA98F8843045
:107BF0005B0700F11C8194F8353004EB83039F6B25
:107C000094F8293004EB8303D3F82C80002F00F084
:107C1000F5803A46414620461DF01AF8002840F00B
:107C20005C8198F8003013F00E0F00F0748103F0BF
:107C30000F03072B00F06A811AF048FA002840F081
:107C40007B82982303FB0563186400231A464FF0D8
:107C5000980909FB05694FF0000AC9F88020A9F8C6
:107C60007E3094F82530A9F87CA0C3F382030C93EE
:107C700094F824300121C3F342030DF143008DF841
:107C8000433016F0A1F90246002800F01D810C9B3C
:107C9000394640461CF0EEF99649974BB9F870709A
:107CA00006F80BA0A0FB0101C0184FF03103C4E996
:107CB00005AA41F10701C9E901A3C9F80CA08AA3EB
:107CC000D3E90023FFF76CFAC9F8100017F0A2FD02
:107CD00000F10E09002F00F04B8294F824306AF373
:107CE000000384F82430DB0700F15782982202FB5E
:107CF0000562D4F844A0D2F810800C92BAF1000FBB
:107D000000F0A880DAF800B008F102034B4411A992
:107D10005846119300F034FB0C9A136F92F87B20B5
:107D200040F271218246A3FB0131002A40F07C829F
:107D300042F6DC32981841F1000140F2E2420023A1
:107D4000FFF72EFA80B2ABF83C0052461199584624
:107D500000F05EFB8246002840F0B6800B9B02904C
:107D600011AA0892654A6648069405EB450C03EB98
:107D7000430302EB830308F247110993CDF8108007
:107D8000A7FB000342F82C10912101FB07315D4B4A
:107D900007935D4B059302231193EF184FF6FF7382
:107DA000039351A3D3E90023FFF7FAF9FFB201903F
:107DB00003214B463A46CDF800A0504617F084FB0D
:107DC00011A918F017FE00287ED19BF84E3043F021
:107DD00001038BF84E30982303FB0563002093F8D2
:107DE000842042F0010283F884201EF073FA0028F8
:107DF00040F06681012026F011F961E198F8003029
:107E000003F00F03072B67D00BF13400304427F049
:107E1000C9FEC0B2002840F08D8194F8353004EBE3
:107E200083039F6B04233B7006237B70F1E698F875
:107E300084000BF18501C0F3C00031443A4626F0BE
:107E4000E1FAFF2884F827003FF4D5AE384626F043
:107E500049F9D0E60B9B294A2948CDF8108005EB5B
:107E6000450C03EB430308F2471102EB830309932C
:107E70000694A7FB0003CDF808A042F82C1091212E
:107E800001FB07311F4B07931F4B059302231193EF
:107E9000EF184FF6FF730DF14408039312A3D3E9D3
:107EA0000023CDF82080FFF77BF9FFB2019003217A
:107EB0004B463A46CDF800A0504617F005FB414628
:107EC00018F098FD002886D0982303FB05631B6AF1
:107ED00013B120461BF046FE0C2013B0BDE8F08F16
:107EE0001BF082BEAFF300808D49FD1A0700000031
:107EF000BC95002000CA9A3B8C49FD1AA49500202D
:107F0000002AE784BDF903006179020098F8023085
:107F100059067FF591AE236A002BDDD118F0A2FC43
:107F20000C90002800F0068118F0A8FC0D900028A5
:107F300000F0FD801EF074FE0346002800F0F4807F
:107F40004FF6FF72D0F894001A8603F11C020E92CD
:107F5000002800F0938103F1880203F184010F935C
:107F600015F094FE0F9B93F89A2022F0070283F8F5
:107F70009A200022C3F89420A3F8982098F80020B3
:107F800002F00F02072A00F05C8193F8822022F0B1
:107F90007F0242F0190283F882200121C14A93F83E
:107FA000AE01D2F801C0C3F8AFC1C3F8B5C112F831
:107FB00001CB9288A3F8B321A3F8B92193F8432009
:107FC00002F03F0262F07F0283F8432093F883209F
:107FD00061F3020283F8832093F848200F930CF09A
:107FE000010C6CF3000022F00F026CF341004FF41F
:107FF000C02183F848200022C3F89C11C3E9152250
:1080000083F8AE0183F84520DA86C3F83A20DA65B2
:10801000A3F8A221A3F89821184621F0E9FB0F9BB1
:10802000002283F860210C9AC3F864211FF0C6F87F
:108030000F9B93F8A81160F3020183F8A8111FF0B9
:10804000C3F80F9B0F9393F8A81160F3C50183F851
:10805000A81193F89411002262F3410183F894115E
:1080600098F8002002F00F02072A0ABF94F82510A2
:108070000121490918461FF001FD0F9B03F1E000A3
:1080800021F05EF9982202FB05620C9B93660D9B22
:10809000D3660E9B23620F9B0022C3E90522DB619E
:1080A0001A7027F0D7FB00283FF4C6AD20461BF01E
:1080B00059FD032011E71AF009F800287FF40CAFEE
:1080C000002013B0BDE8F08F1AF000F80028F7D0B8
:1080D00098F88430D8077FF5FFAE94F8353004EB7C
:1080E000830320469A6B94F8293004EB8303D96A02
:1080F0001CF0AEFD00287FF4F0AED8F84030002B25
:108100003FF4EAAE1A7902F0FF014AB942F2107266
:1081100002FB0AF2A8F87C10A8F87E90C8F880202C
:108120001B79002BCCD0D7E60D9818F0ADFB0C983E
:1081300018F09EFB0720D0E618F094FB18B30C90C3
:1081400018F09CFB0C9A002800F09D80982303FBFC
:108150000563026000220271186494F82430DA0783
:108160003FF573AD42F210724B4602FB0AF26EE528
:1081700098F800A00AF00F0AAAF1010ABAFA8AFADE
:108180004FEA5A1AA9E5982303FB05631B6A002BE3
:10819000D0D020461BF0E6FCCCE7982202FB05621B
:1081A000069412690B9B049201923F4ADFF8048106
:1081B00003EB430302EB8303099305EB45039B00A9
:1081C0000020D05011AB0893AA1C384B0593032113
:1081D000CDE902000090CDF81C80D2B24B460227B8
:1081E000119717F071F911A918F004FC00287FF419
:1081F0006BAE2F4A059211A94AF2D832089100922B
:108200000321CDE90300CDE90100CDF81C804B46E8
:1082100006940122119717F023F911A918F0EAFB2F
:1082200000283FF4D8AD4FE602FB01110132A2FB5A
:108230000303194440F2E2420023FEF7B1FF80B28B
:1082400081E594F8252093F88210520962F3020127
:1082500083F8821094F82520C9B2520962F30611FE
:1082600083F8821094F8261093F8822061F3C302F9
:1082700083F8822094F8251049098FE603F18C00D9
:10828000C3F8940067E6982303FB05631B6A23B1D8
:1082900020460B921BF066FC0B9A104618F0E8FA89
:1082A00048E700BF30200700A49500206179020054
:1082B00045390400BDF90300F0B590F8243090F87A
:1082C00025708BB0C3F342030D46044601210DF126
:1082D000230016468DF8233015F076FEC7F382078B
:1082E00002463B46314628461BF0C4FE1E491F4A43
:1082F000A0FB0131981841F1070119A3D3E900232C
:10830000FEF74EFF23699842054622D21B1A00222F
:108310000192174A0293A21A164BD208A3FB02320B
:108320000221520800230A4409AE0991124905911D
:10833000CDE903330321D2B206960093184617F015
:1083400023F9314618F056FB38B9256100200BB0EF
:10835000F0BDFBD9C21A0023DAE70C200BB0F0BD48
:108360008D49FD1A0700000000CA9A3B8C49FD1A8E
:10837000BC950020BD86F21ABDF903000000000084
:108380002DE9F04182B004461F4E204F88461CF074
:10839000BBFD072500236360E36029463346E0FB0D
:1083A00007313122A260184615A3D3E90023FEF756
:1083B000F7FE94F8313020F07F4004EB8303206116
:1083C000596B5F231A4620461CF05EFD2946E0FBF0
:1083D00007610BA3D3E900233046FEF7E1FE01A9B4
:1083E00020F07F4025F0A6F818B9019B0233C8F8A9
:1083F0000030002002B0BDE8F08100BFAFF3008084
:108400008D49FD1A070000008C49FD1A00CA9A3BED
:108410002DE9F04700268CB08846C0E90566204962
:10842000067017465022044615F010FC0546A08F32
:108430001C4940F2E24202FB00F002230B93A0FB36
:10844000010115A3D3E90023FEF7AAFE0DF12C0AC2
:10845000CDF820A00694194623691F44124B0793B8
:10846000124B05938146002310464FF47A72CDE9F2
:108470000367FEF795FE0435EDB2CDE90190434662
:108480002A4600963046032116F0EAFF514618F0BE
:10849000B1FA0CB0BDE8F0878D49FD1A0700000065
:1084A0003097002000CA9A3BBDF90300454F0400F5
:1084B0002DE9F04FA3B00D461E4640F201232C9942
:1084C0001092AB432D9A0D9104460E9200F08C81D0
:1084D00094F8293004EB830305F4007BD3F82CA037
:1084E0009AF8007007F00F03072B089311D0BBF127
:1084F000000F05D10C230893089823B0BDE8F08F36
:10850000D6F801203178204623B0BDE8F04F1CF0AA
:10851000EFBB9AF802200AF1040112F03F0318BFE2
:108520009AF803300B91BBF1000F02D07F2A00F2C2
:108530007D810D99099304F1280027F0E9FB9AF851
:1085400000100278034601F00F0122F03F020A43B7
:1085500003F8022B81469AF8022099F8021017932B
:10856000920962F3871189F80210616C099B04F18A
:108570001C004FF00008002900F0B8824A7D01EB92
:10858000820290690A681292C2780C9002301590AB
:1085900002F00100149001F114000E990F9209935A
:1085A00027F0B6FB804699F8000098F800100C9B65
:1085B0000F9A00F00F0021F03F01014388F80010EE
:1085C000197898F80000C1F3801161F3861088F8DB
:1085D00000001978C0B2C90961F3C71088F800001B
:1085E00099F8021098F8020089094FF0010361F32D
:1085F00087108DF82830099B88F8020015F00100DB
:1086000003F0010140F00081002900F041819AF857
:10861000001098F800C0C1F3801161F3861C88F83F
:1086200000C099F8001060F3861189F800100AF173
:108630000A010B911499002940F03E810C990431F4
:10864000099102F002011691990740F103810B99FB
:1086500098F8000006310B919AF80010C90961F3EF
:10866000C710414601F8100B4FF003008DF82800A9
:1086700099F800006FF3C71089F80000169810B140
:1086800009980630099013F008001B9002D00B984F
:1086900002300B90881C0F9015F0080000F0D88075
:1086A00002203070D6F801001A90C6F80110053685
:1086B0000A9812F0080740F008008DF828001C976F
:1086C00002D0099F0237099713F010071D9702D0B7
:1086D0000B9F03370B974FF018078DF8647009F163
:1086E0000907119702F010071397EF0640F1A180D8
:1086F00040F010008F1C0A900320C6F80170307003
:1087000005361398002800F0A08000201E900998DC
:10871000033009900A98C00644BF05310F915906ED
:1087200010D50B9B01330B9394F8253003F01C03F9
:10873000102B00F0FA814FF058038DF8643009F1E6
:108740000A031193530606D5099B013309930A9B2B
:1087500043F040030A939DF82820D3B2189312F0F7
:1087600040031F9302D00F9B01330F93119B179A65
:108770009B1ADBB2022B03D809F1030311930123E7
:10878000099A1599501AC0B2022803D80C9A0332DC
:10879000099201200C9A51788142C0F071810F9F9B
:1087A00008F10202BA1AD2B2022A03D808F103026F
:1087B0000F920122BBF1000F00F08280099D081A80
:1087C000D6F80110C6F801503578C0B230708B462B
:1087D0000536002D40F06281002940F08281099920
:1087E0000546DC465F4677E0B24AB349B34840F2FB
:1087F000FB5338F0FBFB002383F31188BFF36F8F2B
:108800000323184602DF63E616F801EB98F800C070
:108810006EF3861C88F800C099F800C06FF3861CC0
:1088200089F800C000293FF405AF00E71223089340
:1088300062E6109FFF063FF564AF139F2FB140F033
:1088400010000A9009981E9061E713981E9061E746
:108850001A902DE708F10A0100287FF409AF169F4E
:10886000002F00F020810C9998F800C00978C90900
:1088700061F3C71C41464FF0030701F810CB99F88C
:1088800000C08DF8287060F3C71C89F800C0F7E6B7
:108890001499002900F0F4800C9998F800C0097828
:1088A000C1F3801161F3861C88F800C099F80010AC
:1088B00060F3861189F800100C990A310991C0E61D
:1088C0006F0500F1E080109DAD0500F108810D1AE3
:1088D0000999DC46EDB25F4605EB0C0EBEF11F0FA9
:1088E00028463FF709AE104460445F2800F3E88053
:1088F00099F8020089F80130013B63F3050089F81B
:10890000020098F802300F9E501E60F3050388F8AD
:1089100002300BEB05031A4488F8012030462A4642
:1089200042F06CF927B15A463946701942F058F9AD
:1089300098F802309B0600F0A080199B5F0640F17A
:10894000F9800B9A119912F8013C01F8013C531E71
:108950000B934B1E11931D9B13B10B9B033B0B936E
:10896000119E94F8253016F8032C6FF3050206F8D3
:10897000032C5D0926F0C0FF32288CBF00200120A7
:1089800095FAA5F3002DB3FA83F308BF4FF0FF3338
:108990005B0106F8013C16F8033C60F386136FF3A5
:1089A000C71306F8033C002306F8023C139B13B1DF
:1089B000099B033B0993189BDE0602D50F9B033BE3
:1089C0000F931E9B23B10F981946032242F016F90C
:1089D0001B9B13B10B9B023B0B931C9B13B1099B7D
:1089E000023B09931A9B002B00F0F9801A9A5378E6
:1089F00012781B0203F470631A431198D1B200F885
:108A0000051C94F87A30C3F303031B0103EB122314
:108A100000F8043C0F9800F8021C94F87A30C3F375
:108A200003031B0103EB122300F8013C189B9D0775
:108A300000F18F800238189BDC0709D5149B002BAE
:108A400000F0E480099B991F0638062242F0D6F810
:108A500099F8023099061CBF9DF8643089F80330FC
:108A600098F802309A061CBF9DF8283088F8033029
:108A7000129B93F84E30DB077BD4002308933BE531
:108A80001F23089338E596F800B0081AD6F80110AD
:108A9000C5B20F4605360999DC461DE74FF0000CBC
:108AA000E346674618E799F800C060F3C71C89F8E9
:108AB00000C0E8E560F30600D4F30600A8ED060068
:108AC000A2F15F035B442B44CA45337000F09980E8
:108AD0000C9B984500F09080452308930CE55D467B
:108AE0005946AB462F46AC462846FCE61CF0FCFD3A
:108AF000099B1290002800F095801299CDF85080C3
:108B000091F8312001EB82020121506B0C90074655
:108B100017F8022B41701299159702F03F0202706C
:108B200080F803801C31424635E50A9B43F0400340
:108B30000A9307E61F9B002B3FF40DAF099A0F998C
:108B400012F8013C01F8013C531E09934B1E0F9390
:108B500001E7169B002B5CD0099B063B09930F99FC
:108B60001A6841F8082C9B8821F8043CA1F1080000
:108B700061E7129C20461CF0C7F9374A374B0721A2
:108B8000E0FB0231184632A3D3E90023FEF708FBCD
:108B9000256920F07F44AC423FD22E1B0025129F56
:108BA0002F49022350223846219315F04FF8002315
:108BB0002C490195021D21AD0591CDE90333032117
:108BC0000296D2B200931846069516F0DDFC2946AF
:108BD00017F010FF00287FF48DAC3C614DE794F84E
:108BE0007A30214903F00F0331F81320501C21F88B
:108BF0001300C2F30B0200E70E9A636C12785A75E9
:108C00006AE70D9B1B7884F8293061E70B9B991F5D
:108C10001AE70B9B063B0B93A1E77FF62EAF651B74
:108C20000026BCE7CA457FF467AC104A10491148DA
:108C300040F22E6338F0DAF9129B83F31188BFF308
:108C40006F8F0323184602DF56E400BFAFF30080A6
:108C50008D49FD1A0700000000CA9A3B8C49FD1A95
:108C600030970020BDF903000C97002060F3060048
:108C700024F40600A8ED060070B590F803C01CF0BF
:108C8000010F14BF00F10A04041D1B481CF0020F61
:108C900015461E464FF00702A1FB000318BF06341D
:108CA00002FB01311CF0080F11A3D3E9002318BF08
:108CB0000234FEF775FAAD1B10492844A1FB0031C0
:108CC0000D09490C04D00E4BA3FB003001214509CE
:108CD000A2782078657022F01F02C5F3042361F3A7
:108CE000C71013432070A370204670BDAFF30080FF
:108CF00000CA9A3B000000008D49FD1A89888888C7
:108D0000B5814E1B000000002DE9F04FD0F844B0B3
:108D1000A949DBF80030DFF8D0A291B004460890F2
:108D200050221846099314F091FFFF23D4F8945071
:108D30008DF82F30061D0023F6B20D950C930124FB
:108D40000DF13C090DF138080CAF0CE00D9BAB4266
:108D500002D06CB3013CE4B29DF82F30FF2B3BD026
:108D60009E424CD00D9D00200221CDE905A9CDE900
:108D70000078CDE9030002900DAB0DF12F020F91A9
:108D800016F0E4FC022800F0EF800F9B002BDDD0F2
:108D90008A4A8B498B4840F6A74338F027F90023CD
:108DA00083F31188BFF36F8F0323184602DFCDE7EB
:108DB0008549824A83484FF44B6338F017F984F3AE
:108DC0001188BFF36F8F0323184602DF9DF82F3001
:108DD000FF2B4FF0FF04C3D17C49784A794840F615
:108DE000B24338F003F9002383F31188BFF36F8F88
:108DF0000323184602DF9DF82F309E42B2D10E9C0D
:108E0000734A0C9EA4F57423A3F51073934207D9FB
:108E100004F1E874013E04F5D4340C9604F5A5740D
:108E20006C4BCBF80C60A3FB0434A40C089BCBF870
:108E3000104093F8282093F829100E948A42D3B258
:108E400004D00133DBB2022B08BF0023089A624D25
:108E500092F82570BBF8089002EB8303A6FB05018E
:108E6000D3F82CA04FF007084FA3D3E9002308FB49
:108E70000611FEF795F9C7F382079AF8011007F07B
:108E800003030B44554922180933A1FB0201DB00FF
:108E9000C7F34007FB4021F00F0003F59673A0EBEA
:108EA0001111B3EB410F21D9099B4D489B8F40F223
:108EB000E24101FB0324A4FB00013DA3D3E900230D
:108EC000FEF76EF920F07F46A6FB050136A3D3E935
:108ED0000023CBF80C6008FB0611FEF761F909F1DD
:108EE0000109241ACBF810401FFA89F922463146AD
:108EF00000235046FFF7C0FEDBF80C300999099DAE
:108F00000133CBF80C3091F84D2091F84C3093425E
:108F100002EB420305EB430318BF81F84C2093F8A2
:108F20004530062101FB02524032E98F044603F02E
:108F30003F03484624F0AAFB237860F3050323701F
:108F400016F068FC0D9916F067FC089BD3E9012127
:108F5000DB6891422CBFC3EB0103C3EB02039842D1
:108F60000ED211B0BDE8F08F0F9B022B7FF40DAF36
:108F70000221002016F036FC0F9B022BF8D004E7EC
:108F80000E4A18490F4840F6FE4338F02FF80023E8
:108F900083F31188BFF36F8F0323184602DF11B0EC
:108FA000BDE8F08FAFF3008000CA9A3B00000000DC
:108FB0008D49FD1A070000003097002060F306007D
:108FC00048F40600A8ED060050F4060080F4060000
:108FD000BFBDF07F83DE1B438D49FD1A89888888D9
:108FE00000CA9A3BA4F40600414F040000000000B0
:108FF00070B5234C9DF810E094F856C01CF0020F99
:1090000037D1460816F0040533D151B363F3830C0E
:10901000400194F83230A4F844104FEACE0E0EF01E
:10902000180E00F0200040EA0E0023F03803184329
:1090300094F83C3084F83200124884F856C066F345
:10904000020384F83C309121A2FB000301FB0231B2
:1090500009A3D3E90023FEF7A3F8C4E912002846C8
:1090600070BD94F83C3065F3020384F83C30284628
:1090700070BD0C25284670BD8D49FD1A0700000003
:10908000D0380020002AE78410B504469DF8080077
:1090900022854FEA411CC000A17D00F018000CF0B1
:1090A000200C4CEA000C0C4821F038014CEA010C71
:1090B000A3FB0002912184F816C001FB032104A345
:1090C000D3E90023FEF76CF8E06210BDAFF3008037
:1090D0008D49FD1A07000000002AE7840000000007
:1090E0002DE9F04790F8563090F832205E4DDFF8C9
:1090F00090816FF30003044600F13E01C3F380004A
:1091000060F386128CB084F8563084F8322016F062
:10911000D9FB94F83220B4F844305448E46102F0AA
:109120007902002784F832209121A3FB0002C4E9D0
:109130000577277001FB032149A3D3E90023FEF73C
:109140002FF8E26C4A4B6760651BA3FB053502F103
:109150000E03984298BF3A46C5F38715A2644FF0B4
:1091600031028CBF19460146A26005EB4502E7605B
:10917000216148F82210064616F04CFB236A00F1E4
:109180000E074FEA450A002B4BD00DF12C09AA44DB
:1091900008EB8A030993CDF820900694B4F8443084
:1091A00032484FF00008A3FB0002CDF80C8091215B
:1091B00001FB0321236904932E4B07932E4B059348
:1091C0004FF0020A26A3D3E90023CDF82CA0FDF727
:1091D000E7FF104619464FF47A720023FDF7E0FFCF
:1091E0000735EDB2CDE9016003213B462A46CDF8B3
:1091F0000080404616F068F9494617F0FBFB60B95D
:1092000094F8563043EA0A0384F856301BF0A6FB64
:1092100008B300200CB0BDE8F0870C200CB0BDE80E
:10922000F0870DF12C09CDE90A3321694B460AAAD2
:10923000032001F0D1FD0028A9D10B990F4808A304
:10924000D3E90023A1FB0001FDF7AAFF0A9B20F050
:109250007F471F449BE7504624F0E0FED9E700BF5C
:109260008D49FD1A07000000D0380020002AE7844D
:10927000A38B2EBABDF90300855B040000CA9A3B9C
:10928000F8970020000000002DE9F04F0B79062B25
:1092900093B00C46064614D0092B00F0A280B14AC8
:1092A000B149B2484FF4CC7337F0A0FE002383F3EA
:1092B0001188BFF36F8F0323184602DF13B0BDE898
:1092C000F08FD1F80890D9F818306BB1A54AA849A9
:1092D000A648D92337F08AFE002383F31188BFF311
:1092E0006F8F0323184602DFD9F8008040461CF038
:1092F000C5FFA37E2660002767F38613A37694F844
:109300002130E760002B62D00730C2B20B9204F12B
:10931000220A3D46BE46012294F82210880652D009
:1093200094F823C01CF0010F14BF04F12A0004F1CB
:1093300024001CF0020F18BF06301CF0040F18BFE9
:1093400001301CF0080F18BF02301CF0100B1CBFBE
:10935000834603301CF0200F18BF12301CF0400F62
:1093600018BF0130C1F30501A0EB0A000131C9B2F9
:10937000C0B2814238BF014699423ABF591A5FFADA
:1093800081FA4FF0000ABBF1000F7BD09BF802C0BE
:109390009BF801004FEA0C2101F4F851014371D010
:1093A000BEF1000F00F0FC80002D00F028822B8F12
:1093B00053449BB22B87A3836B6B002B00F0C180BF
:1093C000DC606C637AE7013BDBB2002D3BD1A38309
:1093D0002146304617F05EFA13B0BDE8F04F17F0A3
:1093E00065BA8F68634B3D689D4258D1D5F82C9083
:1093F000B9F1000F00F090805E493C22084614F05D
:1094000025FC0830C3B20B93D9F800001CF050FFC4
:109410007A7902F00702012A80463ED0022A2BD137
:10942000072394F81AE023710021734661F3861331
:10943000A37694F821302660E16023B1CEF3C00E0C
:1094400004F1220A68E72A8F13449BB22B87A38377
:10945000B8F1000F42D098F856306A6BDB0700F184
:109460009A80D460EE6A6C63002E46D0284613B012
:10947000BDE8F04F1CF0FEBF3A4A3B493B484FF471
:10948000AB7311E7002D56D02B8F53449BB22B8723
:10949000A383BEF1000FDBD08EE70623C1E7D1F82E
:1094A0000C80B8F1000F00F08980D8F80050EB6A0A
:1094B0009F426BD02B4A30492C4840F21D1337F0A5
:1094C00095FD002383F31188BFF36F8F03231846A4
:1094D00002DFFF23B9460B93474695E7214A274908
:1094E000224840F2C13337F081FD88F31188BFF381
:1094F0006F8F0323184602DFADE71A4A20491B4845
:1095000040F2E93337F072FD86F31188BFF36F8FB5
:109510000323184602DFA9E7124A1A49134840F20A
:10952000051337F063FD89F31188BFF36F8F0323B1
:10953000184602DF60E7A4F81CA0BEF1000F3FF45C
:1095400047AF084A1049094840F25A2337F04EFD08
:10955000002383F31188BFF36F8F0323184602DFC4
:109560006B6B2DE73CF5060080EE0600A8ED0600CB
:1095700098F5060030980020B4F5060034F5060092
:1095800080F50600A8F50600C8F50600FF23B946D9
:109590000B93474638E76B6BA3427FF411AF8DE620
:1095A000BCF13F0F4FEA5C1017D9002D00F02A8163
:1095B0002B8F53449BB22B87A38349E7BA4ABB49FD
:1095C000BB484FF48D7337F011FD88F31188BFF35A
:1095D0006F8F0323184602DF67E79BF900C09BF8F3
:1095E00000E0BCF1000F02F0030C634403F1090337
:1095F000C2F340024FEAC30323FA02F3B4BF4FF4AD
:1096000096721E220C9202FB01F20C9901EB020CE5
:1096100003F596718C45C0F0EE801EF0400F14BF2C
:1096200032214FF4FA71DFF8B4C202FB01F1ACFB56
:1096300001C1890C0D910121CDE90E2301FA00F33E
:10964000D8B2109325F00EFF61690F9B0E9A11900E
:109650002F39CB1A13440D9A1B1A96489B1AA3FB59
:1096600000018FA3D3E90023FDF79AFD20F07F438B
:109670000E9394F91A30002B80F2B280002D00F086
:10968000C4802B8F53449BB21E2B2B8704D994F993
:109690001A30002BBFF6DCAE6B6B002B00F0CE80D7
:1096A000DC602B8F6C63A3839BF80010109BBA883F
:1096B00001F03F0141EA032122F4E76240F23F73E7
:1096C00022F007020B401343BB8094F91A30002BA1
:1096D000C0F2B680B8F1000F00F0D18098F8566063
:1096E00016F001067FF457AF119B6E6003F5EA7127
:1096F0003123AB60EE6078796E4A00F003030933E2
:10970000C0F34000DB00C3406B480B440721E3FB80
:10971000020163A3D3E90023FDF742FD0D9B0C9AE0
:109720002F3302EB430320F07F4028613246BB60B9
:109730000221012014F0FAFA0B9BFF2B1BD0CDE97C
:1097400000661A4623690E993F3B0B4430460121BF
:1097500015F032FF10F0FD0F0DD0534A5749544811
:1097600040F2963337F042FC86F31188BFF36F8FD7
:109770000323184602DF52493C22284614F066FAB9
:10978000504A2369CDE907254F4ACDE905252969C6
:109790000024CDE9034100F108020E990091CDE9C2
:1097A00001443F3BD2B20121204615F059FE10F092
:1097B000FD0F0DD03C4A45493D4840F2A63337F0F5
:1097C00015FC84F31188BFF36F8F0323184602DF63
:1097D00001220221104613B0BDE8F04F14F0A6BAE2
:1097E00016F018F823690E9A243B991816F014F80D
:1097F00002023FF543AF002D7FF42AAEE8E5A4F85E
:109800001CA09EE6A4F81CA0E2E5314814F0F0F993
:109810000546002864D0002390F820200370C0E99A
:10982000053363F3C712A0F838A0C06180F8202088
:1098300003634363C0F82C9000F11C072C6330E7EE
:10984000D9F8183083B1BB420ED0174A21491848C5
:1098500040F2333337F0CAFB002383F31188BFF3A0
:109860006F8F0323184602DFC9F81870A37E43F0F8
:109870004003A3763B796FF386133B711EE50A4ADA
:1098800015490B4840F24A3337F0B0FB88F3118892
:10989000BFF36F8F0323184602DF1FE7AFF300808B
:1098A0008D49FD1A070000003CF50600ACF50600E6
:1098B000A8ED060000CA9A3B8C49FD1A08F606007E
:1098C00030980020616504005D63040038F60600EE
:1098D0002C980020DCF5060034F5060083DE1B43DF
:1098E00094F91A30002BBFF673ADA37E43F040030A
:1098F000A3766DE5000000002DE9F04F05468BB022
:109900008B46012002219946144629F0B3FE00221D
:1099100002218246012014F009FA3F494FF4E07217
:10992000284614F093F900F109063C4B0093F6B277
:1099300001954B4632460121002015F0C3FE10F080
:10994000FD0F0ED0364A3749374840F68F0337F0BF
:109950004DFB002383F31188BFF36F8F0323184659
:1099600002DF324BA4FB0348204629A3D3E900239E
:109970004146FDF715FC2E4B20F07F47A7FB033136
:109980000722E01A02FB071168EB01014FF47A721B
:109990000023FDF705FCCDE90170CDF800B0089576
:1099A0000695296995F9434022480491224931EAF4
:1099B000240128BF01460591204C07944FF6FE7103
:1099C00003914B4632460121002015F049FD10F06D
:1099D000FD0F0ED0124A1349134840F6A40337F086
:1099E00005FB002383F31188BFF36F8F0323184611
:1099F00002DFBAF1000F02D10BB0BDE8F08F0122F7
:109A0000022110460BB0BDE8F04F14F08FB900BF33
:109A10008D49FD1A0700000028390020C16B0400A1
:109A2000A8F6060008F60600A8ED060000CA9A3B54
:109A30008D49FD1A65CE040019D00400616B040045
:109A40002DE9F0418468228E4FF6FF739A428CB064
:109A500045D00546204620F0BDF92B7D012B00F0B6
:109A60002281022B00F01581002B00F0F48094F885
:109A70006061002E40F010812B8A678F94F943209B
:109A8000CDE90A6673B3002AC0F25A810023A4F814
:109A90009E31AA7C238FFD1802F003030135012BB0
:109AA000ADB23BD0B4F8A231002B00F005819D424D
:109AB00080F059815B1B9BB20022062BA4F8A231D7
:109AC000628740F2F68094F943309342C0F25081AD
:109AD000002326E09DF8271020461DF093FC0CB0D3
:109AE000BDE8F081002AB8BF84F88961238FAA7C81
:109AF000FD1802F003030135012BADB20ED0B4F80E
:109B00009E31002BCED0AB4240F23C815B1BA4F8CF
:109B10009E31B4F8A231002BC9D102E00023A4F891
:109B2000A23194F8482063F3820284F84820294641
:109B30000DF1270220461FF097FE7430CAD0B4F80A
:109B40009C312BB1AB4240F2EC805B1BA4F89C3102
:109B5000B4F898312BB1AB4240F2DA805B1BA4F829
:109B60009831658F16B9AF4200F0C9800135ADB2AA
:109B700094F8DD3013F0010731D1DDE90A130A460C
:109B8000002B40F0CC80002900F0BB801F46184617
:109B9000228EE4690694CDE9035609329A4D02906B
:109BA000CDE90017D2B201210020059515F0ECFC9B
:109BB00010F0FD0F93D016F047FF84428FD0934AE8
:109BC000934994484FF4AE6337F010FA002383F3BF
:109BD0001188BFF36F8F0323184602DF7FE794F9E4
:109BE00043206FF30003002A84F8DD307FDB94F814
:109BF0008200C0F3C00100F0070025F031FCB4F88A
:109C00007A20B4F878301344628D03F5EC73134472
:109C10000344814A81480721E3FB0021104678A3D1
:109C2000D3E90023FDF7BCFADDE90A1320F07F42F7
:109C300020692261904235BF171A801A0020002740
:109C40000A46002BA4D157EA010CA1D1002858D014
:109C500019461F469CE794F89A3003F01803182B16
:109C60007FF405AFA18EB4F89A218B1D9A42C4BF30
:109C7000931F5B1AB4F89611CCBF9BB2134699425E
:109C800000F09C80A4F89631A4F89831A4F89C21A7
:109C9000EDE63D2684F86061314620460CB0BDE813
:109CA000F0411DF0AFBB0023A4F89C31A4F898311B
:109CB000DDE60126334634E7628E052A97BF01327E
:109CC00040F2E2434FF4FA7392B203FB02F2B4F8AB
:109CD000A03142F2107101FB0323013BB3FBF2F30D
:109CE0009BB2A4F8A231002B7FF4E1AE19E794F8FF
:109CF0008300012100F0070025F0B4FB7FE7354623
:109D000036E7002D43D00027114638463B463FE753
:109D10000023A4F8983120461FF048FE21E738467A
:109D200036E716F0F9FD0146A0B30023A4F89C31F4
:109D3000238EC3801B230371006816F0BDFD07E767
:109D400094F889316BB3013B84F8893104F1E00860
:109D500040461FF037FBB8B340461FF033FBB8B3A3
:109D60000023638792E6082120461DF04BFBB6E6F0
:109D7000A7B9D4F88C315A0813F0010336D1C4F8CE
:109D80008C21A5E63E2120461DF03CFBA7E6002ED7
:109D9000B9D1A4E60123A4F89C31D9E613460126E3
:109DA000BFE60AAA0BA92846FDF75EFDDDE90A23F6
:109DB0001343CBD0237884F88931C7E7B4F89C11DA
:109DC00000297FF454AE5FE7FF201DF0D7FAC3E708
:109DD0000246D4E9210113F071FF0028C0D194F8A4
:109DE00048301B0744BFA38E63874FE642F0004212
:109DF0001E46C4F88C213B4693E600BFAFF30080BB
:109E00008D49FD1A070000001D6B0400A8F606002E
:109E10007CF70600A8ED06008C49FD1A00CA9A3BA3
:109E20002DE9F04F87B0CDE90432BDF84420037826
:109E30000292BDF84820BDF840A0BDF84C90878F35
:109E4000019104460392002B00F0FC80013FBFB259
:109E5000A368D4F81CB1A7EB090292B2002B0092C0
:109E60000ADAE168626823F0004391422CBF8B4418
:109E70009344A360ABEB030B94F88200C0F3C001E2
:109E800000F0070025F0ECFA658E052D40F2E18028
:109E9000009BBAF1050F15FB03F5ADB240F2E248A5
:109EA00040F2E280B4F87A20B4F87830134403F238
:109EB0006E2303447C4A7D480721E3FB00214FF0D9
:109EC0009613A36296231046A38575A3D3E90023B6
:109ED000FDF766F9564620F07F4040F2E24308FB6A
:109EE00005F103FB06F6B1FBF6F81FFA88F52061D1
:109EF00006FB05F08142A84680F09680401A6B4927
:109F000067A3D3E90023A0FB0101FDF749F920F085
:109F10007F408344E38EB4F824211344994494F899
:109F20004330A9EB0709C844DB09A4F8368000F0E8
:109F3000A780E26C0099636D02FB1133636525F025
:109F4000DBFC074694F88801C0F3420025F0D6FCFC
:109F5000074406FB07F7564B07F5742707F23F2720
:109F6000A3FB0737BF0C636DE76405FB07F07208BE
:109F70000344963A934228BF1346C4E91423059B31
:109F80004A4D40F2E24808FB03F3E3650023A0FBDF
:109F90000501C4F8903142A3D3E90023FDF700F98D
:109FA000049BABEB000B4348A0FB0330800A08FB8B
:109FB00000F0A0FB05013AA3D3E90023FDF7F0F878
:109FC000F71B20F07F45029BA386039BA4F8A031DA
:109FD00031462046A4F832A01FF082FC364BA18EF9
:109FE0003344881DB3FBF6F39AB29042A4F89A2149
:109FF00004D2C1F57F41FA310A4492B2019BA4F820
:10A00000962113B10023A4F8A2315B463A462946B3
:10A010002046FFF771FC94F8943143F0010384F873
:10A02000943107B0BDE8F08F091A20481CA3D3E98A
:10A030000023A1FB0001FDF7B3F820F07F40ABEB5C
:10A04000000B67E7C38E1F44B0F824311F44BFB232
:10A05000FEE6009B013515FB03F5BAF1050FADB225
:10A060004FF4FA783FF61EAF4FF096130AF101064F
:10A07000A3629623A385B6B20F204FF4FA732EE79E
:10A08000049B0A48A3FB000105A3D3E90023FDF7C5
:10A0900087F820F07F453746013594E7AFF300801D
:10A0A0008D49FD1A070000008C49FD1A00CA9A3B31
:10A0B00083DE1B435917B7D17FC3C90100000000DD
:10A0C0002DE9F04F04460B6890F820701668D3F81D
:10A0D00000A0E38CD0F8220095B015464A7CADF87C
:10A0E0004C30FF2AC7F3801388460D9212908DF8EA
:10A0F0003F3040F00E8299461A4612AB93E80300B7
:10A100000DF1400B1090ADF84410F8090AF18B01E5
:10A1100027680A915B460C900B971DF05BF80A9933
:10A12000002840F0DE8196F8AE310C9A0A9069F36F
:10A13000410362F3000386F8AE311098BBF8043097
:10A14000C6F8B501A6F8B931DAF88B30C6F8AF31E8
:10A150008B88A6F8B331638E94F83410A9722B81E2
:10A16000D4F82E306B60D4F83E30C5F8223005F1BB
:10A17000220094F842300371052113F025FF95F871
:10A18000273000F03F0060F3050385F8273094F88E
:10A190004330C3F3040185F82810218FE982012898
:10A1A00003F01F0389B240F29C811B3303F01F03AD
:10A1B0000B2B00F296810A9A002900F09281D8F8C0
:10A1C00000305A60638F2B83E98ADAF8442040F22A
:10A1D000E24303FB01F7E18E0A91002A00F021829D
:10A1E0009AF8251040F6C41240F6A6637F2988BF6E
:10A1F0001A460C92002130461FF086FB94F843303B
:10A2000096F888215B0963F3430286F8882125F0DC
:10A2100073FB814696F88801C0F3420025F06EFB7F
:10A2200009EB000307FB03F3CD4A03F5742303F2A4
:10A230003F23A2FB03239B0C2B637B08963B6B63A2
:10A2400094F8353040F2E24202FB03F36B64A38FD3
:10A25000A6F8A031394630461FF042FBC14BC24A36
:10A26000C6F8A4213B44B3FBF7F39AB2A6F89A21AF
:10A27000298B881D824204DDC1F57F41FA310A44F1
:10A2800092B2A6F896216B68C6F88C31DAF84430A1
:10A29000002B00F0C1814FF00109E20700F1788145
:10A2A0004FF4807323849AF8270024F0C3F904F153
:10A2B0002F03002800F04281A26AC4F82F20A28D4B
:10A2C0009A800D9BFF2B00F0C381BDF84C30129893
:10A2D000A4F82D30C4F82900BBF80430A4F82730C6
:10A2E00010989DF83F30C4F8230084F82230EB8AA0
:10A2F000E3862B8B2387B6F8A031638796F88831E5
:10A30000C3F3420384F83C3030461CF095FCA8822D
:10A31000E08021460B98D8F8044016F0BBFAAB8ACF
:10A32000E3801C23D4F800B02371B9F1000F40F092
:10A33000588184F8209017F0C9FE002840F037813A
:10A340002146584616F0B8FA95F86700B5F85C4013
:10A35000B5F85E90012100F0070025F083F8A144D4
:10A3600009F26E2981440446804A81484FF09613D1
:10A370000721C5E90333E9FB002131234FF0000930
:10A380001046B360C6F8049073A3D3E90023C6F85F
:10A390000C90FCF705FF20F07F4030610A99D8F857
:10A3A0000C302D6B40F2E24202FB01330C992F3B43
:10A3B00019440C1B4A460221012013F0B7FCDAF8BD
:10A3C00044307D1BA3B11F6838461BF03DF9021DC8
:10A3D000684B0097D2B20121484615F031F90128A7
:10A3E00000F03C8197F84E306FF3000387F84E3051
:10A3F00050461AF097FA07465D4857A3D3E9002361
:10A40000A4FB0001FCF7CCFECDF804A0D8F808307E
:10A410005849009120F07F4BBA1C3F3BD2B25B44BD
:10A420000121002015F04EF9012800F0FC809AF877
:10A430002430DB0700F1868030461CF0FDFB4C4BDE
:10A44000A5FB0359044644A3D3E900232846494603
:10A45000FCF7A6FED8F80830474A0792A3F13F0858
:10A46000464B069620F07F47A7FB0331E81A444B82
:10A4700005934FF4F573089333694FF0000ACDE963
:10A4800003A34FF0070303FB071169EB01014FF42E
:10A490007A720023FCF784FE0934E4B2CDE901703E
:10A4A000CDF800B0434622460121504614F0D8FFB3
:10A4B00010F0FD0F0DD0334A3349344840F2EB130E
:10A4C00036F094FD8AF31188BFF36F8F032318468B
:10A4D00002DF01220221104613F028FC15B0BDE86E
:10A4E000F08F0022CAF8142095F82C300B9862F3F4
:10A4F000000385F82C30E56801262146267116F008
:10A50000C9F928682E71294616F0D6F915B0BDE8AC
:10A51000F08F0DF1400B10460DF13F015A4623F02C
:10A52000B9FA9DF83F9094F8207009F102095FFA9A
:10A5300089F98DF83F9009F00102E6E5C4F82F0093
:10A540009880BEE60023012200931846114615F0BC
:10A5500077F871E7AFF300808D49FD1A070000001E
:10A5600083DE1B437FC3C901404B4C008C49FD1A5D
:10A5700000CA9A3B25CE0400F1CD04008D49FD1A96
:10A5800065CE040074FC060008F60600A8ED06007F
:10A590003C4A3D493D48FD2336F028FD002383F326
:10A5A0001188BFF36F8F0323184602DF78E6214638
:10A5B000584616F06FF9DAF840405046D4F800B02B
:10A5C0001AF0B0F95FFA80F9B9F1010F14D800233D
:10A5D0001222A4F8069023722271AA8A6281637201
:10A5E000AEE695F8273043F0400385F82730281D64
:10A5F00023F048F828859CE6224A2549234840F262
:10A60000511336F0F3FC002383F31188BFF36F8FEF
:10A610000323184602DFDAE794F82030C3F3401929
:10A620003BE60C93E6E516F00FFA82453FF4FFAEE9
:10A63000144A1849154840F2922336F0D7FC0023FB
:10A6400083F31188BFF36F8F0323184602DFEEE612
:10A650000022C4F82920A4F82D203DE616F0F4F9D4
:10A6600087423FF4BFAE074A0A49084840F29223A6
:10A6700036F0BCFC89F31188BFF36F8F03231846B3
:10A6800002DFAFE674FC0600F8F00600A8ED060055
:10A69000CCF10600D0FC06002DE9F04F8DB0CDE9DD
:10A6A00005019B460020BDF868309DF85C80BDF830
:10A6B0006090BDF864A09DF86C50029204931BF06A
:10A6C00017FE002800F09F8008F00106044630467F
:10A6D00015F0E8F80390002E40F08D80169B03994A
:10A6E0005A4630461CF076FD002840F09080012D3F
:10A6F00000F2898094F83C3065F3020384F83C3022
:10A70000236A089304F11C020792002B00F08F804B
:10A71000276A3D680BF0010997F86600C0F3C00195
:10A7200000F0070024F09CFE94F83C10B7F85C2081
:10A7300001F003032833C1F34001DB00CB40934217
:10A7400038BF1346A7F85C3094F83CC0B7F85E10E9
:10A750000CF003022832CCF3400CD20022FA0CF2A7
:10A760008A4238BF0A469918FB89A7F85E2000F58F
:10A77000EC7018444318B84AB8480721E3FB00219D
:10A780001046B3A3D3E90023FCF70AFD20F07F4075
:10A790002861029D284623F081FCA38F03F0BF03AC
:10A7A00063F0FF03A387002D35D0A8F10203012B2E
:10A7B00040F2278194F85610079868F3830184F8D3
:10A7C000561094F83C1069F3451184F83C10169922
:10A7D0000968616216998988218504992186029900
:10A7E0000091DDE905230021FEF74EFCE064002026
:10A7F0000DB0BDE8F08F062113F03CFA00287FF47D
:10A800006DAF1220F4E70C200DB0BDE8F08F0B20E7
:10A810000DB0BDE8F08F24F0CDF80028C5D0029A25
:10A820001699584623F0EEFD84F83D00BDE716F07A
:10A8300019F80990002800F006811CF0F1F905468E
:10A84000002800F0FD80203013F0D2FB05F11C073A
:10A85000002840F0E180032105F1240024F074FC7D
:10A86000D5F89400A5F834A04FF6FF73A5F8329000
:10A870002B86002800F0DF8005F1880205F18401B5
:10A8800013F004FAB5F8823023F4EF6323F00703E2
:10A8900043F48C7343F00103A5F8823095F89A30A5
:10A8A0004FF0000A23F0070385F89A30012128466B
:10A8B000C5F894A0A5F898A01DF0E0F8A5F836A07A
:10A8C000C5F83AA005F13E0022F086FE95F8433027
:10A8D00060F30503012185F843300DF12F0024F0CA
:10A8E00033FC049B9DF82F20A5F8A0315C4B85F824
:10A8F00045A0A3FB0213DB0803EB4303A2EB830297
:10A9000095F84330A98EA5F8A2A103F03F0385F87E
:10A91000433095F84830A5F898A1053223F0070395
:10A9200085F8442085F8483040F2E2424D4B02FB66
:10A9300009F94FF4C0224B44C5F89C21881DB3FB94
:10A94000F9F39AB28242A5F89A2102DD063A521A28
:10A9500092B2A5F8962128461EF04AFF494628469D
:10A960001EF0BEFF4FF0000A099BC5F8643185F860
:10A9700060A11CF023FC95F8A83160F3020385F870
:10A98000A8311CF021FC95F8A83160F3C50385F8C7
:10A99000A83195F894316AF3410385F8943105F1B3
:10A9A000E0001EF0CDFC95F8AE31C5F804A00BF028
:10A9B000010969F3410385F8AE314FF09613C5E9FB
:10A9C0000A333123AB60169BC5F80CA01B68169A9E
:10A9D000C5F8B53195F8AE319288A5F8B92168F37C
:10A9E0000003039A85F8AE311368C5F8AF31938838
:10A9F000A5F8B3312762C5E905AA85F800A0ED6185
:10AA00008AE6002023F06EFB94F83C3043F04003CC
:10AA1000B04684F83C30CDE6134A14491448C123AB
:10AA200036F0E4FA089B83F31188BFF36F8F03239A
:10AA3000184602DF0FE705F18C00C5F894001BE70C
:10AA4000099815F015FF0720D2E600BFAFF300808C
:10AA50008D49FD1A070000008C49FD1A00CA9A3B77
:10AA6000ABAAAAAA7FC3C90100FD06005CEE0600DE
:10AA7000A8ED0600000000002DE9F04F04468DB05F
:10AA800090F82080A38D806AADF82C30E307C8F3DE
:10AA9000C0170E461546C8F340180A9000F11381FE
:10AAA00000232384B37C707C13F001031CBFD4F813
:10AAB0002230C4F82F3004F12F0214BFE38CC4F805
:10AAC0002F30FF28938004F1290904F1230200F0BC
:10AAD000EC8004F1220122F0DDFF94F82230BDF871
:10AAE0002C200A98C4F82900023384F82230A9F8EF
:10AAF00004203368D3F80090EB8AE3862B8B2387FE
:10AB0000B9F83030638724F0F5FE84F83C002F68F4
:10AB100038461CF091F80021A882E08038461EF0EB
:10AB2000F3FED6F804A02068214615F0B3FEAB8AE8
:10AB3000AAF806301C23DAF800408AF80430B8F18D
:10AB4000000F40F0D0808AF820805146204615F052
:10AB5000B3FEBB687A6895F86600B5F81680F568AC
:10AB6000694C934238BF1346C0F3C00103F10E0A8B
:10AB700000F0070040F2E24303FB08F824F070FC09
:10AB8000002202212D1A012013F0D0F848461BF0B4
:10AB900075FBA5FB04455AA3D3E900238346294648
:10ABA0002046FCF7FDFACDF80490B36857490091B0
:10ABB00020F07F490BF10702A3EB0A03D2B24B440A
:10ABC0000121002014F07EFD10F0FD0F0ED0504A40
:10ABD0005049514840F2493336F008FA002383F3D4
:10ABE0001188BFF36F8F0323184602DF4FF0000B6D
:10ABF0005B4606220121CDF800B0584614F020FD36
:10AC000038461CF019F8B36806463F48A3EB0A0A19
:10AC1000A8FB00013AA3D3E90023FCF7C1FA1946C7
:10AC20003E4B08933E4B069340F2793307970993C6
:10AC30003B698046CDE904B3104600234FF47A7295
:10AC4000FCF7AEFA374B0722A9FB0331CDE90280AE
:10AC500002FB0911E01A65EB01014FF47A7200233F
:10AC6000FCF79EFA0936F6B2CDE90090534632461B
:10AC70000121584614F010FC10F0FD0F0DD0244AAD
:10AC80002449254840F27A3336F0B0F98BF3118825
:10AC9000BFF36F8F0323184602DF01220221104603
:10ACA0000DB0BDE8F04F13F041B80023BDF82C10F3
:10ACB0000A98C4F82930A9F8043084F82270C4F83E
:10ACC0002300918015E7124A174913484FF4317356
:10ACD00036F08CF9002383F31188BFF36F8F0323C1
:10ACE000184602DFDCE695F8273043F0400385F88C
:10ACF0002730281D22F0C6FC4FF00108288522E7E6
:10AD00008D49FD1A0700000000CA9A3BE1CF0400FC
:10AD100000FD060008F60600A8ED0600E5CF0400D9
:10AD200019D004008D49FD1AF8F00600000000005B
:10AD300003460438C0B2012870B50D460FD9A3F1FF
:10AD40000900C3B2052B07D880B21BF07DFF18B1F4
:10AD500090F94330002B1BDA0024204670BD1AF016
:10AD6000D3FE04460028F7D05F2211461AF0D8FE21
:10AD7000174A184B0721E0FB0231184612A3D3E90A
:10AD80000023FCF70DFA20F07F402860204670BDBC
:10AD900090F882300E4E0446C3F3C00103F0070062
:10ADA00024F05EFB0B4A00F24E600721E0FB062117
:10ADB000104605A3D3E90023FCF7F2F920F07F4009
:10ADC0002860204670BD00BF8D49FD1A07000000B5
:10ADD00000CA9A3B8C49FD1A70B588B01E4607AB75
:10ADE0001446019306AA05AB02920093204A23461B
:10ADF00022F0FEFAFF2834D0069B1E480721A3FB51
:10AE0000000201FB032118A3D3E90023FCF7C8F9D2
:10AE1000044600B13E34079D1749059BA5F57422F1
:10AE2000A2F510728A4214D812480721A3FB00022F
:10AE300001FB03210CA3D3E90023FCF7B1F90F4B6D
:10AE4000A3FB053504EB954404443460002008B0AE
:10AE500070BD05F1E87505F5D435013B05F5A5751F
:10AE6000E2E76FF00900F2E700CA9A3B0000000039
:10AE7000E5D304008D49FD1ABFBDF07F83DE1B437F
:10AE80002DE9F043C668476873683D491A68D0F8F1
:10AE90000090A7F57423A3F510738B4283B080460E
:10AEA00007D907F1E87707F5D43709F1FF3907F536
:10AEB000A57773681169DD8ACDF8049006F1100357
:10AEC00001AA0220FFF788FF00284ED10199A1EBCB
:10AED00009031B0237D40846494614F09DFC03467B
:10AEE00028480721A3FB000201FB032122A3D3E989
:10AEF0000023FCF755F934690444002C346109DB64
:10AF000040F2E24305FB03F3A3422FD2E41AA3422B
:10AF1000FCD33461D8F800301A48A3EB0903A3FB33
:10AF20000002072101FB032113A3D3E90023FCF74F
:10AF300037F9154BA3FB0737A0EB9740204430614E
:10AF400003B0BDE8F083484614F066FC03460D48A4
:10AF50000721A3FB000201FB032107A3D3E9002380
:10AF6000FCF71EF93469241AC7E73469002CD1D1E3
:10AF700003B0BDE8F08300BF00CA9A3B00000000A8
:10AF8000BFBDF07F8D49FD1A83DE1B43000000002A
:10AF900010B5334C3349002304F1FF3C14F833203F
:10AFA000072A02EB820E05D811F83E206FF34512F6
:10AFB00001F83E201CF833206FF300020CF8332018
:10AFC0000133082BEAD1284A284C002313700A7851
:10AFD00063F300020A7091F8282063F3000281F8FD
:10AFE000282091F8502063F3000281F8502091F856
:10AFF000782063F3000281F8782091F8A02063F3B1
:10B00000000281F8A02091F8C82063F3000281F8C3
:10B01000C82091F8F02063F3000281F8F02091F845
:10B02000182163F3000281F81821114A9FED0A7B71
:10B030001370104B83ED007B0F4B236028B1BDE8EC
:10B0400010400E490E483FF072BBBDE810400C485E
:10B050003FF07BBBAFF30080FFFFFFFFFFFFFFFF71
:10B0600031A50020F0A30020AEC5002000A30020E1
:10B07000ADC50020D8430020A0BB0D003DE3040077
:10B08000A8430020000000002DE9F04F8FB00DF123
:10B0900037010446DFF8E0A0DFF8E0800DF136006C
:10B0A00015F080FC9DF836309DF837B00B9314F006
:10B0B000B1FBDAF80060A6FB085629A3D3E9002308
:10B0C0000027814631462846FCF76AF8CDE9077724
:10B0D000069420F07F44DAF80400234B0593A0FB8C
:10B0E00008011FA3D3E90023FCF75AF81F4B20F0F7
:10B0F0007F40A4FB0331072202FB0411CDE903705A
:10B10000E81A66EB01014FF47A720023FCF748F865
:10B110000097CDE901404B460B985A46032114F0A5
:10B120009FF910F0FD0404D06FF08B000FB0BDE864
:10B13000F08F0F480F4A002331F04EFD20B9DAF8A6
:10B140000C000FB0BDE8F08F9DF837209DF8360059
:10B1500000942346032114F073FA6FF07300E5E7BF
:10B160008D49FD1A07000000B9EA04008D49FD1A57
:10B17000A4A50020447B0B00BCA5002000CA9A3B7C
:10B1800038B50F4D044614F045FBA96814F044FB94
:10B19000696803460B48B3FBF4F4A1FB00011C44AF
:10B1A00005A3D3E90023FBF7FBFF20F07F40844297
:10B1B00094BF0020012038BD8D49FD1A0700000012
:10B1C000BCA5002000CA9A3BF0B5C468636883B090
:10B1D0000546002B6AD127F0D1FC082027F0F4FCAB
:10B1E000A17A607A01F00101C0F3820027F0DEFC51
:10B1F000627A252102F01C02082027F019FD484B35
:10B20000019301A827F000FD464940F25B6027F05A
:10B21000B1FD237AC3F3420262F306132372204680
:10B2200024F0CEFD23F0C6FB58BB637A9B071FD1E9
:10B2300027682E68384624F0AFF806446A6806F19D
:10B240000E01012027F0F0FE28F044F8204619F006
:10B2500077FB811C3246C9B2384624F0ABF805466C
:10B2600078BB204623F0FEFF88B9002003B0F0BD74
:10B27000012022F093FE4178821C007827F074FEB2
:10B28000D6E7607A10F0030018BF0120F1E7264AE4
:10B290002649274840F2294335F0A8FE85F3118856
:10B2A000BFF36F8F0323184602DFDEE793F82C30DD
:10B2B0009A0790D01F48214627F01EFC27F004FD76
:10B2C000D3E7194A1C491A4840F2114335F08EFE63
:10B2D0001A4B0721A5FB030301FB05310EA3D3E99C
:10B2E0000023FBF75DFF16490246164835F07EFE47
:10B2F000002585F31188BFF36F8F0323184602DF03
:10B300001148214627F0F8FB27F0DEFC6FF08B0098
:10B31000ACE700BFAFF3008000CA9A3B000000001A
:10B32000D6BE898E555555005C0107009CEF06007E
:10B33000A8ED060069F5040080EE06008D49FD1AAF
:10B3400010020700DC01070009F9040000000000FA
:10B350002DE9F047C46882B0002306460DF10301D1
:10B3600004F1140067688DF8033024F0F3FC804684
:10B37000002800F0D5803B7B07EB83031D692B7809
:10B3800003F00F03072B0DD0914A92499248A62350
:10B3900035F02CFE002383F31188BFF36F8F032356
:10B3A000184602DFAB7813F03F0900F09680EB7887
:10B3B000D8074CBF05F10A022A1D990748BF06327B
:10B3C000180748BF0232D90640F19480937851782B
:10B3D0001B0203F4F8530B4300F08C80238992F88E
:10B3E00000A00133238127F0C9FB082027F0ECFBE4
:10B3F00097F80990B97A4FEA591901F001014846C6
:10B4000027F0D4FB4FEA89025F21082027F010FCC7
:10B41000724B019301A827F0F7FB0AF03F0A70492D
:10B4200040F25B6027F0A6FC504623F0D5FFAB78D6
:10B430003F2B2BD86B48214627F05EFB27F060FDA1
:10B44000404627F025FC27683568384623F0A4FFDE
:10B45000054405F10E017268012027F0E5FD27F093
:10B4600039FF20461AF0FAF8011D2A46C9B23846BB
:10B4700023F0A0FF054600287BD1204623F0F2FEF2
:10B4800000283ED1002002B0BDE8F0870DF1030195
:10B4900007F1180024F05EFC054600285BD0214629
:10B4A000514827F029FB962027F0B2FD484627F0A7
:10B4B0007FFC9DF80330002B46D123F07BFA002857
:10B4C0003CD17B7A9B07BBD0012022F067FD4178FD
:10B4D000821C007827F048FDB2E73D4A43493E48C8
:10B4E000AD2335F083FD89F31188BFF36F8F0323FC
:10B4F000184602DF3E48214627F0FEFA27F0E4FB1B
:10B50000C0E7334A3B49344840F2571335F06EFDEB
:10B5100085F31188BFF36F8F0323184602DFB1E76D
:10B520002B4A35492C48922335F060FD88F3118869
:10B53000BFF36F8F0323184602DF1CE7787A10F001
:10B54000030018BF0120C0E7D8F804306B60B8F8DA
:10B5500008302B81B1E71E4A28491F48DD2335F00A
:10B5600045FD85F31188BFF36F8F0323184602DF73
:10B5700095E7174A224918484FF4A47335F036FD71
:10B58000204B0721A5FB030301FB05310EA3D3E9E3
:10B590000023FBF705FE1C4902461C4835F026FD3A
:10B5A000002585F31188BFF36F8F0323184602DF50
:10B5B0000C48214627F0A0FA27F086FB6FF08B009D
:10B5C00061E700BFAFF3008000CA9A3B00000000B3
:10B5D0001C02070074020700A8ED0600D6BE898E83
:10B5E0005555550015040500650405005CEE060080
:10B5F000C50505009CEF06006C020700D00107009E
:10B6000080EE06008D49FD1AA4020700DC01070048
:10B610002DE9F041C46894F91630002B8CB0C0F2CB
:10B620001681636805460E46002B40F00581A37D18
:10B630006FF30003A37527F0A1FA082027F0C4FADE
:10B6400094F82000012100F0070027F0AFFA94F8E9
:10B6500020209200252102F01C02082027F0E8FAA1
:10B6600094F8203023F01803012084F8203015F0DE
:10B670009FFA0746002800F0D08007F1200027F04D
:10B6800001FB8D4B0B930BA827F0BEFA8B4940F2C0
:10B690005B6027F06FFBA07DC0F34100253023F0F5
:10B6A0009BFE8748214627F027FAA37D9B0603D4FB
:10B6B0006368002B00F0AE80962027F0A9FC0023E1
:10B6C0001A461946184627F0BBFB23F073F90028E9
:10B6D00038D1A37D13F0180F5FD1D4F800802F6804
:10B6E000404623F059FE07446A6807F10E01002026
:10B6F00027F09AFC27F0EEFD27F012FC20461AF006
:10B70000C9FDC11DC9B240463A4623F053FE8046EA
:10B71000002840F0A38016B9E36A002B56D1636875
:10B7200043B1684B0122022100209D6012F034FBDE
:10B7300000283BD1204623F095FDF0B900200CB045
:10B74000BDE8F081A07DC0F3C00022F027FC0746D1
:10B750000DF12B0022F096FF79788046BA1C3878DC
:10B7600027F002FC94F820209DF82B00920041461F
:10B7700002F01C0227F07CFEAFE7534A53495448BD
:10B7800040F20B2335F032FC002383F31188BFF322
:10B790006F8F0323184602DFD0E7012022F0FEFB63
:10B7A0004178821C007827F0DFFB96E7464A49493A
:10B7B000474840F2062335F019FC002383F3118833
:10B7C000BFF36F8F0323184602DFB3E7424A0792A5
:10B7D000424A059240F2F31200930892CDE90366C3
:10B7E000CDE9016606943B460622314613F038FE49
:10B7F00010F0FD0F93D0344A394935484FF4FA73AD
:10B8000035F0F4FB86F31188BFF36F8F03231846DE
:10B8100002DF84E727F074FB57E72B4A31492C48B5
:10B820004FF4C57335F0E2FB87F31188BFF36F8FD8
:10B830000323184602DF20E7636893F82C30D9070A
:10B8400005D4636893F82C309A077FF5F0AE26484C
:10B85000214627F051F927F037FA6FE71A4A2349B2
:10B860001B4840F2E51335F0C1FB214B0721A8FB33
:10B87000030301FB08310EA3D3E90023FBF790FC7F
:10B880001C4902461C4835F0B1FB002585F31188A0
:10B89000BFF36F8F0323184602DF1848214627F0B5
:10B8A0002BF927F011FA6FF08B0048E7AFF3008017
:10B8B00000CA9A3B00000000D6BE898E555555003F
:10B8C000A1B902007C0B0020B00207009CEF06002B
:10B8D000A8ED060094EE0600850D0500B90D0500E3
:10B8E000D8F10600A801070069F5040080EE060003
:10B8F0008D49FD1A08030700DC010700290B05002C
:10B9000038B5044625F0B4F8A37DA27DC3F3410306
:10B91000013303F00303032B08BF002363F3420248
:10B9200014BF03F125002520A27523F055FD63689F
:10B930000BB123694BB913F06DFFC11C002027F038
:10B94000E7FBBDE8384027F0C5BC27F067FC05469B
:10B9500013F060FFC11C002027F0DAFB27F0BAFCCF
:10B9600027F05CFC294613F057FF0B4A03460721DA
:10B97000A0FB020201FB032105A3D3E90023FBF78F
:10B980000FFC23691B1A236138BD00BFAFF3008091
:10B9900000CA9A3B000000008D49FD1A000000001B
:10B9A0002DE9F04F8DB0044627F0CEF910F0FF00DE
:10B9B00013D1FF238DF829008DF827008DF82A3048
:10B9C0008DF8283023F062FDA948214627F094F82D
:10B9D00027F07AF90DB0BDE8F08F27F0D7F90546CA
:10B9E00027F0F6FA8DF8270027F0FCFA8DF82800EA
:10B9F00027F0A4FD8DF8290027F082FD8DF82A009C
:10BA000027F0A8FA064627F089FAEDB2074623F098
:10BA10003DFD002DD8D0012015F0CAF805460028BC
:10BA200000F0168195F8203003F00F03072B05F185
:10BA3000200900F0E1809DF82730002B3ED19DF8D1
:10BA40002980B8F1000F40F0F98042464FF0FF0A1C
:10BA500041465346204625F04DFB0028B4D09DF8C2
:10BA6000298095F82020616800238DF82B30F6B2EC
:10BA700002F00F03002948D0616891F82C10880764
:10BA800043D4072B40F0FC8094F820305A079BD019
:10BA9000A27D12F0010297D10DF12B010191CDF899
:10BAA00000A04B460121204625F06AFB002840F00B
:10BAB0009E8095F8203003F00F0377E0A07D9DF87D
:10BAC0002810C0F3C00022F0E7FD9DF829809DF802
:10BAD00027208246BCE7012B45D195F821200C2A6E
:10BAE000E7D195F82020CDF800A019460023019356
:10BAF000D20905F12803204625F082F9002840F0FC
:10BB0000CB8095F8203003F00F0363BB95F821300C
:10BB10009A1F1F2A43D8A27D02F02102202A08D1B1
:10BB2000D4F804B0BBF1000F00F0AE81063B1F2B30
:10BB300035D8636833B195F8203003F00F03072B35
:10BB40007FF442AF9DF82B50009733465246414652
:10BB50002046019525F0C2F900283FF435AF10309A
:10BB60007FF432AF36E7062BD0D04521D94011F013
:10BB7000010140F06781012B11D195F821300C2B88
:10BB800097D195F82020CDF800A00DF12B0301935B
:10BB9000D20905F12803204625F032F938BB95F883
:10BBA000203003F00F03072B3FF46EAF042B7FF41C
:10BBB0000BAF95F82130063B1F2B3FF605AFA37D59
:10BBC000DB077FF501AF27F0EFF895F8203002781A
:10BBD000C3F38013B3EBD21F7FF4F6AE0830062216
:10BBE00005F122013FF0AEF900287FF4EDAE95F8A3
:10BBF0002130002B9DD1E7E60DF12A0301930DF1D1
:10BC0000290300930DF127020AAB4946204626F08E
:10BC1000B7F89DF827308346002B40F0F3809DF85D
:10BC20002980B8F1000F40F005814FF0FF0ABBF109
:10BC3000000F3FF416AF9DF8272009E79DF82A0072
:10BC400022F09CFD9DF829809DF827208246FFE682
:10BC5000084A0949094840F2C72335F0C7F985F376
:10BC60001188BFF36F8F0323184602DFDAE600BFA7
:10BC70007D0B0500B0020700A8010700A8ED060033
:10BC8000A17D090740F1C980002B7FF424AF95F80E
:10BC90002130063B1F2B82D8042014F089FF002896
:10BCA0003FF492AE27F01EFBE36A064643B9238DAC
:10BCB00040F2712202FB03F3B0FBF3F203FB120626
:10BCC00023681A69BA4B0721A2FB030301FB023167
:10BCD000B5A3D3E90023FBF763FAA0F2A2331F3B1D
:10BCE00062EB0202B34272F10002FFF46DAE27F084
:10BCF00007F95046636822F0ABFC94F820305B06ED
:10BD0000074640F11981002800F01681814601267E
:10BD100027F04AF8CDE902690BAB049305F1220341
:10BD2000019395F82030C3F3801301460646009333
:10BD300000220123204625F091FA304626F0A8FF84
:10BD400026F0EEFF002840F0FD809A48214626F0BC
:10BD5000D3FE626892F82C3043F0010382F82C3055
:10BD6000A37D43F08003A37514F03CFF17220271FA
:10BD70004FF6FF72C28095F820E081463346CEF33D
:10BD8000401E00F1200206F1200C1D6858689968D9
:10BD9000DE68D6601033634515605060916002F133
:10BDA0001002F2D11B68136099F82030C9F80840DE
:10BDB0006EF3451389F8203027F030FAB8F1000F00
:10BDC000C9F810000B9BC9F8143008BF4FF0FF0AE8
:10BDD00089F819A094F8203013F0400302D03B1EDC
:10BDE00018BF012399F81A2063F3000289F81A207A
:10BDF00014F0F8FE4946C9F80C00D9F8000014F018
:10BE00001BFFE7E5A07D9DF82810C0F3C00022F0DD
:10BE100043FC9DF82980824609E7BAF1FF0F8DF8AF
:10BE20002CA0C2F3801B10D094F8212052453FF47F
:10BE30002BAF6AE69DF82A0022F0A0FC9DF829802D
:10BE40008246F4E695F8213070E605F122010BAA4E
:10BE50005846079122F050FD079900283FF451AE53
:10BE600094F82030C3F340135B457FF44AAE0622BA
:10BE700004F108003FF066F800287FF442AE95F820
:10BE8000203003F00F03FFE6962027F0C1F8584654
:10BE900026F08EFFCDE9007B3346414652462046D0
:10BEA00025F01CF800287FF48FAD26F07DFF0646B4
:10BEB0000322337862F30303337095F8203032782D
:10BEC000C3F3801363F3C7120C23327050467370B0
:10BED00022F0BEFB94F82020570643D5002841D01D
:10BEE0003178324641F0400102F8021B0168C6F881
:10BEF000021083889380D5F82230B360EB8CB38135
:10BF0000304626F0C5FE26F00BFF00283AD127F078
:10BF1000E1F9A37D43F00103A37595F820301907DB
:10BF200005D194F8203043F0080384F820302248EB
:10BF3000214626F0E1FD4DE5A67D04F12209C6F378
:10BF40008016E5E61D4A1E491E4840F2AF4335F013
:10BF50004DF8002383F31188BFF36F8F0323184636
:10BF600002DFF2E6A37D3278C3F3801363F3861217
:10BF7000334603F8022BD4F82220C6F80220E28CC4
:10BF80009A80B8E70D4A0E490E4840F2335335F017
:10BF90002DF8002383F31188BFF36F8F0323184616
:10BFA00002DFB4E7AFF3008000CA9A3B0000000054
:10BFB0008D49FD1A690C0500910B0500B0020700C0
:10BFC000B0010700A8ED06002DE9F047C46882B073
:10BFD00007460DF1020120461AF070FB90F9163069
:10BFE000002BC0F2008143680646002B40F0F08031
:10BFF0002379974A6FF3861323710023138026F069
:10C00000BDFD082026F0E0FD6079012100F0070069
:10C0100026F0CCFD62799200FF2102F01C0208207C
:10C0200026F006FE012014F0C3FD0546002800F0AE
:10C03000C08005F1200026F025FE864B019301A863
:10C0400026F0E2FD844940F25B6026F093FE207901
:10C0500000F03F0023F0C0F92146804826F04CFD57
:10C06000962026F0D5FF627902F0070201231046E0
:10C07000002126F0E5FE22F09DFC002853D1B37D7F
:10C0800013F0180F7DD1D4F800903D68484623F096
:10C0900083F905EB00087A6808F10E01002026F00C
:10C0A000C3FF05466079D4F808A000F0070001211D
:10C0B00026F0FCFD0544607900F007000228554495
:10C0C0002FD004280CBF4FF4BC73282301211D443A
:10C0D00026F0EEFD284427F0B5F827F0FBF826F00F
:10C0E0001FFF20461AF0E0FA00F108014246C9B2EB
:10C0F000484623F05FF9054600287BD1736843B1B9
:10C10000574BFE60012202219F6011F045FE00287E
:10C1100040D1204623F0A6F818BB002002B0BDE8AD
:10C12000F0871823D2E7B07DC0F3C00021F036FFBE
:10C1300005460DF1030022F0A5FA69788046AA1C95
:10C14000287826F011FF62799DF80300C2F30202FD
:10C15000920042F00202414602F01E0227F088F9E6
:10C1600091E7404A4049414840F26E2334F03EFF97
:10C17000002383F31188BFF36F8F0323184602DF78
:10C18000CBE7012021F00AFF4178821C007826F0DD
:10C19000EBFE78E7334A3449344840F2692334F0FF
:10C1A00025FF85F31188BFF36F8F0323184602DF45
:10C1B000AFE72C4A2E492D484FF4FA7334F016FF9E
:10C1C00085F31188BFF36F8F0323184602DF30E732
:10C1D000436893F82C30DA0705D4436893F82C3081
:10C1E0009B077FF505AF2348214626F085FC26F006
:10C1F0006BFD92E71B4A20491C4840F24F2334F064
:10C20000F5FE1E4B0721A5FB030301FB05310EA321
:10C21000D3E90023FAF7C4FF19490246194834F05C
:10C22000E5FE002585F31188BFF36F8F03231846C1
:10C2300002DF1548214626F05FFC26F045FD6FF031
:10C240008B006BE7AFF3008000CA9A3B0000000050
:10C25000D8C10020D6BE898E55555500111E050047
:10C260008C0B00201C0307009CEF0600A8ED0600C5
:10C27000A80107008118050080EE06008D49FD1A0F
:10C280009C030700DC010700991305000000000073
:10C290002DE9F04F8FB005460E46174626F054FDA7
:10C2A00010F0FF0015D1FF238DF831008DF82F001D
:10C2B0008DF832308DF8303023F0DEF8002E5AD071
:10C2C0007D48314626F018FC26F0FEFC0FB0BDE894
:10C2D000F08F26F05BFD044626F07AFE8DF82F00E5
:10C2E00026F080FE8DF8300027F028F98DF8310017
:10C2F00027F006F98DF8320026F02CFEC3B2089321
:10C3000026F00CFEE4B2814623F0B6F88CB303208D
:10C3100014F04EFC044660B390F8203003F00F0395
:10C32000072B00F1200A24D190F821300BB30DF136
:10C33000320301930DF1310300930DF12F020CAB89
:10C340005146284625F01CFD9DF82F200346002A63
:10C3500040F0A0819DF831B0BBF1000F40F0C081EA
:10C360004FF0FF084BB343465946284624F0C2FE1F
:10C3700018BB002EA4D195F82030D90640F1858154
:10C3800014F030FC0446002800F0B8820A23237120
:10C39000A560AB692068E360214614F04DFC95F878
:10C3A0002030DA0640F171816FF30413434885F8B9
:10C3B0002030294626F0A0FB86E76B6800228DF826
:10C3C00033202BB16B6893F82C1011F002017BD055
:10C3D0006B68002B00F071816B68002BC9D1002EB7
:10C3E00000F0A78133791B0612D4AB691BB193F916
:10C3F0000430002B0CDB0DF1330300220193CDF848
:10C40000008053461146284624F0BAFE0028B0D0DA
:10C41000A6603379A27EC3F3801363F30412A2767D
:10C42000337943F0800333710023AB6114F0DAFBFE
:10C4300026F0F4FE206126F055FF49460790384665
:10C4400026F036FC079B1B1A6361A37E69F3820307
:10C45000A376089B002B40F02C817F20A37E9DF8C3
:10C4600033202076BBF1000F03F0F70308BF4FF035
:10C47000FF0862F3410384F81980A376002E00F0D0
:10C4800039810F4B00964A463946504625F0C8FB85
:10C49000A37E092260F3C713A37620682271214688
:10C4A00014F0CAFB94F91A30002BFFF60FAF054ABF
:10C4B00013880133138003E799130500C1100500A9
:10C4C000AD190500D8C1002094F8223058067FF538
:10C4D0007FAFCDE9008153460122284624F050FE6B
:10C4E00000283FF475AF002E00F01782042014F0EE
:10C4F0005FFB00283FF4E4AE089626F0F3FEEB6AFB
:10C50000824643B92B8D40F2712202FB03F3B0FB4C
:10C51000F3F203FB120A2B689F481A6907F0030322
:10C5200003F12B011733C7F3400CC900DB0021FADC
:10C530000CF123FA0CF3DFF874C20B44ACEB0303E9
:10C54000A2FB00010793072303FB021190A3D3E989
:10C550000023FAF725FE079B0344B3F11F0263EBA8
:10C560000303524573F10003FFF403AF404622F08A
:10C570006FF895F8203009905A0640F1DF810028C5
:10C5800000F0DC8107904FF0010A26F00DFC079BBC
:10C590000DAACDE902A3049204F12402019294F8B9
:10C5A0002020C2F38012014682464B460092284664
:10C5B0003A4624F053FE504626F06AFB26F0B0FBC4
:10C5C000002840F0D98126F085FE962026F020FD37
:10C5D000384626F0EDFB0899704826F08DFA6A6817
:10C5E00092F82C3043F0010382F82C30AB7D43F0FD
:10C5F0008003AB7514F0F6FA172202714FF6FF7242
:10C60000C2800446534600F120020AF1200E1F6842
:10C6100058689968D3F80CC0C2F80CC01033734541
:10C6200017605060916002F11002F0D11B68136036
:10C6300094F82030A56043F0200384F8203026F0E1
:10C64000EDFDBBF1000F0D9B206108BF4FF0FF080F
:10C6500084F81980636195F8203013F0400303D00B
:10C66000099B003B18BF0123A27E63F30002A27660
:10C6700014F0B8FA089BE060DC60002E7FF426AE70
:10C68000474A13880133138020E6A969454826F0FC
:10C6900033FA19E60990A87D9DF830100792C0F38F
:10C6A000C00021F0F9FF9DF831B0079A099B804640
:10C6B00058E626F03FFCC0B2D0E6AB7D9B067FF586
:10C6C0008BAE002E74D03379580600F10B8194F8AC
:10C6D00022207F2A79D86A68002A3FF484AEEFE5E9
:10C6E00009909DF83200079222F048F8079A099BBA
:10C6F000804637E62C4B00954A463946504625F091
:10C700008FFAA37E092260F3C713A37620682271F3
:10C71000214614F091FA94F91A30002B80F2168118
:10C7200095F8203043F0100385F820300FB0BDE8B5
:10C73000F08FAB691BB193F90430002B16DB0DF1C0
:10C74000330300220193CDF800805346114628465A
:10C7500024F016FD00283FF40EAEAB6933B995F80E
:10C760002030D8063FF50CAE00218FE7A560AB69FD
:10C77000E3601B79A27EC3F3801363F30412A276F5
:10C78000AA69137943F0800313714FE6AFF3008079
:10C7900000CA9A3B000000008D49FD1A651505008E
:10C7A000D8C1002099130500AD19050028FDFFFF31
:10C7B000AA69002A00F0BD80137959063FF50CAE36
:10C7C00094F822307F2B7FF607AE0DF13303002261
:10C7D0000193CDF8008053461146284624F0D0FC42
:10C7E00000283FF4F9AD042014F0E2F900283FF4EA
:10C7F000C0AD962026F00CFC384626F0D9FA26F07B
:10C80000D3FA0378032262F30303037094F8203011
:10C810000278C3F3801363F3C7120C2302704370D2
:10C820008246404621F014FF95F820305A0640F128
:10C830009280002800F08F809AF80020534642F042
:10C84000400203F8022B0268CAF8022082889A800C
:10C85000636ACAF80830238DAAF80C30504626F0D7
:10C8600017FA26F05DFA002840F0968026F032FD97
:10C8700014F0B8F909232371002E00F0A180574865
:10C88000A660314626F038F9337943F0400333711E
:10C8900026F0C4FC206126F025FD494605463846B1
:10C8A00026F006FA089B2D1A6561002B40F0848063
:10C8B0007F21A27E9DF83330217602F065025B0075
:10C8C000BBF1000F42F0080223F07D0308BF4FF0D8
:10C8D000FF081343206884F81980A376214614F0DA
:10C8E000ABF9F3E4AA69002A7FF466AF6A68002A0C
:10C8F0007FF4E6AC1B067FF57EAD89E5384A394901
:10C90000394840F2773334F071FB84F31188BFF378
:10C910006F8F0323184602DF38E5AB690893002BBD
:10C920003FF41DAF042014F043F900287FF4E5AD77
:10C9300021E56B68002B3FF402AF1CE595F816A0CB
:10C9400005F12203CAF3801A07931EE6274A1388CB
:10C950000133138023E5AB7D9AF80020C3F38013E5
:10C9600063F38612534603F8022BD5F82220CAF847
:10C970000220EA8C9A806BE7194A1D491A484FF445
:10C98000816334F033FB002383F31188BFF36F8F8F
:10C990000323184602DF16E6114A1549124840F2F1
:10C9A0009E4334F023FB002383F31188BFF36F8F82
:10C9B0000323184602DF59E726F0BCFAC1B278E734
:10C9C000A560AB69E3600B48214626F095F8AA699B
:10C9D000137943F0400313715AE700BF15150500A2
:10C9E0001C030700FC020700A8ED0600D8C10020C8
:10C9F000B0010700C51405002DE9F041C468A28A02
:10CA00004FF6FF739A4282B000F0DF80054625F0B2
:10CA100091FA2B89628B208CA3831A4492B2104422
:10CA200094F82730E28380B2411C21845E064FF0E7
:10CA30000001618304F1220100F1A18003F03F00B5
:10CA40000B4694F82810009004F1290020F0D2FD44
:10CA50000646D4E90C31A28B02FB0333A26B1344CC
:10CA6000E26B8B4294BFD21852188A4228BF0A4602
:10CA7000E263616C226C94F867301144616494F84D
:10CA80007E2094F82C10C3F3020363F3061112F016
:10CA900004024FF0000384F82C10A363236478D0C1
:10CAA00026F06CF8082026F08FF8201D26F0ACF850
:10CAB0002389A17A40F25B6043EA014126F05AF9EA
:10CAC000304622F089FC2146594826F015F8A08905
:10CAD00026F09EFA94F8662094F86700C2F3C0032B
