:020000022000DC
:1070000080F00020391E0300AD980500251E030006
:10701000251E0300251E0300251E0300000000009E
:10702000000000000000000000000000551F0300E9
:10703000251E030000000000B91E0300251E0300EA
:10704000E9210300A17B0400E9210300E9210300F9
:10705000E9210300E9210300E9210300E9210300FC
:10706000E9210300E9210300E9210300E9210300EC
:10707000E9210300E9210300E9210300E9210300DC
:10708000E9210300E9210300E9210300E9210300CC
:10709000E9210300E9210300E9210300E9210300BC
:1070A000E9210300E9210300E9210300E9210300AC
:1070B000E9210300E9210300E9210300E92103009C
:1070C000E9210300E9210300E9210300E92103008C
:1070D000E9210300E9210300E9210300E92103007C
:1070E000E9210300E9210300E9210300E92103006C
:1070F000E9210300E9210300E9210300E92103005C
:107100004FEA4102B2F1E04324BFB3F5001CDCF1C9
:10711000FE5C0DD901F0004C4FEAC0024CEA507001
:10712000B2F1004F40EB830008BF20F00100704730
:1071300011F0804F21D113F13872BCBF01F0004033
:10714000704741F480114FEA5252C2F11802C2F165
:10715000200C10FA0CF320FA02F018BF40F00100E6
:107160004FEAC1234FEAD32303FA0CFC40EA0C0098
:1071700023FA02F34FEA4303CCE77FEA625307D1D5
:1071800050EA01331EBF4FF0FE4040F4400070470C
:1071900001F0004040F0FE4040F40000704700BFA6
:1071A00053B94AB9002908BF00281CBF4FF0FF316E
:1071B0004FF0FF3000F00CB8ADF1080C6DE904CED3
:1071C00000F022F8DDF804E0DDE9022304B07047A6
:1071D000704700BF10F8012B11F8013B012A28BFAE
:1071E0009A42F7D0D01A7047034611F8012B03F8E2
:1071F000012B002AF9D17047034613F8012B002A0E
:10720000FBD1181A013870472DE9F04786468C46A5
:107210000846089E154674461946002B40F0C28069
:107220008542B2FA82F245D94AB1C2F1200300FA8E
:1072300002FC2EFA03F3954043EA0C0C94404FEA0B
:10724000154EA8B2BCFBFEF8230C0EFB18CC08FBB5
:1072500000F943EA0C43994528D9EB1808F1FF37A8
:1072600004D2994502D9A8F102072B44A3EB0903E4
:10727000A4B2B3FBFEFC0EFB1C330CFB00F044EA93
:107280000344A04214D92C190CF1FF3304D2A042BC
:1072900002D9ACF102032C44241A43EA07401EB180
:1072A000D440002334607360BDE8F0874746DDE7D3
:1072B0006346F1E792BB431B01214FEA154EAFB283
:1072C000B3FBFEFC200C0EFB1C330CFB07F840EA62
:1072D0000343984562D9EB180CF1FF3004D298456E
:1072E00002D9ACF102002B44A3EB0803A4B2B3FB18
:1072F000FEFC0EFB1C330CFB07F744EA0344A742D9
:107300004ED92C190CF1FF3304D2A74202D9ACF1AB
:1073100002032C44E41B43EA0040C0E7C2F120030F
:1073200020FA03F1954090402EFA03F303434FEA0D
:10733000154EAFB2B1FBFEFC0EFB1C10190C0CFB82
:1073400007F841EA0041884504FA02F422D9691895
:107350000CF1FF3004D2884502D9ACF10200294477
:10736000A1EB08019BB2B1FBFEFC0EFB1C110CFB58
:1073700007F743EA01439F420ED9EB180CF1FF31A6
:1073800004D29F4202D9ACF102012B44DB1B41EA3B
:10739000004192E76046E3E76146F7E76046A3E70E
:1073A0006346B7E7834206D916B9002108467BE752
:1073B000C6E900E0F9E7B3FA83F78FB9834201D356
:1073C000724508D8BEEB020460EB030301209C4623
:1073D0001EB9002168E73846FAE7C6E9004CF8E72D
:1073E000C7F1200CBB4022FA0CF41C432EFA0CF11E
:1073F00020FA0CF3B84001434FEA14490EFA07F59E
:10740000B3FBF9F81FFA84FE09FB18300B0C08FBDC
:107410000EFA43EA00439A4502FA07F240D9E3180C
:1074200008F1FF3004D29A4502D9A8F102002344A2
:10743000A3EB0A0389B2B3FBF9F809FB183308FB85
:107440000EFE41EA03418E452CD9611808F1FF3345
:1074500004D28E4502D9A8F10203214443EA004038
:10746000A0FB0298A1EB0E014145CE46434602D354
:1074700006D14D4504D2B9EB020E68EB0403013886
:10748000002EA6D0B5EB0E0261EB030101FA0CFC55
:1074900022FA07F34CEA0303F940C6E9003198E702
:1074A0004046C5E74346D9E7F7B5002101AA40F6B3
:1074B00003400CF06DF8044600286CD1019CE36891
:1074C0001B789BB90DF0E0FABFF35B8FA54B1A68F0
:1074D000BFF35B8F02F00902BFF35B8F53E8001F1D
:1074E00043E800200028F9D1BFF35B8F20460BF062
:1074F00011F901AA002141F203000CF049F80446F9
:10750000002848D1019A984DD168D1F80100D1F8EE
:10751000051005F1780303C310460BF0FBF8214674
:1075200001AA41F201000CF033F8044698BB01981F
:10753000C3685A7885F870205A88A5F872201A799D
:1075400085F87120B3F80720A5F87420B3F805304A
:10755000A5F876300BF0DEF8214601AA41F20200D0
:107560000CF016F80446B0B9019FFA6805F18006E0
:10757000531C413218685968344603C40833934297
:107580002646F7D138460BF0C5F895F87C305F06F3
:1075900004D46FF01204204603B0F0BD01AA00210C
:1075A00042F203000BF0F4FF04460028F3D1019BE4
:1075B0006E4EDA68D2F80100D2F8051003C61846FC
:1075C0000BF0A8F8214601AA42F202000BF0E0FFFE
:1075D00004460028DFD1019CE368B3F8012091B292
:1075E00049B1D97839B1A5F80421DA78114606F104
:1075F00028003AF0ADFA20460BF08CF895F87C6044
:107600001F2316F02006A5F8203118D1022140F6DC
:107610006D400BF017FE0446002800F09A8002210E
:107620000C3032F0F9F901230370467021463246DE
:1076300040F66D400BF0ACFF04460028ABD195F846
:107640009C301E0712D501AA002142F21C000BF04B
:107650009FFF044600289ED10198C368D3F80120FB
:10766000D3F80530C5E938230BF054F895F8D83035
:107670005C060FD501AA002142F22A000BF088FF18
:107680000446002887D10198C3685B7885F82231C9
:107690000BF040F8082142F201000BF0D3FD044644
:1076A000002856D008210C3032F0B6F995F8D810E1
:1076B00011F0400F024640F2022308BF032388075F
:1076C0004CBF43F02C0043F00C0095F8D9308F06E6
:1076D00048BF40F0400013F0090F18BF40F40060AD
:1076E000CE0748BF40F01000002132F043FC214695
:1076F000002242F201000BF04BFF044600287FF409
:107700004AAF95F87C30B5F80411980624D4C9B96D
:1077100001AA41F205000BF03BFF044600287FF46C
:107720003AAFB5F80431019C4BB9E368B3F80120D6
:10773000A5F804219A880E4811463AF009FA204625
:107740000AF0E8FF082140F601400BF07BFD0446FB
:1077500080B96FF068041EE70029F3D16FF00404CC
:1077600019E700BF2401002050000020280100205C
:107770005801002008210C3032F04EF995F8D8302D
:10778000D907024653BF4FF000512DA1D1E90001A6
:10779000294832F0EFFB2146002240F601400BF071
:1077A000F7FE044600287FF4F6AE014601AA4FF624
:1077B00001400BF0EDFE044620BB01980AF0AAFF41
:1077C000214601AA4FF602400BF0E2FE0446C8B97A
:1077D0000198C368B3F80130A5F8C1300AF09AFFE8
:1077E00095F8C1305B070DD501AA21464FF603403D
:1077F0000BF0CEFE30B90198C3685B7885F8C030D5
:107800000AF088FF32F0C6FF044600287FF4C3AEBA
:107810000EF08AFC044600287FF4BDAEEB79002B05
:107820003FF4B9AE0821054832F002FB0BF0FAFD37
:10783000B1E600BFAFF300801088000224010020F1
:1078400090880002008000202DE9F843D0E9073835
:10785000856903EB08042F34A5420F46164619D854
:10786000DFF87080A3FB080117A3D3E90023FFF71B
:1078700097FC0346601BA0FB080123F07F4412A382
:10788000D3E90023FFF78CFC20F07F403C603060A0
:10789000BDE8F883DFF83C900BA3D3E90023A5FBF8
:1078A0000901FFF77DFC20F07F4409480A2106A367
:1078B000D3E90023E8FB0901FFF772FC20F07F40C9
:1078C0003C603060BDE8F8838D49FD1A0700000078
:1078D00000166BF100CA9A3B9FED0D7B124B134AC9
:1078E0001348144910B483ED007B9FED0B7B82EDB0
:1078F000007B9FED0B7B104B4FF0FF34002281ED9E
:10790000007B04601A605DF8044B15F079BF00BF7E
:10791000FFFFFFFFFF1F000000000000000000004D
:107920001F00000000000000E801002018370020C0
:10793000787E0020E0010020707E00200000000022
:10794000002800F05F812DE9F04FB54C94F86A20D3
:1079500012F001058DB040F0A78194F82500FF23B7
:1079600000F0030084F826301FF0E0FB94F86A0072
:10797000420727D494F8292094F8353004EB82028A
:1079800004EB8303D66AD3F8388086B1A448314625
:1079900017F0E2FE33785B0605D5062112F05EFD96
:1079A000002800F083819E48414617F0D5FE3378C9
:1079B00013F00E0F40F0B780236A93B10C200DB086
:1079C000BDE8F08F2A4604F16B01C0F3C0001FF040
:1079D00051FDFF2884F82600CCD028461FF0ECFB90
:1079E000C8E715F0DFF98146002800F0718115F035
:1079F000E5F98246002800F0688118F0F7FA05469C
:107A0000002800F06781D0F894004FF6FF732B86B2
:107A100005F11C0B002800F04F8105F1840105F1F0
:107A2000880212F027FDB5F882307E4A23F4EF6316
:107A300023F0070343F48C7343F00103A5F882306D
:107A40001346D2F80120C5F8AB21C5F8B12113F8CF
:107A5000012B9B88A5F8AF31A5F8B53195F8AA316F
:107A600002F0010262F3000362F3410385F8AA31D8
:107A700095F8433003F03F0363F07F0385F843300C
:107A800095F89A3023F0070385F89A3095F8483036
:107A900023F00F03002785F848304FF4C023C5F8C2
:107AA00098312846C5E91577C5F89470A5F89870FF
:107AB00085F84570EF86C5F83A70EF65A5F89E71B8
:107AC000A5F894711BF078F885F86071C5F8649199
:107AD00018F05AFD95F8A43160F3020385F8A4313B
:107AE00018F058FD95F8A43160F3C50385F8A4316A
:107AF00095F8903167F3410385F8903101212846CC
:107B000019F0A2F905F1E0001AF0FEFDC4E9189A97
:107B1000C4F820B0C5E905772F70ED6120F082FE32
:107B2000002840F0C58094F824300121C3F34203BB
:107B30000DF12B008DF82B3012F03AFE0246002892
:107B400062D098F80110304617F0C0FB3123364957
:107B5000A360364BB4F86870A0FB01010025C01883
:107B600041F107012CA3D3E90023C4E90555257091
:107B70006560E560FFF714FB206114F0FBF900F18C
:107B800009083FB9357805F00F05A5F10105B5FAEB
:107B900085F56D0994F82400236965F3000010F061
:107BA000010584F824004BD0214A0992002010607E
:107BB0000225204A204F04930BAE01930592032126
:107BC000CDE90200069443460090089607972A469E
:107BD0000B9514F06DF8314615F0A6F9A0B91749C8
:107BE00005914AF2D8330093CDE90300CDE90100B5
:107BF0000797089606944346012203210B9514F03B
:107C000023F843E017F0AEBA236A002B3FF4D6AE58
:107C100017F064FAD2E600BF8D49FD1A0700000094
:107C2000307F00209C91060000CA9A3B8C49FD1AC7
:107C3000247F002049F3030015C1030025EE030053
:107C40002B4A2C48049303F2471306940295912182
:107C50001360A7FB000301FB0731274B0793274B5A
:107C600005934FF6FF730992022703930BAE1EA3F1
:107C7000D3E900230B970896FFF792FA4346CDE924
:107C800000503A462846032114F012F8314615F008
:107C90004BF90028B8D194F86A3043F0010384F816
:107CA0006A3017F083FF60B1002088E6122086E674
:107CB00017F014FA032082E605F18C00C5F8940051
:107CC000ABE601201FF014FAEEE7484615F070F815
:107CD000072074E6504615F077F8484615F068F826
:107CE000F6E700BFAFF300808D49FD1A07000000E2
:107CF000247F0020002AE78415C1030049F3030014
:107D000070B590F824308AB0C3F342030D460446A0
:107D100001210DF1230016468DF8233012F048FDA5
:107D200071780246284617F0D1FA1F491F4AA0FB76
:107D30000131981841F1070119A3D3E90023FFF796
:107D40002FFA23699842054621D21B1A002201927C
:107D5000174A0293174BA21AA3FB0232022192097F
:107D600000230A4409AE099113490591CDE9033373
:107D70000321D2B206960093184613F0F9FF31465C
:107D800015F0D2F838B9256100200AB070BDFBD9D2
:107D9000C21A0023DBE70C200AB070BDAFF30080ED
:107DA0008D49FD1A0700000000CA9A3B8C49FD1A54
:107DB000307F00208988888815C1030000000000FA
:107DC00038B5194C9DF810E094F848C01CF0010536
:107DD00023D163F3420C400194F83230A1874FEA7B
:107DE000CE0E0EF0180E00F0200040EA0E0023F038
:107DF000380303430D4884F832309121A2FB00037D
:107E000084F848C001FB023105A3D3E90023FFF742
:107E1000C7F9C4E91000284638BD0C25284638BDEE
:107E20008D49FD1A0700000020370020002AE78452
:107E300010B504469DF8080022844FEA411CC0009A
:107E4000A17D00F018000CF0200C4CEA000C0C484E
:107E500021F038014CEA010CA3FB0002912184F8C7
:107E600016C001FB032104A3D3E90023FFF798F90F
:107E7000606210BDAFF300808D49FD1A070000005D
:107E8000002AE784000000002DE9F047044600F1D5
:107E9000350190F8480094F832305B4DDFF880816E
:107EA000C0F3400060F386138CB084F8323014F0D5
:107EB000B5F894F83220A38F5448E46102F07902B7
:107EC000002784F832209121A3FB0002C4E9057742
:107ED000277001FB03214AA3D3E90023FFF760F9D0
:107EE000651B626C4A4B6760AD08A3FB053502F168
:107EF0000903984298BF3A46C5F3470522644FF0FC
:107F000031028CBF19460146A26005EB4502E760CD
:107F1000216148F82210064614F02CF8236A00F17B
:107F200009074FEA450A002B4AD00DF12C09AA4453
:107F300008EB8A030993CDF820900694A38F334869
:107F40004FF00008A3FB0002CDF80C80912101FB4B
:107F50000321236904932F4B07932F4B05934FF075
:107F6000020A27A3D3E90023CDF82CA0FFF718F9C4
:107F7000104619464FF47A720023FFF711F90435C1
:107F8000EDB2CDE9016003213B462A46CDF80080E1
:107F9000404613F08DFE494614F0C6FF60B994F8D0
:107FA000483043F0010384F8483017F0ABFB08B3C6
:107FB00000200CB0BDE8F0870C200CB0BDE8F087C5
:107FC0000DF12C09CDE90A3321694B460AAA032099
:107FD00001F02AFA0028AAD10B99104808A3D3E986
:107FE0000023A1FB0001FFF7DBF80A9B20F07F478D
:107FF0001F449CE750461FF07BF8D9E7AFF30080A1
:108000008D49FD1A0700000020370020002AE78470
:10801000BD86F21A15C1030081F9030000CA9A3B1C
:10802000C07F0020000000002DE9F04F05468BB016
:108030008B46012002219946144622F07BFF002244
:1080400002218246012012F065FA3F494FF4DC72AA
:10805000284612F0EFF9461D3C4B0093F6B201950D
:108060004B4632460121002013F0DCFE10F0FD0FDC
:108070000ED0374A3749384840F68F0330F009FCB4
:10808000002383F31188BFF36F8F0323184602DFA9
:10809000324BA4FB0348204629A3D3E900234146E1
:1080A000FFF77EF82E4B20F07F47A7FB0331072216
:1080B000E01A02FB071168EB01014FF47A7200230A
:1080C000FFF76EF8CDE90170CDF800B00895069580
:1080D000296995F9434023480491234931EA240151
:1080E00028BF01460591214C07944FF6FE7103917C
:1080F0004B4632460121002013F0A6FD10F0FD0F83
:108100000ED0134A1349144840F6A40330F0C1FBC3
:10811000002383F31188BFF36F8F0323184602DF18
:10812000BAF1000F02D10BB0BDE8F08F012202219D
:1081300010460BB0BDE8F04F12F0ECB9AFF3008081
:108140008D49FD1A07000000703700208DFF0300E5
:1081500010690600D46906003C63060000CA9A3B19
:108160008D49FD1A19620400CD6304002DFF030040
:108170002DE9F0418468228E4FF6FF739A428CB04D
:1081800045D0054620461BF009F82B7D012B00F059
:108190002281022B00F01581002B00F0F48094F86E
:1081A0006061002E40F010812B8A678F94F9432084
:1081B000CDE90A6673B3002AC0F25A810023A4F8FD
:1081C0009A31AA7C238FFD1802F003030135012B9D
:1081D000ADB23BD0B4F89E31002B00F005819D423A
:1081E00080F059815B1B9BB20022062BA4F89E31C4
:1081F000628740F2F68094F943309342C0F2508196
:10820000002326E09DF82710204618F0E1FA0CB074
:10821000BDE8F081002AB8BF84F88561238FAA7C6D
:10822000FD1802F003030135012BADB20ED0B4F8F6
:108230009A31002BCED0AB4240F23C815B1BA4F8BC
:108240009A31B4F89E31002BC9D102E00023A4F882
:108250009E3194F8482063F3820284F8482029462E
:108260000DF1270220461AF0E3FC7430CAD0B4F8AE
:1082700098312BB1AB4240F2EC805B1BA4F89831F3
:10828000B4F894312BB1AB4240F2DA805B1BA4F816
:108290009431658F16B9AF4200F0C9800135ADB297
:1082A00094F8DD3013F0010731D1DDE90A130A46F5
:1082B000002B40F0CC80002900F0BB801F46184600
:1082C000228EE4690694CDE9035605329A4D029058
:1082D000CDE90017D2B201210020059513F048FD29
:1082E00010F0FD0F93D014F049FE84428FD0934AD2
:1082F000934994484FF4AE6330F0CBFA002383F3F4
:108300001188BFF36F8F0323184602DF7FE794F9CC
:1083100043206FF30003002A84F8DD307FDB94F8FC
:108320008200C0F3C00100F0070020F093F8B4F819
:108330007A20B4F878301344628D03F23F1313446B
:108340000344814A81480721E3FB0021104678A3BA
:10835000D3E90023FEF724FFDDE90A1320F07F4272
:1083600020692261904235BF171A801A0020002729
:108370000A46002BA4D157EA010CA1D1002858D0FD
:1083800019461F469CE794F89A3003F01803182BFF
:108390007FF405AFA18EB4F896218B1D9A42C4BF1D
:1083A000931F5B1AB4F89211CCBF9BB2134699424B
:1083B00000F09C80A4F89231A4F89431A4F898219C
:1083C000EDE63D2684F86061314620460CB0BDE8FC
:1083D000F04118F0FDB90023A4F89831A4F89431C5
:1083E000DDE60126334634E7628E052A97BF013267
:1083F00040F2E2434FF4FA7392B203FB02F2B4F894
:108400009C3142F2107101FB0323013BB3FBF2F3F9
:108410009BB2A4F89E31002B7FF4E1AE19E794F8EB
:108420008300012100F0070020F016F87FE73546B1
:1084300036E7002D43D00027114638463B463FE73C
:108440000023A4F8943120461AF094FC21E7384622
:1084500036E714F0FBFC0146A0B30023A4F89831E2
:10846000238EC3801B230371006814F0BFFC07E751
:1084700094F885316BB3013B84F8853104F1E00851
:1084800040461AF083F9B8B340461AF07FF9B8B302
:108490000023638792E60821204618F099F9B6E692
:1084A000A7B9D4F888315A0813F0010336D1C4F8BB
:1084B0008821A5E63E21204618F08AF9A7E6002E7D
:1084C000B9D1A4E60123A4F89831D9E613460126D0
:1084D000BFE60AAA0BA92846FFF7B6F9DDE90A2389
:1084E0001343CBD0237884F88531C7E7B4F89811CB
:1084F00000297FF454AE5FE7FF2018F025F9C3E7A9
:108500000246D4E9210111F0CDFF0028C0D194F832
:1085100048301B0744BFA38E63874FE642F00042FA
:108520001E46C4F888213B4693E600BFAFF30080A7
:108530008D49FD1A07000000E9FE030010690600DE
:10854000206A06003C6306008C49FD1A00CA9A3B6B
:108550002DE9F04F87B0CDE90432BDF8442003780F
:108560000292BDF84820BDF840A0BDF84C90878F1E
:10857000019104460392002B00F0FC80013FBFB242
:10858000A368D4F81CB1A7EB090292B2002B0092A9
:108590000ADAE168626823F0004391422CBF8B4401
:1085A0009344A360ABEB030B94F88200C0F3C001CB
:1085B00000F007001FF04EFF658E052D40F2E180B0
:1085C000009BBAF1050F15FB03F5ADB240F2E2488E
:1085D00040F2E280B4F87A20B4F87830134403F221
:1085E000D51303447C4A7D480721E3FB00214FF06B
:1085F0009613A36296231046A38575A3D3E900239F
:10860000FEF7CEFD564620F07F4040F2E24308FBE5
:1086100005F103FB06F6B1FBF6F81FFA88F52061B9
:1086200006FB05F08142A84680F09680401A6B490F
:1086300067A3D3E90023A0FB0101FEF7B1FD20F001
:108640007F408344E38EB4F824211344994494F882
:108650004330A9EB0709C844DB09A4F8368000F0D1
:10866000A780E26C0099636D02FB1133636520F013
:108670002BF9074694F88401C0F3420020F026F954
:10868000074406FB07F7564B07F5742707F23F2709
:10869000A3FB0737BF0C636DE76405FB07F07208A7
:1086A0000344963A934228BF1346C4E91423059B1A
:1086B0004A4D40F2E24808FB03F3E3650023A0FBC8
:1086C0000501C4F88C3142A3D3E90023FEF768FD0D
:1086D000049BABEB000B4348A0FB0330800A08FB74
:1086E00000F0A0FB05013AA3D3E90023FEF758FDF3
:1086F000F71B20F07F45029BA386039BA4F89C31C7
:1087000031462046A4F832A01AF0CEFA364BA18E9C
:108710003344881DB3FBF6F39AB29042A4F8962135
:1087200004D2C1F57F41FA310A4492B2019BA4F808
:10873000922113B10023A4F89E315B463A462946A4
:108740002046FFF771FC94F8903143F0010384F860
:10875000903107B0BDE8F08F091A20481CA3D3E977
:108760000023A1FB0001FEF71BFD20F07F40ABEBD7
:10877000000B67E7C38E1F44B0F824311F44BFB21B
:10878000FEE6009B013515FB03F5BAF1050FADB20E
:108790004FF4FA783FF61EAF4FF096130AF1010638
:1087A000A3629623A385B6B20A204FF4FA732EE78C
:1087B000049B0A48A3FB000105A3D3E90023FEF7AD
:1087C000EFFC20F07F453746013594E7AFF300809A
:1087D0008D49FD1A070000008C49FD1A00CA9A3B1A
:1087E00083DE1B435917B7D17FC3C90100000000C6
:1087F0002DE9F04F04460B68077F1668D3F800A0F8
:10880000638CD0F81E0095B015464A7CADF84C300C
:10881000FF2AC7F3801388460D9212908DF83F30DF
:1088200076D199461A4612AB93E803000DF1400B3E
:108830001090ADF84410F8090AF1710127680A9107
:108840005B460C900B9717F0ABFE0A99002847D1B6
:1088500096F8AA310C9A0A9069F3410362F3000377
:1088600086F8AA311098BBF80430C6F8B101A6F812
:10887000B531DAF87130C6F8AB318B88A6F8AF3174
:10888000E38D94F83010A9722B81D4F82A306B60F4
:10889000D4F83A30C5F8223005F1220094F83E3081
:1088A0000371052111F084FF95F8273000F03F0097
:1088B00060F3050385F8273094F83F30C3F30401D3
:1088C00085F82810A18EE982012803F01F0389B2E0
:1088D00006D91B3303F01F030B2B01D80A9A59BB8F
:1088E0000022CAF8142095F82C300B9862F300038C
:1088F00085F82C30E56801262146267114F06AFAC5
:1089000028682E71294614F071FA15B0BDE8F08F71
:108910000DF1400B10460DF13F015A461EF058F97B
:108920009DF83F90277F09F102095FFA89F98DF8D8
:108930003F9009F001027EE7D8F800305A60E38EDC
:108940002B83EB8A40F2E24909FB03F71146638E61
:108950000A9330461AF0BCF994F83F3096F8842117
:108960005B0963F3430286F884211FF0ADFF0C908E
:1089700096F88401C0F342001FF0A8FF0C9BC04A88
:10898000034407FB03F303F5742303F23F23A2FB25
:1089900003239B0C2B637B08963B6B6394F831306D
:1089A00009FB03F36B64238FA6F89C3139463046EC
:1089B0001AF07AF9B34BB44AC6F8A0213B44B3FB92
:1089C000F7F39AB2A6F89621298B881D824204DD1E
:1089D000C1F57F41FA310A4492B2A6F892216B6840
:1089E000C6F88831234613F81C2FC2F34019DA0762
:1089F00000F103814FF48073A3839AF826001EF0E0
:108A000051FE04F12B03002800F0F380626AC4F8E1
:108A10002B20228D9A800D9BFF2B00F02681BDF824
:108A20004C301298A4F82930C4F82500BBF8043063
:108A3000A4F8233010989DF83F30C4F81F00A377A6
:108A4000EB8A63862B8BA386B6F89C31E38696F877
:108A50008431C3F3420384F83830304617F0D2FA39
:108A6000A882E08021460B98D8F8044014F0B2F9AF
:108A7000AB8AE3801C23D4F800B02371B9F1000F56
:108A800040F0D28084F81C902146584614F0AEF98C
:108A900095F86700B5F85C90B5F85E40012100F0EC
:108AA00007001FF0D9FC4C4404F2D514DFF8E49120
:108AB0000444834675484FF096130721C5E90333F4
:108AC000E4FB090131230024B36074606AA3D3E995
:108AD0000023F460FEF764FB20F07F4030612D6BD3
:108AE0000A9A7D1BD8F80C7040F2E24303FB027730
:108AF00002212246012011F00DFD504616F0E8FD3E
:108B000007F2B3470246A7EB0B07A7FB090117467D
:108B100059A3D3E90023FEF743FBCDF804A0D8F80E
:108B200008305B49009120F07F49BA1C3A3BD2B231
:108B30004B440121204613F075F9012800F0818093
:108B40009AF82430DB0767D4304617F05BFA514BB4
:108B5000A5FB035A044648A3D3E9002328465146FF
:108B6000FEF71EFBD8F808304B4A0792A3F13A08EB
:108B70004A4B069620F07F47A7FB0331E81A484B83
:108B800005934FF4F573089333694FF0000BCDE96B
:108B900003B34FF0070303FB07116AEB01014FF426
:108BA0007A720023FEF7FCFA0534E4B2CDE90170D5
:108BB000CDF80090434622460121584613F044F870
:108BC00010F0FD0F0DD0374A3749384840F2EB130B
:108BD0002FF05FFE8BF31188BFF36F8F03231846CE
:108BE00002DF01220221104611F094FC15B0BDE80D
:108BF000F08FC4F82B0098800DE72A4A2C492B48A7
:108C0000FD232FF046FE002383F31188BFF36F8FFF
:108C10000323184602DFEDE60023012200931846E5
:108C2000114613F0BDF88FE795F8273043F0400365
:108C300085F82730281D1DF0C3FD4FF00109288558
:108C400020E714F09BF982453FF47AAF154A1949A1
:108C5000164840F292232FF01CFE84F31188BFF3D4
:108C60006F8F0323184602DF6AE70022C4F825202D
:108C7000A4F82920DAE600BF8D49FD1A070000009C
:108C800083DE1B437FC3C901404B4C008C49FD1A56
:108C9000D961040000CA9A3BA56104008D49FD1A00
:108CA00019620400186F0600D46906003C630600D0
:108CB00058660600746F06002DE9F04F8DB09B4694
:108CC000BDF860300693CDE90401BDF868309DF829
:108CD0005C90BDF864A003930020164616F074FF64
:108CE000002800F06C8109F001070446384613F0B3
:108CF00085F90290002F71D1169B02995A46384689
:108D000017F04EFC002840F06B81236A089304F1B1
:108D10001C020792002B68D0D4F82080D8F80050AD
:108D20000BF0010A98F86600C0F3C00100F00700DC
:108D30001FF090FBB8F85E30B8F85C201A44B8F821
:108D40000E3000F23F1003441344CF48CF4A0721AE
:108D5000E3FB00211046CAA3D3E90023FEF720FA63
:108D600020F07F40286130461EF002FA94F833303C
:108D70006FF3410384F83330FF2384F83430002E3E
:108D800000F02181A9F10203012B40F22D8194F81A
:108D90004810079869F3420184F8481094F833109A
:108DA0006AF30001DDE9042384F833101699096899
:108DB0006162169989882185039921860096002190
:108DC000FFF736F860641FF02DFD002840F0178192
:108DD0002046FFF759F80DB0BDE8F08F062111F0DD
:108DE0003DFB002888D11220F5E713F0DBFF099046
:108DF000002800F07A8117F0F9F80546002800F005
:108E00007181203011F0E8FC05F11C08002840F0C9
:108E10002381032105F124001FF0CEF9069BD5F82C
:108E200094006B864FF6FF73A5F834A02B860028BC
:108E300000F0218105F1880205F1840111F01AFB8F
:108E4000B5F8823023F4EF6323F0070343F48C7307
:108E500043F00103A5F8823095F89A304FF0000AEC
:108E600023F0070385F89A300121C5F894A0A5F8EE
:108E700098A0284617F0E8FFA5F836A0C5F83AA054
:108E800005F13E001DF046FC95F8433060F3050304
:108E9000012185F843300DF12F001FF08DF9039B60
:108EA0009DF82F20A5F89C31794B85F845A0A3FBB0
:108EB0000213DB0803EB4303A2EB830295F8433074
:108EC000A98EA5F89EA103F03F0385F8433095F8DD
:108ED0004830A5F894A1053223F0070385F8442013
:108EE000069A85F8483040F2E24A6A4B0AFB02FAD9
:108EF0004FF4C0225344C5F89821881DB3FBFAF300
:108F00009AB28242A5F8962102DD063A521A92B22E
:108F1000A5F89221284619F04FFE5146284619F02F
:108F2000C3FE0021099B85F86011C5F8643117F074
:108F30002BFB95F8A43160F3020385F8A43117F0F8
:108F400029FB95F8A43160F3C50385F8A43195F8A1
:108F50009031002161F3410385F8903105F1E00083
:108F600019F0D2FB95F8AA31169A0BF0010A6AF3B0
:108F7000410385F8AA314FF09613C5E90A3331232E
:108F8000AB600021169B6960E9601B68C5F8B131D0
:108F900095F8AA319288A5F8B52169F30003029AE1
:108FA00085F8AA311368C5F8AB319388A5F8AF31BD
:108FB000C4F82080C5E905112970ED61B2E60C20E6
:108FC0000DB0BDE8F08F1EF02DFD00283FF4DAAEA5
:108FD0001699584632461EF04DFA84F83400D1E610
:108FE0000B200DB0BDE8F08F00201EF0E5F894F8DE
:108FF000333043F00203B94684F83330C7E6256ABC
:10900000AB6F73B1244A2549254840F229432FF01C
:1090100040FC002383F31188BFF36F8F03231846AE
:1090200002DF05F16C0105F1680011F027FA064630
:10903000002839D02F68AE67D7F86451002D42D090
:10904000284613F0B5FE384616F0D6FF002303205D
:1090500023620DB0BDE8F08F0F4A12491048C123BA
:109060002FF017FC089B83F31188BFF36F8F032346
:10907000184602DFCDE605F18C00C5F89400D9E66C
:109080008D49FD1A0700000000CA9A3B8C49FD1A61
:10909000ABAAAAAA7FC3C901A46F0600EC670600A9
:1090A0003C630600F0630600114A1249124840F280
:1090B0002B432FF0EEFB86F31188BFF36F8F032352
:1090C000184602DFB6E70A4A0A490B4840F2324323
:1090D0002FF0DFFB85F31188BFF36F8F0323184652
:1090E00002DFADE7099813F063FE072073E600BFC7
:1090F000A46F0600606906003C63060000000000E3
:109100002DE9F04F04468DB090F81C80238D406A05
:10911000ADF82C30E307C8F3C0170E461546C8F368
:1091200040180A9000F110810023A383B37C707C67
:1091300013F001031CBFD4F81E30C4F82B3004F127
:109140002B0214BF638CC4F82B30FF28938004F1EA
:10915000250904F11F0200F0EA8004F11E011DF050
:1091600037FDA37FBDF82C200A98C4F825000233F0
:10917000A377A9F804203368D3F80090EB8A6386BC
:109180002B8BA386B9F83030E3861FF09BFB84F865
:1091900038002F68384616F035FF0021A882E0809D
:1091A000384619F095FDD6F804A02068214613F042
:1091B00011FEAB8AAAF806301C23DAF800408AF8C0
:1091C0000430B8F1000F40F0CF808AF81C8051467F
:1091D000204613F00BFEBB687A6895F86600B5F878
:1091E0001680F5686A4C934238BF1346C0F3C0013D
:1091F00003F1090A00F0070040F2E24303FB08F81C
:109200001FF028F9002202212D1A012011F082F905
:10921000484616F0AFFCA5FB04455BA3D3E9002349
:10922000834629462046FDF7BBFFCDF80490B3687E
:109230005849009120F07F490BF10402A3EB0A0387
:10924000D2B24B440121002012F0ECFD10F0FD0FD2
:109250000ED0514A5149524840F249332FF019FB80
:10926000002383F31188BFF36F8F0323184602DFB7
:109270004FF0000B5B4603220121CDF800B05846A9
:1092800012F08EFD384616F0BDFEB3680646404823
:10929000A3EB0A0AA8FB00013BA3D3E90023FDF7D7
:1092A0007FFF19463F4B08933F4B069340F27933BB
:1092B000079709933B698046CDE904B31046002324
:1092C0004FF47A72FDF76CFF384B0722A9FB03318C
:1092D000CDE9028002FB0911E01A65EB01014FF4B0
:1092E0007A720023FDF75CFF0536F6B2CDE90090F7
:1092F000534632460121584612F0C2FC10F0FD0FD1
:109300000DD0254A2549264840F27A332FF0C1FA7C
:109310008BF31188BFF36F8F0323184602DF0122FE
:10932000022110460DB0BDE8F04F11F0F3B8002354
:10933000BDF82C100A98C4F82530A9F80430A77796
:10934000C4F81F00918016E7134A194914484FF4D6
:1093500031732FF09EFA002383F31188BFF36F8FD0
:109360000323184602DFDFE695F8273043F0400379
:1093700085F82730281D1DF023FA4FF001082885B5
:1093800023E700BFAFF300808D49FD1A07000000FE
:1093900000CA9A3B95630400A46F0600D4690600D6
:1093A0003C63060099630400CD6304008D49FD1AF7
:1093B00058660600000000000538C3B2052B0CD823
:1093C00070B580B20D4616F025FE044618B190F92E
:1093D0004330002B03DA002070BD0020704790F866
:1093E00082000F4EC0F3C00100F007001FF032F8FA
:1093F0000C4A00F2B5500721E0FB0621104606A3F7
:10940000D3E90023FDF7CCFE20F07F402860204602
:1094100070BD00BFAFF300808D49FD1A070000004A
:1094200000CA9A3B8C49FD1A2DE9F04F93B0FF27F3
:109430000B930B1D0A930023CDE90E330546164608
:109440008DF837709B463C4698469A46994610AB35
:109450000693594B0593594B03930FAB01930EABF6
:1094600000200093022310930490029033460DF1E4
:109470003702294612F01AFD022812D0109BB3B908
:10948000FF2C25D03368434522D0002F42D0013F26
:10949000FF24FFB28DF83740D9E72946002012F0AB
:1094A00051FD109B022BF8D0109B002BE8D0444AB2
:1094B000444945484FF4EE732FF0EBF9002383F352
:1094C0001188BFF36F8F0323184602DFFF2CD9D119
:1094D0009DF83700FF282CD011A9FFF76DFF002859
:1094E000B5D0FF2CDDF83880119B0AD049464046A4
:1094F000099312F041FD0A9B03EB0A029042099B7B
:1095000019D8C1469DF83740D6F80080DDF83CB048
:109510009A469CE72D492A4A2B484FF4F2732FF0C4
:10952000B8F987F31188BFF36F8F0323184602DF62
:10953000ADE7FF2C34D026480721AAFB000301FB2E
:109540000A311BA3D3E90023FDF72AFE044600B12C
:109550003E34204AABF57423A3F51073934216D81A
:109560001B480721A9FB000301FB093110A3D3E924
:109570000023FDF715FE184BA3FB0B2304EB9344CC
:109580000B9B044400201C6013B0BDE8F08F0BF16E
:10959000E87B0BF5D43B09F1FF390BF5A57BDFE741
:1095A0006FF0090013B0BDE8F08F00BFAFF300808B
:1095B00000CA9A3B00000000B5660400B9660400CA
:1095C000F06F0600347006003C6306003C70060035
:1095D0008D49FD1ABFBDF07F83DE1B4300000000F4
:1095E0002DE9F043C668476873683D491A68D0F8AA
:1095F0000090A7F57423A3F510738B4283B08046C7
:1096000007D907F1E87707F5D43709F1FF3907F5EE
:10961000A57773681169DD8ACDF8049006F110030F
:1096200001AA0220FFF700FF00284ED10199A1EB0B
:1096300009031B0237D40846494612F09DFC034635
:1096400028480721A3FB000201FB032122A3D3E941
:109650000023FDF7A5FD34690444002C346109DBC7
:1096600040F2E24305FB03F3A3422FD2E41AA342E4
:10967000FCD33461D8F800301A48A3EB0903A3FBEC
:109680000002072101FB032113A3D3E90023FDF707
:1096900087FD154BA3FB0737A0EB974020443061B3
:1096A00003B0BDE8F083484612F066FC03460D485F
:1096B0000721A3FB000201FB032107A3D3E9002339
:1096C000FDF76EFD3469241AC7E73469002CD1D147
:1096D00003B0BDE8F08300BF00CA9A3B0000000061
:1096E000BFBDF07F8D49FD1A83DE1B4300000000E3
:1096F00010B5334C3349002304F1FF3C14F83320F8
:10970000072A02EB820E05D811F83E206FF34512AE
:1097100001F83E201CF833206FF300020CF83320D0
:109720000133082BEAD1284A284C002313700A7809
:1097300063F300020A7091F8282063F3000281F8B5
:10974000282091F8502063F3000281F8502091F80E
:10975000782063F3000281F8782091F8A02063F369
:10976000000281F8A02091F8C82063F3000281F87C
:10977000C82091F8F02063F3000281F8F02091F8FE
:10978000182163F3000281F81821114A9FED0A7B2A
:109790001370104B83ED007B0F4B236028B1BDE8A5
:1097A00010400E490E4838F0B2BABDE810400C48DF
:1097B00038F0BBBAAFF30080FFFFFFFFFFFFFFFFF2
:1097C000918C0020508B00209FA80020608A0020F0
:1097D0009EA80020F0410020A0BB0D00AD73040046
:1097E000C0410020000000002DE9F04F8FB00DF1C6
:1097F00037010446DFF8E0A0DFF8E0800DF1360025
:1098000013F06AFB9DF836309DF837B00B9312F0D9
:10981000B1FBDAF80060A6FB085629A3D3E90023C0
:109820000027814631462846FDF7BAFCCDE9077787
:10983000069420F07F44DAF80400234B0593A0FB44
:1098400008011FA3D3E90023FDF7AAFC1F4B20F05A
:109850007F40A4FB0331072202FB0411CDE9037012
:10986000E81A66EB01014FF47A720023FDF798FCC9
:109870000097CDE901404B460B985A46032112F060
:10988000E3F910F0FD0404D06FF08B000FB0BDE8D9
:10989000F08F0F480F4A00232AF0FEFD20B9DAF8B6
:1098A0000C000FB0BDE8F08F9DF837209DF8360012
:1098B00000942346032112F073FA6FF07300E5E77A
:1098C0008D49FD1A07000000297B04008D49FD1A0F
:1098D000048D0020447B0B001C8D002000CA9A3BA5
:1098E00038B50F4D044612F045FBA96812F044FB51
:1098F000696803460B48B3FBF4F4A1FB00011C4468
:1099000005A3D3E90023FDF74BFC20F07F40844200
:1099100094BF0020012038BD8D49FD1A07000000CA
:109920001C8D002000CA9A3BF0B5C468636883B000
:109930000546002B64D120F035FE082020F058FEAB
:109940000021084620F046FE00222521082020F0B4
:1099500083FE474B019301A820F06AFE454940F27F
:109960005B6020F021FF237AC3F3420262F3061307
:10997000204623721FF0C6F91EF054F858BB637AD4
:109980009B071FD127682E6838461EF0FFFC06444F
:109990006A6806F10901012021F060F821F04EF912
:1099A000204615F0A1FE811C3246C9B238461EF091
:1099B000FBFC054678BB20461EF082FC88B90020DF
:1099C00003B0F0BD01201DF087FB4178821C0078B8
:1099D00020F0E4FFD6E7607A10F0030018BF012002
:1099E000F1E7254A2549264840F229432EF051FF48
:1099F00085F31188BFF36F8F0323184602DFDEE77C
:109A000093F82C309A0796D01E48214620F088FD06
:109A100020F074FED3E7184A1B49194840F211435D
:109A20002EF037FF194B0721A5FB030301FB05317E
:109A30000DA3D3E90023FDF7B3FB154902461548F2
:109A40002EF027FF002585F31188BFF36F8F0323C6
:109A5000184602DF1048214620F062FD20F04EFE3D
:109A60006FF08B00ACE700BF00CA9A3B000000001B
:109A7000D6BE898E55555500107406001065060037
:109A80003C63060039850400146406008D49FD1A04
:109A9000C074060094740600D98804000000000019
:109AA0002DE9F041C46894F91630002B8CB0C0F257
:109AB0000581636805460E46002B40F0F480A37DC7
:109AC0006FF30003A37520F06DFD082020F090FDDA
:109AD0000021084620F07EFD00222521082020F0EC
:109AE000BBFD012013F0FEFA0746002800F0CC80F1
:109AF00007F11C0020F0DAFD8B4B0B930BA820F034
:109B000097FD8A4940F25B6020F04EFEA07DC0F3D5
:109B1000410025301EF05AFC8548214620F000FD0A
:109B2000A37D9B0603D46368002B00F0AA809620D7
:109B300020F088FF00231A461946184620F09AFEA6
:109B40001DF070FF002838D1A37D13F0180F5BD1F2
:109B5000D4F800802F6840461EF018FC07446A685D
:109B600007F10901002020F079FF21F067F820F0CB
:109B7000F1FE204616F00CF8011DC9B240463A46E7
:109B80001EF012FC8046002840F09F8016B9636AE0
:109B9000002B52D1636843B1664B012202210020A1
:109BA0009D6010F0EDFC002837D120461EF088FBA8
:109BB000D0B900200CB0BDE8F081A07DC0F3C0009A
:109BC0001DF08AFA07460DF12B001DF093FD797800
:109BD0008046BA1C387820F0E1FE9DF82B00002268
:109BE000414621F0F9F8B3E7534A5449544840F24A
:109BF0000B232EF04EFE002383F31188BFF36F8FEB
:109C00000323184602DFD4E701201DF065FA4178EE
:109C1000821C007820F0C2FE9AE7474A494948482A
:109C200040F206232EF035FE002383F31188BFF3A4
:109C30006F8F0323184602DFB7E7434A0792434A70
:109C4000059240F2F31200930892CDE90366CDE944
:109C5000016606943B460322314611F0F5FF10F0F1
:109C6000FD0F97D0344A3A4935484FF4FA732EF035
:109C700010FE86F31188BFF36F8F0323184602DFAF
:109C800088E720F057FE5BE72B4A32492C484FF417
:109C9000C5732EF0FEFD87F31188BFF36F8F03238A
:109CA000184602DF24E7636893F82C30D90705D4FF
:109CB000636893F82C309A077FF501AF2648214658
:109CC00020F02EFC20F01AFD73E71B4A23491C48A4
:109CD00040F2E5132EF0DDFD214B0721A8FB030325
:109CE00001FB08310EA3D3E90023FDF759FA1D4902
:109CF00002461D482EF0CDFD002585F31188BFF3E7
:109D00006F8F0323184602DF1848214620F008FC15
:109D100020F0F4FC6FF08B004CE700BFAFF3008045
:109D200000CA9A3B00000000D6BE898E55555500EA
:109D3000119E0200B80A0020CC74060010650600CF
:109D40003C63060028640600759404001D95040019
:109D5000386706005C740600398504001464060048
:109D60008D49FD1A18750600947406004D93040081
:109D700038B504461FF098FAA37DA27DC3F34103D2
:109D8000013303F00303032B08BF002363F34202F4
:109D900014BF03F125002520A2751EF017FB636890
:109DA0000BB123694BB912F0E5F8C11C002020F07B
:109DB000C9FEBDE8384020F041BF20F0F1FE054665
:109DC00012F0D8F8C11C002020F0BCFE20F036FFB5
:109DD00020F0E6FE294612F0CFF80B4A0346072191
:109DE000A0FB020201FB032105A3D3E90023FDF739
:109DF000D7F923691B1A236138BD00BFAFF3008078
:109E000000CA9A3B000000008D49FD1A00000000C6
:109E10002DE9F0478AB0044620F0B0FCC0B250B93A
:109E20001EF02EFBC648214620F07AFB0AB0BDE8A2
:109E3000F04720F063BC20F0C3FC054620F0E2FDB3
:109E4000074620F0E9FD814621F020F8064620F083
:109E5000FFFF824620F098FDEDB2804620F078FDAD
:109E60001EF00EFB002DDDD0012013F03BF905465E
:109E7000002800F0528117F0FF07F6B240F0E880AA
:109E8000002E40F0DF804FF0FF093A464B46314646
:109E900020461FF03FFC0028C4D02A7F61680023C1
:109EA0008DF823305FFA88F702F00F03002900F0E5
:109EB000F180616891F82C10880700F1EB80072B86
:109EC000B0D0A17D090740F14781002B40F0C98047
:109ED0006B7F063B1F2BA5D8042013F003F9002845
:109EE000A0D020F0B3FE636A074643B9238C40F24A
:109EF000712202FB03F3B0FBF3F203FB12072368AA
:109F00001A69904B0721A2FB030301FB02318AA3CC
:109F1000D3E90023FDF744F96FF4427C00EB0C0316
:109F20001F3B62EB0202BB4272F10002FFF47AAF08
:109F300020F000FD484663681DF0C2FBE37D9907F1
:109F4000804640F1E481002800F0E181824601274B
:109F500020F044FCCDE9027A09AB049305F11E031D
:109F600001932B7FC3F38013014607460093002221
:109F7000012320461FF0E8FB384620F09DFB20F02F
:109F8000E9FB002840F0C9816F48214620F0C8FA5B
:109F9000626892F82C3043F0010382F82C30A37DE4
:109FA00043F08003A37513F0B7F8172202714FF640
:109FB000FF72C28095F81CC082463B46CCF3401C21
:109FC00000F11C0207F1200E1D6858689968DF68CF
:109FD000D7601033734515605060916002F1100234
:109FE000F2D11B6813609AF81C30CAF808406CF371
:109FF00045138AF81C3020F0D3FD002ECAF810005B
:10A00000099BCAF8143008BF4FF0FF098AF819906D
:10A01000E37D13F0020303D0B8F1000318BF01235E
:10A020009AF81A2063F300028AF81A2013F074F8E1
:10A03000CAF80C00DAF8000051460AB0BDE8F04753
:10A0400013F094B85FFA8AF01DF0D0FB81461CE74C
:10A05000A07D5FFA89F1C0F3C0001DF055FB814679
:10A0600013E7012B40F088806A7F0C2A7FF4DAAE78
:10A070002A7FCDF80090194600230193D20905F1FB
:10A08000240320461FF094FA00287FF425AF2B7F8D
:10A0900003F00F03002B6FD16B7F052B7FF6C2AE51
:10A0A000252B3FF6BFAEA27D02F02102202A09D166
:10A0B0006268002A00F0C080052B7FF6B3AE252B26
:10A0C0003FF6B0AE63682BB12B7F03F00F03072B75
:10A0D0007FF4A8AE03209DF8238013F003F8054613
:10A0E00000283FF49FAE13F017F84FF6FF73EB8094
:10A0F00005232B71002F3BD17F20AB7E2876002ECD
:10A1000008BF4FF0FF0968F34103286885F81990EC
:10A11000AB76294613F02AF884E60C4A0C490D4820
:10A1200040F2C7232EF0B5FB85F31188BFF36F8F84
:10A130000323184602DF9EE600CA9A3B0000000097
:10A14000659304008D49FD1A65950400CC740600E2
:10A150005C7406003C630600B9F1FF0F8DF8249093
:10A16000C2F380184BD0227E91453FF4AEAE91E70A
:10A1700020F0FAFBC0B2C0E7062B8DD04521D940B4
:10A1800011F0010139D1012B10D16B7F0C2B7FF421
:10A1900049AE2A7FCDF800900DF123030193D20937
:10A1A00005F1240320461FF003FA08BB2B7F03F0C0
:10A1B0000F03042B7FF436AE6B7F063B1F2B3FF65D
:10A1C00031AEA37DDB077FF52DAE20F007FB2B7FA3
:10A1D0000278C3F38013B3EBD21F7FF423AE0830B1
:10A1E000062205F11E0138F09DF900287FF41AAE11
:10A1F0006B7F002B7FF466AF14E66B7F5CE705F1A5
:10A200001E0A09AA514640461DF0AEFB00283FF445
:10A210003EAFE37D03F0010343457FF438AF514681
:10A22000062204F1080038F07DF900287FF42FAFF2
:10A230002B7F03F00F0348E69620079220F002FCE4
:10A24000079A104620F0CEFA032012F04BFF80460A
:10A2500000283FF4E7AD12F05FFF4FF6FF73A8F858
:10A260000630052388F80430002F66D17F23002EA6
:10A2700088F8183014BF4B46FF2388F8193098F837
:10A280001A30D8F800006FF3410388F81A304146BD
:10A2900012F06CFF20F0A2FA06460322337862F334
:10A2A000030333702B7F3278C3F3801363F3C71239
:10A2B0000C233270484673701DF002FAE27D92075B
:10A2C0003FD500283DD03178324641F0400102F8B8
:10A2D000021B0168C6F8021083889380D5F81E30EF
:10A2E000B3606B8CB381304620F0E6F920F032FA8F
:10A2F000002837D120F0A2FCA37D224843F00103BF
:10A300002146A3750AB0BDE8F04720F009B9A77D42
:10A3100004F1190AC7F380171AE61B4A1B491C48A7
:10A3200040F2AF432EF0B5FA002383F31188BFF358
:10A330006F8F0323184602DF26E620F015FBC3B219
:10A3400095E7A37D3278C3F3801363F38612334617
:10A3500003F8022BD4F81920C6F80220B4F81D2007
:10A360009A80BBE7084A0949094840F233532EF066
:10A3700090FA002383F31188BFF36F8F03231846ED
:10A3800002DFB7E779930400CC740600647406001A
:10A390003C630600000000002DE9F041C468A28A79
:10A3A0004FF6FF739A4282B000F0DF8005461FF03F
:10A3B000DFFA2B89628B208CA3831A4492B210445B
:10A3C00094F82730E28380B2411C21845E064FF06E
:10A3D0000001618304F1220100F1A18003F03F003C
:10A3E0000B4694F82810009004F129001CF0A0F905
:10A3F0000646D4E90C31A28B02FB0333A26B134453
:10A40000E26B8B4294BFD21852188A4228BF0A4688
:10A41000E263616C226C94F867301144616494F8D3
:10A420007E2094F82C10C3F3020363F3061112F09C
:10A4300004024FF0000384F82C10A363236478D047
:10A4400020F0B0F8082020F0D3F8201D20F0F0F81C
:10A450002389A17A40F25B6043EA014120F0A4F92C
:10A4600030461DF0B3FF2146594820F059F8A08925
:10A4700020F0E8FA94F8662094F86700C2F3C0036D
:10A48000002102F0070200F0070020F0F3F9204657
:10A490001FF02EFB27682E6838461DF077FF064414
:10A4A0006A6806F10901002020F0D8FA804620F001
:10A4B00099FB002020F0B0FBE36B94F8670003F1F8
:10A4C0002F02636C00F00700012103EB420520F02E
:10A4D00001F94544054494F8670000F0070002289C
:10A4E00025D004280CBF4FF4BC73282301211D4440
:10A4F00020F0F2F8284420F067FBA18A05313246AB
:10A50000C9B238461DF050FF0546002834D1204618
:10A510001DF0D6FED0B9002002B0BDE8F0810A4699
:10A5200003F03F03218D1CF04FF9064661E7182325
:10A53000DCE7D4E91A010FF0B5FF002880D194F8C8
:10A540007E3043F0040384F87E3079E7214A2249C3
:10A5500022484FF4B0732EF09CF985F31188BFF3B5
:10A560006F8F0323184602DFD5E71D4821461FF0F1
:10A57000D7FF20F0C3F8CEE7164A1A4917484FF420
:10A58000AB732EF086F9184B0721A5FB030301FBE3
:10A5900005310DA3D3E90023FCF702FE134902465F
:10A5A00013482EF076F9002585F31188BFF36F8FDD
:10A5B0000323184602DF0F4821461FF0B1FF20F0A9
:10A5C0009DF86FF08B00A7E700CA9A3B00000000DF
:10A5D000699D0400AC750600106506003C6306002A
:10A5E00039850400146406008D49FD1A00760600C2
:10A5F0009474060015850400F0B5C468A28A4FF66D
:10A60000FF739A4285B000F08F8005461FF0B0F9C5
:10A610002B89628B208CA3831A4492B2104494F845
:10A620002730E28380B2411C21845E064FF0000196
:10A63000618304F1220160D403F03F000B4694F8DB
:10A640002810009004F129001CF072F806462046FC
:10A6500003A91FF02BFB039B94F87E101A7861F37B
:10A66000C3021A70039A94F87E301178C3F3400342
:10A6700063F3820111701FF095FF08201FF0B8FFEF
:10A68000201D1FF0D5FF2389A17A40F25B6043EAC9
:10A69000014120F089F830461DF098FE03992046CC
:10A6A0001FF0D8FA21463A481FF03AFFE08920F01F
:10A6B000C9F994F8670000F0070020F093F82768C4
:10A6C0002E6838461DF062FE06446A6806F10901EC
:10A6D000012020F0C3F920F0B1FAA18A05313246F9
:10A6E000C9B238461DF060FE054620BB20461DF06D
:10A6F000E7FD50B9002005B0F0BD0A4603F03F0366
:10A70000218D1CF061F80646A1E7224A2249234820
:10A710004FF482732EF0BDF885F31188BFF36F8F6D
:10A720000323184602DFE5E71D4821461FF0F8FE27
:10A730001FF0E4FFDEE7174A1A491848FA232EF003
:10A74000A8F8194B0721A5FB030301FB05310EA354
:10A75000D3E90023FCF724FD1449024614482EF0E7
:10A7600098F8002585F31188BFF36F8F03231846EF
:10A7700002DF104821461FF0D3FE1FF0BFFF6FF02D
:10A780008B00B8E7AFF3008000CA9A3B00000000DE
:10A79000899B04000C760600106506003C630600E9
:10A7A00039850400146406008D49FD1A5C760600A4
:10A7B0009474060015850400F8B510EE904A34F044
:10A7C00000472DED048B10EE103AB0EE609A0DD1DB
:10A7D00083F480035B0013F5000F40F2098230EE32
:10A7E000098AB0EE480ABDEC048BF8BD23F00040A6
:10A7F000B0F1FF4F02D8B7F1FF4F08D9B3F17E5F38
:10A80000EDD184F48004640014F5000FE5E7002B1B
:10A8100001462DDAB7F1974F0CD3B7F1FF4F2AD08D
:10A820000225B4F17C5F41D1002BC0F28F80B1EEE4
:10A83000C08AD6E7B7F17E5F31D3FA15C2F196022E
:10A8400047FA02F505FA02F2BA423DD1B7F17E5F4E
:10A850004AD1002C80F2D281B5EE400AF1EE10FA16
:10A8600050D1D80FBDEC048BBDE8F8402CF0F0B906
:10A87000B7F1FF4F3DD1B0F17E5F00F0B98108D94B
:10A88000DFED977A002CB4BFB0EE678AB0EE498A4C
:10A89000A7E7002C80F2AF81B1EE498AA1E7B4F1BD
:10A8A000804F34D0B4F17C5F5CD0002523F040426F
:10A8B000B2F17E5FB0EEC08A3FD1002CBCBFB7EED4
:10A8C000007A87EE088A29E0B7F17E5FC1D00025C3
:10A8D000B4F1804FEAD1B0F1BF4F1AD2B0F1D05FDE
:10A8E00029D920EE008A7CE705F00105C5F10205B3
:10A8F000EEE7B7F17E5FACD0B4F1804F4FF00005CA
:10A90000E9D08EE7B7EE007A87EE008A69E7002586
:10A91000E1E7B0F1FF4FB0EEC08A35D1002BBFF6B2
:10A9200060AFA0F17E50284316D1BDEC048BBDE88A
:10A93000F8402CF09DB9B0EEC08A28BB002C1EDA7E
:10A94000002B8FDA6B1E584258418BE7B0F1FF4F56
:10A95000B0EEC08A40F05581012D7FF442AFB1EED8
:10A96000488A3EE7B0F1FF4FB0EEC08A3FF439AFFE
:10A97000B0F17E5FD9D000283FF433AFD5E7012D89
:10A9800008BFB0EE408A2CE7DE0F013E55EA060212
:10A99000CBD0B7F19A4F40F24081524B984208D841
:10A9A000002C0BDA0020BDEC048BBDE8F8402CF045
:10A9B0003FB94D4B984208D9002CF3DC0020BDEC88
:10A9C000048BBDE8F8402CF023B9B7EE007A38EEDE
:10A9D000478ADFED467ADFED469A3FA1D1E90001D3
:10A9E00068EE278AFCF78CFB07EE900AB5EE007A3A
:10A9F00048EE477AB6EE007A07EEC87A68EE087A33
:10AA0000DFED3C6A27EE277AF0EE687A47EE667A49
:10AA100068EE299A39EEA77A17EE103A23F47F638D
:10AA200023F00F0307EE103A77EE699A77EEE97A92
:10AA3000013D24F47F643543B7EE007A24F00F041F
:10AA4000BFEE008A18BFB0EE478A07EE104A67EEE5
:10AA5000890A39EE477A07EE903A47EE270A07EE61
:10AA6000104A67EE877A30EEA77A17EE101A00299F
:10AA700021F000431ADDB3F1864F09D9B5EEC08A43
:10AA8000F1EE10FA4CBF012000208CE70120E5E038
:10AA900036D1DFED196A37EE677A70EEA66AF4EE0A
:10AAA000C76AF1EE10FAE9DC86232DE0134A9342DF
:10AAB00007D9B5EEC08AF1EE10FA4CBF0120002094
:10AAC0007DE71DD137EE677AB4EEE07AF1EE10FA49
:10AAD000EADBEEE7AFF30080E13D55555555D53F34
:10AAE00000000000F3FF7F3F0700803F70A5EC36B9
:10AAF00000AAB83F3BAAB83F3CAA3833000016432F
:10AB0000B3F17C5F6FD9DB157E3B4FF40000184139
:10AB10000844C0F3C753A04A7F3B1A41024007EEE6
:10AB2000102AC0F3160040F40000C3F117031841C7
:10AB3000002977EEC77AB8BF404237EEA07ADFED42
:10AB4000976ADFED975A9FED976A17EE103A23F454
:10AB50007F6323F00F0307EE103A77EE677A67EE14
:10AB6000266A70EEE70ADFED907A67EE277A9FEDAE
:10AB70008F7A40EE877AB7EE000A36EEA77A77EE44
:10AB8000666A77EEE67A67EE076A47EE277A16EE90
:10AB9000A56ADFED875A46EE265A9FED866A15EEC6
:10ABA000A66ADFED855A46EE265AB0EE476A05EEF4
:10ABB000E66AF0EE006A67EE065A36EE666AC5EEA1
:10ABC000866A76EEE77A77EEC77A30EE670A10EE9D
:10ABD000103A03EBC053B3F5000F06DA2BF0D2FFA7
:10ABE00020EE088AFDE50020A7E700EE103AF7E71F
:10ABF000B7EE008AF5E59FED718AF2E5B0EE408A86
:10AC0000EFE5B0F17E5F3FF48CAE00283FF4B7AEC5
:10AC1000002D3FF48AAE0225002613F0FF4F08BF37
:10AC20009FED677A674802BF68EE077A6FF01703F7
:10AC300017EE901A4FEAE15218BF00237F3A1A44E8
:10AC4000C1F31603834243F07E5106DD5E48834222
:10AC50007FF71CAF0132A1F5000100205B4B03EB35
:10AC60008003D3ED005A5A4B06EE101A75EE867A21
:10AC7000F7EE006AC6EEA74A491041F0005101F50F
:10AC8000802101EB405136EE657A07EE901A27EEEF
:10AC9000245A15EE107A1F4006EE907A06EEE77AF7
:10ACA00077EEE57ADFED4B5A36EE676A65EE057AA8
:10ACB00006EE667A9FED486A47EE865A9FED476A30
:10ACC00005EEA76ADFED465A46EE275A9FED456A24
:10ACD00005EEA76ADFED445A46EE275A27EE247A9E
:10ACE00036EE856A67EEA77A26EE076A05EEA76A52
:10ACF00066EEA64AF0EE085A74EEA57A77EE867AEA
:10AD000017EE901A194007EE901A77EEE55A27EEE3
:10AD1000277A75EEE45A66EEA76A36EE656A06EEA5
:10AD2000057A9FED326A76EE877A17EE901A19400F
:10AD300007EE901A77EEE66A27EE866A37EE667AB5
:10AD4000DFED2B6A2B4967EEA67ADFED2B6A47EE23
:10AD5000267A01EB800191ED007A77EE877A07EE93
:10AD6000102A264A02EB8002D2ED005A76EE276ABC
:10AD7000B8EEC77A76EEA56A76EE876A16EE902A66
:10AD8000134006EE903A36EEC77A37EE657A37EE24
:10AD9000467A77EEC77A4BE6000080FF0072313FBB
:10ADA0004CBB31330EEADD358CBEBF351872313FF6
:10ADB00055B38A38610B363BABAA2A3E000000002F
:10ADC0000000804B71C41C00D6B35D0040850600B6
:10ADD00000F0FFFF55326C3E42F1533E05A38B3E1F
:10ADE000ABAAAA3EB76DDB3E9A99193F0038763F71
:10ADF000A0C39D36308506004F38763F3885060063
:10AE0000014833F039BA00BF3C2F0600012B07B5CB
:10AE10000FD112780848012A14BF002257228DF85A
:10AE2000072000210DF1070233F099F903B05DF816
:10AE300004FB6FF08500F9E73C2F0600012B13B5EA
:10AE4000144611D10A480DF10702002133F0ACF984
:10AE5000002807DB9DF80730A3F157025342534106
:10AE60002370002002B010BD6FF08500FAE700BF2C
:10AE70003C2F0600014829F0E9BC00BF0803002070
:10AE8000014829F0E3BC00BFF802002007B537F005
:10AE9000CBF84FF47A72A0FB020302FB0131C00B26
:10AEA000074A40EA4140106000234FF40042054841
:10AEB000CDE900232AF092FB002003B05DF804FBEB
:10AEC000A0470020800E0020014B187800F01CBB2A
:10AED0005CA60020044B1A78824202D01870FFF75B
:10AEE000F3BF0020704700BF5CA6002008B537F014
:10AEF0009BF84FF47A72A0FB020302FB0131114A66
:10AF0000C30B126843EA41439B1A0F4A934214DD74
:10AF100004F00EF820B1BDE808400120FFF7DABFC9
:10AF20000220FFF7D7FF00F0A1FA002803DABDE8FE
:10AF3000084000F0D3BA2DF0B9FC47F230529342EA
:10AF4000E9DC08BDA047002040771B0008B537F0BA
:10AF50006BF84FF47A72A0FB020302FB0131C00BC5
:10AF6000044A40EA41401060BDE808400020FFF775
:10AF7000B1BF00BFA0470020014B1878704700BF49
:10AF80005CA60020F0B5174C174E184D184F91B025
:10AF9000B44202D3002011B0F0BDA388FBB92068F1
:10AFA000E8B10368DBB136F0E0FBC0B12A880132BA
:10AFB00092B2A280394668462A802AF0C3FB2368F1
:10AFC0000C4A1B6820210DEB01002AF08FFB08A81A
:10AFD000FCF712F908A90246684606F069FB083436
:10AFE000D6E700BFB41300204C14002054A5002065
:10AFF00007890600039206002DE9F04F83B000AFE9
:10B000000D46164620493A469A462EF00BFB80B173
:10B01000386870B10A22391D2AF032FC7B6893F837
:10B0200000B0E8460446BBF1000F06D06FF01500F3
:10B03000C5460C37BD46BDE8F08F3F2DF6D805F16B
:10B04000080323F00703ADEB030D2A46694650467B
:10B05000B0470028E946EBDD0DF805B00B4E0C4D6E
:10B06000B542E3D22B6848461968FCF7B3F840B9FB
:10B07000084BA2B21C88AA80944238BF14461C8098
:10B08000D6E70835ECE700BF1C8906004C14002009
:10B09000B413002054A50020F8B5044610B90025CB
:10B0A0002846F8BD0378002BF9D00F4E0F4FBE4253
:10B0B0000FD30D4EBE42F2D2306836F056FB30B19F
:10B0C000356821462868FCF785F80028E8D008365E
:10B0D000F0E7306836F049FB18B135682B68A342B9
:10B0E000DED00836E3E700BF18AE0600B0AE0600BB
:10B0F00070B5054698B94FF6FF7070BD0834B4427C
:10B10000F9D2206836F031FB0028F7D023682946B1
:10B110001868FCF75FF80028F0D1A088EDE7014C33
:10B12000014EECE7B41300204C14002070B5094C1C
:10B13000094E0546B44201D3002008E0206836F0ED
:10B1400014FB28B1A388AB4202D12368186870BDF4
:10B150000834EFE7B41300204C14002070B5194CEC
:10B16000194D8CB00022002303A9204628F0FEFFD1
:10B1700008B10CB070BD2B68059E5868DDE903125C
:10B180002BF032FF0028EDDBFF238DF81830B6FAE4
:10B1900086F35B0907908DF8203036F045FF4FF4B9
:10B1A0007A72A0FB020302FB0131C00B40EA41406E
:10B1B000C90B8DE8030006ABCDE90A010FCB00F007
:10B1C000BDF9CFE7FC0F0020544800201FB50A4C02
:10B1D0002468A46884420DD183F00103CDE90112F3
:10B1E000039306480022002301A928F061FF0448C8
:10B1F00029F02CFB04B010BD54480020FC0F0020A7
:10B20000444800201FB50023CDE90233044B8DF8DC
:10B210000C0001A801932BF010FF05B05DF804FBB2
:10B22000F43806000268034B9A420CBF0830002035
:10B23000704700BFF4380600014B036001207047DF
:10B24000D8380600014B036028207047A44700202F
:10B25000044B1A68044B9A4214BF6FF0120000208E
:10B26000704700BF54480020DC38060008B5074B83
:10B2700093F90010002906DBFFF7EAFFC0B2401A7D
:10B2800018BF012008BD0020FCE700BFE10D002031
:10B2900007B5FFF7DDFF0DF107018DF8070001226B
:10B2A000024806F005FA03B05DF804FB2E8906009B
:10B2B00038B5044600282FD0194D2B68834229D079
:10B2C00053B1986840B183685B6803B198472B68B5
:10B2D0000021986805F092FA1249134B8C4214BF72
:10B2E000ED210021282200202BF098FE002812DBFF
:10B2F000A0682C6070B1012105F080FA2B68986875
:10B3000083680A491B6898472B68986883689B681C
:10B3100003B19847002038BD6FF01200FBE700BF73
:10B3200054480020DC380600A4470020CDB10200BC
:10B3300038B5054648B90648FFF7BAFF041E02DBD8
:10B340002846FFF75FFF204638BD6FF01504FAE787
:10B35000DC380600F7B50C4615460D4901AA1E4615
:10B360002EF060F968B1019B6BB9012C0DD1094F2A
:10B37000224639463046A847002802DD3878FFF7D4
:10B38000D7FF03B0F0BD0020FBE76FF01500F8E732
:10B390003F890600E10D00200148FFF789BF00BF8B
:10B3A000DC38060008B50B480B4936F054FC0B4856
:10B3B0002EF051F818B1094801212EF020F8084A62
:10B3C000002342F8043B0133282BFAD1BDE80840A2
:10B3D000FFF7E2BF444800205DB102006C2F060079
:10B3E000A4470020F8B50F4D0F4E761B07460C46BC
:10B3F00005EBC105C6F3C706A64201DC00200CE040
:10B400002A683B689A4209D13C716B6838461B68D0
:10B41000984718B1431E012BF0D9F8BD0134083507
:10B42000EAE700BF18990600A89906000D4B0E4ADE
:10B43000D21A70B4C2F3C7020024944203DB6FF047
:10B44000150070BC70471E680568AE4206D15D6885
:10B450008D4203D1E1B270BCFFF7C4BF01340833A1
:10B46000EBE700BF18990600A899060037B501A8B8
:10B4700028F062FC174D019C00232B6018235843D1
:10B4800018380444019B9C4202D2002003B030BD16
:10B49000204636F06AF9D0B120462DF088FFB0B9C9
:10B4A00020462DF0CEFF014688B9204605F0A6F9CA
:10B4B00020F0200378330AD010F1860F07D000283F
:10B4C000E4DB2B68044A42F8234001332B60183C2C
:10B4D000D8E700BF58480020790E002070B5084D0D
:10B4E000084E2C68013C002C02DA00232B6070BD52
:10B4F00056F82400012105F081F9013CF3E700BF73
:10B5000058480020790E00201FB50023CDE90233F2
:10B51000044B8DF80C0001A801932BF08EFD05B0B3
:10B520005DF804FBF83806000268034B9A420CBF32
:10B5300008300020704700BFF838060084B030B5EE
:10B5400089B00CAC84E80F00002301930CAD084BCC
:10B5500000930FCD02AC0FC495E8030084E803000C
:10B5600068462BF06AFD09B0BDE8304004B0704772
:10B57000FC3806000268034B9A420CBF08300020DA
:10B58000704700BFFC38060084B030B58BB00EACFD
:10B5900084E80F00002301930EAD084B00930FCDFC
:10B5A00002AC0FC495E80F0084E80F0068462BF04A
:10B5B00044FD0BB0BDE8304004B0704700390600D0
:10B5C0001FB50023CDE90233044B8DF80C0001A810
:10B5D00001932BF032FD05B05DF804FB0439060041
:10B5E00082B038B504A981E80C000546114828F05E
:10B5F000AFFB0446A0B1AB68012B0CD0022B05D0E9
:10B60000A3B9BDE8384002B02BF049BD2BF04EFD88
:10B6100000282046F5DCBDE8384002B02BF038BDEC
:10B620006FF00400BDE8384002B070476FF085004D
:10B63000F8E700BF0E8A060082B010B502A981E8C3
:10B640000C0004460B4828F083FB78B1A368022B5A
:10B6500004D00020BDE8104002B070472BF026FD5A
:10B660000028CCBF00200120A060F2E76FF00400AA
:10B67000F0E700BF0E8A06000246024902482BF09E
:10B680006DBD00BF30030020A83906000246024904
:10B6900002482BF063BD00BF180300207839060074
:10B6A0000246024902482BF059BD00BF8C480020D9
:10B6B000683906000246024902482BF04FBD00BF20
:10B6C00074480020583906000246024902482BF00F
:10B6D00045BD00BF5C48002048390600F0B585B084
:10B6E000F8B901290DD1104C002B0DBF16460026CC
:10B6F00015460025274634F802CB66450DD127F8BC
:10B7000010509DF82800009000240025CDE9024546
:10B7100006481FF0D1FD05B0F0BD01300528EAD183
:10B72000EFE76FF01200F6E766A50020542F060041
:10B730002DE97F4300264FF000084FF00009F8B9CB
:10B74000124D0524324635F8023B63B13AB1CDE9DA
:10B7500002890F480096002301211FF0ADFD35F846
:10B76000022C25F8026C013CEDD14AB100200021E9
:10B77000CDE9020101210648009123461FF09CFDFE
:10B780006FF0120004B0BDE8708300BF66A5002012
:10B79000542F06000D4A52F82030013342F8203071
:10B7A0000B4A0123117883400B430A490978DBB225
:10B7B000137023EA01030849084A097850780B43BB
:10B7C000181A537018BF0120704700BFB8480020F6
:10B7D00060A600205EA600205FA60020F90D0020D4
:10B7E00010B5114A52F82030002B19DD013B42F808
:10B7F00020300E4A2BB913780121814023EA01033E
:10B8000013700B480B4B047810780B4A5978127858
:10B8100020EA040010435870401A18BF012010BDE0
:10B820006FF01500FBE700BFB848002060A60020BD
:10B830005EA60020F90D00205FA60020044A012327
:10B8400012788340D8B213401B1A584258417047AF
:10B8500060A6002010B5084B084A1870084B5178B4
:10B860001C78084B1B7823EA040318435070401AD5
:10B8700018BF012010BD00BF5FA60020F90D0020F9
:10B880005EA6002060A60020074B00221A70074B1E
:10B89000074A1978074B50781B7823EA0103181AD6
:10B8A000537018BF012070475FA600205EA60020DD
:10B8B000F90D002060A60020A0F1E003072B03D8BB
:10B8C0002030C0B2FFF766BF064B062213F8011FF7
:10B8D00019B1013AFAD10020704718700028F8D049
:10B8E000F9E700BFFB0D0020A0F1E003072B10B427
:10B8F00005D820305DF8044BC0B2FFF771BF0023BC
:10B90000064A194612F8014F0133A04208BF1170D0
:10B91000062BF7D100205DF8044B7047FB0D00208B
:10B92000A0F1E003072B03D82030C0B2FFF786BF99
:10B93000064A002312F8011F884204D00133062B67
:10B94000F8D1002070470120704700BFFB0D002098
:10B95000024B00221A605A60704700BFFA0D0020A7
:10B96000B0F5805F10B510D20949002301EB430206
:10B97000B2F8014024B10133062BF7D1002010BDED
:10B98000A2F801000028F6D0F8E76FF08500F6E78E
:10B99000EC0D002030B50023074C194604EB4302A0
:10B9A0000133B2F80150854204BF51709170062BEB
:10B9B000F4D1002030BD00BFEC0D0020024B00226E
:10B9C0001A605A609A607047ED0D0020074A002304
:10B9D00002EB4301B1F80110814204D00133062B80
:10B9E000F6D1002070470120704700BFEC0D002009
:10B9F000042810D8094A52F82030013342F8203088
:10BA0000074A0123117883400B43DBB21370054AC8
:10BA10000020537070476FF015007047A448002055
:10BA20005DA60020E20D0020042814D80B4A52F82D
:10BA30002030002B0FDD013B42F82030084A2BB9A3
:10BA400013780121814023EA01031370054B12781A
:10BA50005A70002070476FF015007047A44800200E
:10BA60005DA60020E20D0020014B588099807047B0
:10BA7000E20D0020014B1881D9807047E20D0020B3
:10BA8000024B00221A605A601A727047E30D0020C0
:10BA900000487047F90D002000487047EC0D002069
:10BAA00000487047E20D00202DE9F0410B4E33783D
:10BAB00083B10B4CDFF82C80002542F20F77204633
:10BAC0004146013536F023F90A2D44F8207C04F173
:10BAD0005804F4D100203070BDE8F081020E00203F
:10BAE000D01A0020337705002DE9F041C269037EAA
:10BAF000D17D90B0044609B1032B3DD0023B012B10
:10BB0000517D07D8002937D1204610B0BDE8F0415B
:10BB10002BF0E5BD21B1937D13B920462BF07DFDBF
:10BB20000AAD18220021284636F072FBD4E90467DA
:10BB3000D4F8008023798DF838301022002106A82F
:10BB4000CDE90C67CDF82C8036F062FBE3699B6889
:10BB50000793E36808930A4BC3E90267C3F80080C0
:10BB60000123049310AB13E90F008DE80F0006A822
:10BB700095E80C002BF02DF910B0BDE8F08100BF66
:10BB8000000000200B4A30B500230446282000FBAB
:10BB900003F18D18515C41B90FCC0FC50FCC0FC507
:10BBA00094E8030085E8030030BD0133282BEED173
:10BBB000FAE700BF701400202DE9F843027E034627
:10BBC000002A6ED13B4D2A6882426AD1D269547DE7
:10BBD00024B119B9BDE8F8432BF081BD107D0328CD
:10BBE00028D8DFE800F0020E1F600139042921D8AF
:10BBF000DFE801F01E0320051E00022119E00321E9
:10BC000017E00139042915D801A050F821F000BF30
:10BC100031BC020035BC0200FBBB0200FFBB0200CE
:10BC200031BC02000429EAD001F0FB01012901D155
:10BC300001211976197EA1B3D06900280DDD5C6D54
:10BC4000611C0AD01C32002152F8046FA64204D0B5
:10BC500001318842F8D101221A76002218462A6062
:10BC6000FFF742FF2C68E4B9134EDFF85080A1467D
:10BC700016F8087CAFB12B6806F8089C23B14FF486
:10BC8000A470002136F057F9012F01D0022F03D103
:10BC900041463046FFF7CAFB0134282C06F128063E
:10BCA000E6D1BDE8F8830229A7D0BFD9043901291C
:10BCB000BED9BFE70849002078140020243B0600C5
:10BCC00082B02DE9F0412F4E06A981E80C00002436
:10BCD000582202FB04F0851931588B424AD120309A
:10BCE000304436F022F8EB691968D5E904238A1844
:10BCF00043EBE17308998A42099A9341804603DA3B
:10BD000004212846FFF758FF582707FB0467012145
:10BD10002846FFF751FFFB69DB7D53B13B7E032BC8
:10BD200007D128462BF0A3FC012328463B76FFF7DA
:10BD3000DBFE28462BF09BFC582303FB0463DB69E6
:10BD40005A7D22B19B7D13B128462BF066FC18F179
:10BD5000770F4FF058031DBF5C4342F20F72331947
:10BD600003FB046317BF3251012200221A7683F8C5
:10BD7000502002E001340A2CABD1BDE8F041002094
:10BD800002B07047B01A002082B02DE9F047044697
:10BD900008A9406881E80C002AF0C5FF3B4B1D68EC
:10BDA0007DB9D4E902C23A4F4FF0580E42F20F78F3
:10BDB0000EFB05F6F419B959414507D001350A2D96
:10BDC000F6D1BDE8F047002002B07047D0F80480FB
:10BDD0009DF83010DDF82490DFF8B8E02171C4E957
:10BDE00002C2DDE90AC0C4E904C000214FF0FF32FD
:10BDF00047F8069021766265C4F81C80DEE90221CE
:10BE00001C60D8F8103013EB020A41EBE373D44501
:10BE100070EB03030CDBDEF8003099450CD1D8F849
:10BE20000C309A1841EBE371944570EB010103DA91
:10BE300005212046FFF7C0FE20460021FFF7BCFE8B
:10BE4000582303FB0575D8F8004029690C4436F0E7
:10BE5000EBF84FF47A72A0FB020302FB0131C30B33
:10BE600043EA4143E11A21EAE17140F2E7304FF43D
:10BE70007A72002300EBC1304914FBF791F92036A8
:10BE800002460B46B81928F04FFD9AE708490020F2
:10BE9000B01A0020000000202DE9F0418AB00446CD
:10BEA000FFF768FB00286CD02046FFF763FB524D7C
:10BEB00047680446002642F20F782B689F420CD058
:10BEC00043450AD0EB69DB7D3BB12B7E032B04D1CC
:10BED00002232B762846FFF707FE01360A2E05F1CE
:10BEE0005805EAD1454D286808B900202CE0C369FF
:10BEF000227A197E914204D0426D013204BF6268F9
:10BF00004265016862689142EFD01968D0E9042364
:10BF10008A1843EBE173D4E90461B2428B4116DB2A
:10BF2000237ADBB10123214602A88DF800302BF0E3
:10BF30008CF86846FFF726FE217A2868C1F10301D4
:10BF4000C9B2FFF739FE02200AB0BDE8F081042132
:10BF5000FFF732FE2B68002BC7D0E1E76068284A64
:10BF600011780029C1D0012905D15169884202D137
:10BF7000117E0029D6D10133282B02F12802EFD1FE
:10BF8000B3E7204601F006FB0028DDD0204601F093
:10BF900001FB837A01469BB14368E03B072B02D843
:10BFA0000378072B0CD0174BD1E90402D3E90254D4
:10BFB00085429441BEBFC3E902024FF000441C60B9
:10BFC0000E4B18680028BFD04B68E03B072B8CD87D
:10BFD0000B78072B89D1C3695B7D13B1007E0028E4
:10BFE000B2D002A802248DF800402BF062FF684610
:10BFF000FFF7C8FDA7E700BFB01A002008490020DE
:10C00000701400200000002070B54D6804460E46F4
:10C0100028462349FBF7DEF810B92072012070BDD5
:10C0200020492846FBF7D6F810B901232372F5E71B
:10C030001D492846FBF7CEF808B90223F6E71B494D
:10C040002846FBF7C7F810B9B3686360E6E71849FC
:10C050002846FBF7BFF810B9B3682360DEE715493F
:10C060002846FBF7B7F810B90123A373D6E71249A6
:10C070002846FBF7AFF810B90123E373CEE70F4969
:10C080002846FBF7A7F808B90223EEE70C49284633
:10C09000FBF7A0F808B90223EFE70020BFE700BFD5
:10C0A000E78A0600F18A0600FD8A06000B8B06006F
:10C0B0001A8B06002A8B06003B8B06004C8B060071
:10C0C0005D8B06002DE9F047D0F804900469D9F89B
:10C0D0000830DFF84CA0236200256381A58109F1B7
:10C0E0000C07D9F80830AB4212D939462046FFF781
:10C0F0008BFF6E1C804680B978685146FBF76AF862
:10C1000048B9B6B26681D9F8083025629B1BA38175
:10C110000020BDE8F087A4F80E8035461037E0E730
:10C120006E8B060082B0F8B50E9D406806A981E8C6
:10C130000C0014462AF0F7FD079B296806696F6812
:10C14000283BDB0021B31A1956F8320006EBC20275
:10C1500001445068124A384480EAE075A5EBE07566
:10C160009542C1BF0F4D90FBF5F2891805FB1200F7
:10C170000C9A4FF4B4751288B5FBF2F51A1991FBBD
:10C18000F5F705FB171146F8321006EBC2025060B6
:10C190002344002046F82370BDE8F84002B0704701
:10C1A0003F420F0040420F0008B5034600690349B3
:10C1B000036335F0ACFD002008BD00BF91C2020052
:10C1C000F8B52DED028B0C46B1F90410054631B9D6
:10C1D0009FED2D0A84ED000ABDEC028BF8BDD4E979
:10C1E000027657EA06004CD0A888C01946F100062E
:10C1F000121A63EB0603012A73F1000041DB4FF4CE
:10C200007A7607EE901AA2FB062106FB0311E88856
:10C21000D30B43EA414398424FEAE1314FF0000229
:10C220008A41B8EEE78A14DB98B16A7A8AB107EEE0
:10C23000100A07EE903AB8EEC70AF8EEE77A07EE72
:10C24000102A87EE800AF8EE470AFEF7B5FA28EEC4
:10C25000008A2B7ADFED0D6A07EE103AB8EEC77A46
:10C2600027EE087AC7EE267A94ED007A77EE877A81
:10C27000BDEEE70AB8EEC00A77EEC07AC4ED007AE8
:10C28000AAE7DFED017AEFE70000000000007A4442
:10C290002DE9F0412DED028B076B84B07E680446DA
:10C2A00035F0C2FE0D4602460B46804604F13801C9
:10C2B0003046FFF785FF2B46424604F148013046E1
:10C2C000F0EE408AFFF77CFFFDEEE87AB0EE408AA0
:10C2D00017EE903AFDEEC07A1BB217EE902A15B217
:10C2E000EBB1DFED2F7A3288F4EEE78AF1EE10FA47
:10C2F0004CD9DFED2C7AF4EEE78AF1EE10FA47F62E
:10C30000FF7158BF0B4600200021CDE90201B5FAAC
:10C3100085F149090091384602211EF0CDFFDDB1BB
:10C32000DFED1F7A7288B4EEE78AF1EE10FA2FD9AA
:10C33000DFED1C7AB4EEE78AF1EE10FA47F6FF73F0
:10C3400048BF2B4600200021CDE9020101210091C8
:10C35000384602211EF0B0FFB4F93C3013B9B4F9ED
:10C360004C30BBB1307AC0034FF47A72002300F234
:10C37000E7300021FAF714FF02460B46204604B0CE
:10C38000BDEC028BBDE8F04128F0CEBA064BBAE70F
:10C39000054BD7E704B0BDEC028BBDE8F08100BFD0
:10C3A000000000C700FEFF460080FFFF70B50C4A8A
:10C3B0000C4CD2E906350646206813F1320245F1ED
:10C3C000000510F0010009D09642A941A1BF2368E1
:10C3D00023F0010323600020B8BF012070BD00BF1F
:10C3E00028200020D049002070B5094B094D1E7847
:10C3F00000241C702EB128462AF022FE0134B442DB
:10C4000001DB304670BD203528462AF016FEF5E7E0
:10C4100062A600202820002008B50C4B0C490D48CE
:10C420004FF6FF721A80A3F84820A3F89020A3F8D3
:10C43000D82035F06CFC084B9A6F42F001029A67E5
:10C44000DA6F42F00102DA67002008BD081F002001
:10C450007DC60200D81E0020304900202DE9F04F93
:10C4600043488FB035F061FC424B00261E60424BC2
:10C47000B3F900A047F6FF739A4564D03F4F4823B5
:10C480004FF6FF7203FB06F0C419395A914251D19D
:10C490003B49DFF8FCB00A789BF8009001320A7043
:10C4A00038491FFA8AF328223B5202FB0313083053
:10C4B000B3F908803449C845A8BFC84628EAE872DD
:10C4C0005201384435F07CFE4FEA4813DFF8B8C01B
:10C4D000A4F80280C6460793CE4539DB482303FB08
:10C4E000067708ADA9EB08091822002128463C6A06
:10C4F0008BF8009035F08CFE0AF128030993FF2396
:10C500008DF83030214BE217C3E90042CDE90A42F1
:10C510001C4A28230AFB032A012304930EAB13E9C8
:10C520000F008DE80F000AF1140095E80C002AF0C6
:10C5300050FC04E00136042EA4D1FFF755FF0E4A4B
:10C5400047F6FF7313800FB0BDE8F04FFFF74CBF05
:10C55000079B0CEB03050FCD64460FC495E80F0055
:10C560000EF1010E84E80F000CF1200CB4E700BFBF
:10C57000D81E0020D0490020DC0D0020081F00201C
:10C5800061A60020043D06002820002010000020A5
:10C5900062A60020F8B53449344E0C78D6E9003252
:10C5A000002C3ED103F100430133134335D06FF02B
:10C5B000004535F039FD4FF47A77A0FB070307FB00
:10C5C0000131C30B43EA4143AB424FEAD131A141B0
:10C5D00024DA35F029FDA0FB070307FB0131C00B6E
:10C5E00040EA4140281A64EBD131C90341EA504185
:10C5F00040F2E733C003C0184FF47A724FF00003E3
:10C6000041F10001FAF7CCFD02460B46184828F02C
:10C610008BF9002801DBC6E90054F8BD002213465F
:10C62000F4E714491448096811F0010FD0E9061421
:10C6300014BF32256FF000456D1844F10004944298
:10C6400008BF9D42E9D06FF000439C4208BFB5F19E
:10C65000FF3FAED100230022C6E900230448BDE815
:10C66000F84035F062BB00BF62A60020D01E00205B
:10C67000D81E0020D04900202820002038B5114CB9
:10C68000D4E9003213431CD035F0CEFC03460D46EE
:10C69000D4E900014FF47A74A3FB043204FB0522B1
:10C6A000DB0B43EA424383424FEAD2328A4108DB42
:10C6B000FFF77CFE08B9FFF7D1FEBDE83840FFF771
:10C6C00069BF38BDD01E00202DE9F04F9DB0044653
:10C6D000FEF750FF002800F035812046FEF74AFFA4
:10C6E0000446002800F04981067A002E00F085807B
:10C6F000A34EDFF8B0923578D0E9048785BBD0F837
:10C7000004A000F079FC9F4ADFF87CE2D2E9001235
:10C71000013909EB8A0C42F1FF322B467BB1002D27
:10C7200000F02B813378022B42D1FFF733FF002436
:10C73000954B1B68DB0754D46FF0150459E0DCF807
:10C74000003013F00103EAD0884577EB0200E6DB06
:10C75000DEF8000040F00100CEF800000135DDE712
:10C7600039464046FFF722FE874B6268377859F812
:10C7700022501A6815401D603B463DB9022F17D163
:10C78000FFF708FF2C46FFF769FE32E06A1E1540EE
:10C7900006D1022F0BD12C46FFF7FCFE0125C7E77F
:10C7A000022F1CD1FFF7F6FE00243D46C0E701250D
:10C7B000764F07EB43175A1C21460CA83C460CAF9A
:10C7C00032702AF042FC0FCF0FC497E80F0084E8C4
:10C7D0000F00FFF7DFFE0224002DA9D1D3E70225C9
:10C7E000E6E73378022B04D1694B0022012D1A8031
:10C7F000C9D020461DB0BDE8F08FFFF72FFE63685B
:10C80000099323690793634B634F1B7808900B933D
:10C81000B9460B9B9E420CDB089B012B40F3AD807D
:10C82000214614A82AF011FC14A82AF006FC0224C0
:10C83000DFE77B88B7F800800693584B282202FB7D
:10C8400008334FF0000CB3F908300A93BE46E246B5
:10C850000125069B534513DC4837BCF1000F6FD010
:10C86000069A482303FB0693013A5A804B4B282231
:10C8700002FB083393F82430FBB115BB0124B8E761
:10C88000BCF1000F10D00EF1080BBBE80F00AEF1A9
:10C8900018050FC59BE80F0085E80F0000250AF179
:10C8A000010A0EF1200ED4E7DEF81430099A9A42FC
:10C8B00014BF00254FF0010CF1E7069B0A9A934242
:10C8C00020D114AC18220021204635F0A1FC08F13B
:10C8D00028031593079B079ADB17CDE916232F4AE8
:10C8E000FF238DF86030282303FB082800230493DE
:10C8F00016AB0FCB8DE80F0008F1140094E80C0084
:10C900002AF067FA002DB9D0224B1C78013CE4B222
:10C91000A6421C7008D004EBC401482209EBC101F7
:10C9200002FB069035F04CFC48225443002109EBF1
:10C93000040035F06DFC4FF6FF7329F804309DE7D5
:10C94000013666E7204600F025FEB0B1204600F033
:10C9500021FE837A8BB14368E03B072B02D8037832
:10C96000072B0AD00E4BD0E90412D3E9000388420A
:10C970009341BCBF034BC3E90012002439E700BF59
:10C9800062A6002018000020D049002028200020A6
:10C99000DC0D002061A60020081F0020043D0600D9
:10C9A000100000203049002030B595B01C22002135
:10C9B0000DA835F02DFC254D06AC00220DA9002355
:10C9C000284627F0D3FB014600283DD118222046F7
:10C9D00035F01EFC0D9B079335F026FB4FF47A7261
:10C9E000A0FB020302FB01319DF838308DF828309E
:10C9F000C00B9DF84C3040EA4140C90B13F00102D6
:10CA0000CDE9080118BF0122049208AB0FCB8DE8D5
:10CA10000F000FA894E80C002AF0DBF9139B012B00
:10CA2000CBD9C3F35E044FF4004540F2E730002158
:10CA30004FF47A720023E5FB0401FAF7B1FB0246DA
:10CA40000B46034827F070FF15B030BD2C100020B6
:10CA50002000002084B030B589B00DAC84E80E0011
:10CA600043680193037C8DF8083094E80F0003AD10
:10CA700085E80F009DF84430129A43EA4203079379
:10CA80000A480022002301A927F012FB002804DB3A
:10CA9000074835F048F928B1002009B0BDE830401A
:10CAA00004B070470248FFF77FFFF5E72C10002025
:10CAB0002000002070B500250646056000F01CFF30
:10CAC000044678B102F068FA30B900F0E7FF0123BC
:10CAD00070603370304670BD064B1B78012BF4D06C
