:020000022000DC
:1070000000840020A1B902000BD604008DB9020053
:107010008DB902008DB902008DB902000000000098
:10702000000000000000000000000000BDBA0200E7
:107030008DB902000000000021BA02008DB90200E3
:1070400051BD0200A5DB030051BD020051BD02008D
:1070500051BD020051BD020051BD020051BD0200F0
:1070600051BD020051BD020051BD020051BD0200E0
:1070700051BD020051BD020051BD020051BD0200D0
:1070800051BD020051BD020051BD020051BD0200C0
:1070900051BD020051BD020051BD020051BD0200B0
:1070A00051BD020051BD020051BD020051BD0200A0
:1070B00051BD020051BD020051BD020051BD020090
:1070C00051BD020051BD020051BD020051BD020080
:1070D00051BD020051BD020051BD020051BD020070
:1070E00051BD020051BD020051BD020051BD020060
:1070F00051BD020051BD020051BD020051BD020050
:1071000053B94AB9002908BF00281CBF4FF0FF310E
:107110004FF0FF3000F00CB8ADF1080C6DE904CE73
:1071200000F022F8DDF804E0DDE9022304B0704746
:10713000704700BF10F8012B11F8013B012A28BF4E
:107140009A42F7D0D01A7047034611F8012B03F882
:10715000012B002AF9D17047034613F8012B002AAE
:10716000FBD1181A013870472DE9F04786468C4646
:107170000846089E154674461946002B40F0C2800A
:107180008542B2FA82F245D94AB1C2F1200300FA2F
:1071900002FC2EFA03F3954043EA0C0C94404FEAAC
:1071A000154EA8B2BCFBFEF8230C0EFB18CC08FB56
:1071B00000F943EA0C43994528D9EB1808F1FF3749
:1071C00004D2994502D9A8F102072B44A3EB090385
:1071D000A4B2B3FBFEFC0EFB1C330CFB00F044EA34
:1071E0000344A04214D92C190CF1FF3304D2A0425D
:1071F00002D9ACF102032C44241A43EA07401EB121
:10720000D440002334607360BDE8F0874746DDE773
:107210006346F1E792BB431B01214FEA154EAFB223
:10722000B3FBFEFC200C0EFB1C330CFB07F840EA02
:107230000343984562D9EB180CF1FF3004D298450E
:1072400002D9ACF102002B44A3EB0803A4B2B3FBB8
:10725000FEFC0EFB1C330CFB07F744EA0344A74279
:107260004ED92C190CF1FF3304D2A74202D9ACF14C
:1072700002032C44E41B43EA0040C0E7C2F12003B0
:1072800020FA03F1954090402EFA03F303434FEAAE
:10729000154EAFB2B1FBFEFC0EFB1C10190C0CFB23
:1072A00007F841EA0041884504FA02F422D9691836
:1072B0000CF1FF3004D2884502D9ACF10200294418
:1072C000A1EB08019BB2B1FBFEFC0EFB1C110CFBF9
:1072D00007F743EA01439F420ED9EB180CF1FF3147
:1072E00004D29F4202D9ACF102012B44DB1B41EADC
:1072F000004192E76046E3E76146F7E76046A3E7AF
:107300006346B7E7834206D916B9002108467BE7F2
:10731000C6E900E0F9E7B3FA83F78FB9834201D3F6
:10732000724508D8BEEB020460EB030301209C46C3
:107330001EB9002168E73846FAE7C6E9004CF8E7CD
:10734000C7F1200CBB4022FA0CF41C432EFA0CF1BE
:1073500020FA0CF3B84001434FEA14490EFA07F53E
:10736000B3FBF9F81FFA84FE09FB18300B0C08FB7D
:107370000EFA43EA00439A4502FA07F240D9E318AD
:1073800008F1FF3004D29A4502D9A8F10200234443
:10739000A3EB0A0389B2B3FBF9F809FB183308FB26
:1073A0000EFE41EA03418E452CD9611808F1FF33E6
:1073B00004D28E4502D9A8F10203214443EA0040D9
:1073C000A0FB0298A1EB0E014145CE46434602D3F5
:1073D00006D14D4504D2B9EB020E68EB0403013827
:1073E000002EA6D0B5EB0E0261EB030101FA0CFCF6
:1073F00022FA07F34CEA0303F940C6E9003198E7A3
:107400004046C5E74346D9E7F7B5002101AA40F653
:10741000034005F0AFFC0446002869D10198C36819
:107420001B788BB9BFF35B8FB94B1A68BFF35B8FC7
:1074300002F00902BFF35B8F53E8001F43E800240A
:10744000002CF9D1BFF35B8F04F018FF01AA0021D3
:1074500041F2030005F08EFC0446002848D1019A51
:10746000AC4DD168D1F80100D1F8051005F17803D1
:1074700003C3104604F002FF214601AA41F20100B5
:1074800005F078FC044698BB0198C3685A7885F8E3
:1074900070205A88A5F872201A7985F87120B3F8FF
:1074A0000720A5F87420B3F80530A5F8763004F06D
:1074B000E5FE214601AA41F2020005F05BFC04460C
:1074C000B0B9019FFA6805F18006531C4132186873
:1074D0005968344603C4083393422646F7D13846E8
:1074E00004F0CCFE95F87C305B0604D46FF01204F7
:1074F000204603B0F0BD01AA002142F2030005F0CE
:1075000039FC04460028F3D1019B834EDA68D2F897
:107510000100D2F8051003C6184604F0AFFE21465C
:1075200001AA42F2020005F025FC04460028DFD142
:10753000019CE368B3F8012091B249B1D97839B11F
:10754000A5F80421DA78114606F128002CF0D0F9CC
:10755000204604F093FE95F87C601F2316F0200669
:10756000A5F8203118D1022140F66D4005F084FACB
:107570000446002800F0C48002210C3026F0F5F803
:107580000123037046702146324640F66D4005F0F7
:10759000F1FB04460028ABD195F89C301F0712D5AB
:1075A00001AA002142F21C0005F0E4FB0446002879
:1075B0009ED10198C368D3F80120D3F80530C5E9FE
:1075C000382304F05BFE95F8D8309E0624D50DF1E3
:1075D0000201684626F014FD0446002888D10421E3
:1075E00042F2240005F048FA0646002800F08880A0
:1075F00004210C3026F0B9F8BDF800300380BDF846
:10760000023043802246314642F2240005F0B2FBAC
:10761000044600287FF46CAF95F8D8305C0610D58E
:1076200001AA002142F22A0005F0A4FB044600282A
:107630007FF45EAF0198C3685B7885F8223104F06F
:107640001DFE082142F2010005F016FA044600284A
:1076500056D008210C3026F088F895F8D81011F093
:10766000400F024640F2022308BF032388074CBFA5
:1076700043F02C0043F00C0095F8D9308F0648BF3A
:1076800040F0400013F0090F18BF40F40060CE072F
:1076900048BF40F01000002126F0E3FA2146002206
:1076A00042F2010005F066FB044600287FF420AF9B
:1076B00095F87C30B5F80411980624D4C9B901AA0C
:1076C00041F2050005F056FB044600287FF410AF98
:1076D000B5F80431019C4BB9E368B3F80120A5F873
:1076E00004219A880D4811462CF002F9204604F036
:1076F000C5FD082140F6014005F0BEF9044678B901
:107700006FF06804F4E60029F3D16FF00404EFE6AB
:10771000D400002000000020D80000200801002034
:1077200008210C3026F021F895F8D830D907024608
:1077300053BF4FF000512CA1D1E90001284826F099
:1077400090FA2146002240F6014005F013FB044662
:1077500000287FF4CDAE014601AA4FF6014005F0A6
:1077600009FB044620BB019804F088FD214601AACC
:107770004FF6024005F0FEFA0446C8B90198C36806
:10778000B3F80130A5F8C13004F078FD95F8C130A8
:107790005B070DD501AA21464FF6034005F0EAFA32
:1077A00030B90198C3685B7885F8C03004F066FD95
:1077B00026F0FDFD044600287FF49AAE07F046FB54
:1077C000044600287FF494AEEB79002B3FF490AE92
:1077D0000821044826F07FF905F01CFA88E600BF6E
:1077E00010880002D4000020908800020080002051
:1077F0002DE9F843D0E90738856903EB08042F34F5
:10780000A5420F46164619D8DFF87080A3FB080181
:1078100017A3D3E90023FFF773FC0346601BA0FB0B
:10782000080123F07F4412A3D3E90023FFF768FC8B
:1078300020F07F403C603060BDE8F883DFF83C908A
:107840000BA3D3E90023A5FB0901FFF759FC20F0A6
:107850007F4409480A2106A3D3E90023E8FB090174
:10786000FFF74EFC20F07F403C603060BDE8F883BD
:107870008D49FD1A0700000000166BF100CA9A3B03
:107880009FED097B0E4B0F4A0F4983ED007B9FED67
:10789000087B82ED007B9FED087B0C4B002281ED85
:1078A000007B1A600DF016BDFFFFFFFFFF1F0000F9
:1078B00000000000000000001F00000000000000A9
:1078C000980100202816002090010020242E00207E
:1078D000002800F046812DE9F04FC94C94F86A2049
:1078E00012F001058DB040F0788194F82500FF2357
:1078F00000F0030084F8263015F02EFD94F86A009D
:10790000420727D494F8292094F8353004EB8202FA
:1079100004EB8303D66AD3F8388086B1B848314681
:107920000FF0B2FA33785B0605D506210AF066FC43
:10793000002800F05481B24841460FF0A5FA337890
:1079400013F00E0F40F09E80236A93B10C200DB00F
:10795000BDE8F08F2A4604F16B01C0F3C00015F0BA
:1079600073FEFF2884F82600CCD0284615F00EFDC3
:10797000C8E70CF087FF8146002800F054810CF026
:107980008DFF8246002800F04B810FF07BFD0546FD
:10799000002800F04A81D0F894004FF6FF732B8640
:1079A00005F11C0B002800F0208105F1880205F18B
:1079B00084010AF02FFCB5F8823023F4EF6323F042
:1079C000070343F48C7343F00103A5F8823095F864
:1079D000433003F03F0363F07F0385F8433095F8AD
:1079E0009A3023F0070385F89A3095F8483023F051
:1079F0000F03002785F848304FF4C023C5F89831AD
:107A00002846C5E91577C5F89470A5F8987085F8EB
:107A10004570EF86C5F83A70EF65A5F89E71A5F838
:107A2000947111F079FE85F86071C5F864910FF0DA
:107A3000BDFF95F8A43160F3020385F8A4310FF07F
:107A4000BBFF95F8A43160F3C50385F8A43195F820
:107A5000903167F3410385F890310121284610F0F9
:107A6000C3FB05F1E00011F02FFCC4E9189AC4F83B
:107A700020B0C5E905772F70ED6116F0C7FE00282C
:107A800040F0AF8094F824300121C3F342030DF19C
:107A90002B008DF82B300AF05BFD0246002862D0E7
:107AA00098F8011030460EF0A9FF31235549A36024
:107AB000554BB4F86870A0FB01010025C01841F1D6
:107AC00007014DA3D3E90023C4E90555257065607E
:107AD000E560FFF715FB20610BF0FAFF00F10908E4
:107AE0003FB9357805F00F05A5F10105B5FA85F523
:107AF0006D0994F82400236965F3000010F0010576
:107B000084F8240036D0414A0992002010600225F2
:107B10003F4A404F04930BAE019305920321CDE9F8
:107B20000200069443460090089607972A460B9554
:107B30000BF0D0FE31460CF061FFA0B9364905913B
:107B40004AF2D8330093CDE90300CDE9010007974D
:107B5000089606944346012203210B950BF09EFEE6
:107B60002EE00EF09BBE236A002B3FF4EFAE0EF02A
:107B700051FEEBE6254A2948049303F24713069485
:107B8000029591211360A7FB000301FB0731214BF4
:107B900007931F4B05934FF6FF7309920227039338
:107BA0000BAE15A3D3E900230B970896FFF7A8FAAD
:107BB0004346CDE900503A46284603210BF08AFEA1
:107BC00031460CF01BFF0028CDD194F86A3001201B
:107BD000034384F86A3015F0A1FB0020B7E61220B9
:107BE000B5E60EF017FE0320B1E605F18C00C5F8EE
:107BF0009400DAE6AFF300808D49FD1A070000001B
:107C00005C2E002000CA9A3B8C49FD1A502E0020A1
:107C1000796A0300353C03005D650300002AE784B0
:107C200048460CF035FE072091E650460CF03CFE2D
:107C300048460CF02DFEF6E770B590F824308AB077
:107C4000C3F342030D46044601210DF123001646FD
:107C50008DF823300AF07CFC7178024628460EF03D
:107C6000CDFE1F491F4AA0FB0131981841F10701C1
:107C700019A3D3E90023FFF743FA23699842054685
:107C800021D21B1A00220192174A0293174BA21A03
:107C9000A3FB02320221920900230A4409AE099192
:107CA00013490591CDE903330321D2B2069600931F
:107CB00018460BF06FFE31460CF0A0FE38B9256176
:107CC00000200AB070BDFBD9C21A0023DBE70C20EC
:107CD0000AB070BDAFF300808D49FD1A07000000A7
:107CE00000CA9A3B8C49FD1A5C2E002009CB3D8DC1
:107CF000353C0300000000002DE9F04F06468DB032
:107D00008A46012002219946154618F01DFD0022E1
:107D10000B90022101200AF0CDFA3B494FF4D872B2
:107D200030460AF057FAC71C384B0093FFB2019651
:107D30004B463A46012100200BF086FE10F0FD0F65
:107D40000ED0334A3349344840F68F0324F0DCFC2C
:107D5000002383F31188BFF36F8F0323184602DFDC
:107D60002E4CA5FB044526A3D3E900232046294633
:107D7000FFF7C6F90896069633690493284B20F05E
:107D80007F48A8FB0331E01A264B07934FF0070208
:107D9000254B059302FB08114FF6FE7365EB0101BD
:107DA00003934FF47A720023FFF7AAF94FF0000B08
:107DB000CDE90180CDF800A04B463A460121584656
:107DC0000BF06CFD10F0FD0F0DD0114A1149124857
:107DD00040F6A40324F098FC8BF31188BFF36F8F57
:107DE0000323184602DF0B9B13B90DB0BDE8F08FDB
:107DF0000122022110460DB0BDE8F04F0AF05ABA38
:107E00008D49FD1A0700000030160020257403007C
:107E1000405F050004600500205A050000CA9A3B37
:107E20008D49FD1AC57303004DC803000000000012
:107E30002DE9F0418468228E4FF6FF739A428CB090
:107E400045D00546204611F0DDFE2B7D012B00F0CC
:107E50002281022B00F01581002B00F0F48094F8B1
:107E60006061002E40F010812B8A678F94F94320C7
:107E7000CDE90A6673B3002AC0F25A810023A4F840
:107E80009A31AA7C238FFD1802F003030135012BE0
:107E9000ADB23BD0B4F89E31002B00F005819D427D
:107EA00080F059815B1B9BB20022062BA4F89E3107
:107EB000628740F2F68094F943309342C0F25081D9
:107EC000002326E09DF8271020460FF053FE0CB04B
:107ED000BDE8F081002AB8BF84F88561238FAA7CB1
:107EE000FD1802F003030135012BADB20ED0B4F83A
:107EF0009A31002BCED0AB4240F23C815B1BA4F800
:107F00009A31B4F89E31002BC9D102E00023A4F8C5
:107F10009E3194F8482063F3820284F84820294671
:107F20000DF12702204611F033FC7430CAD0B4F8AA
:107F300098312BB1AB4240F2EC805B1BA4F8983136
:107F4000B4F894312BB1AB4240F2DA805B1BA4F859
:107F50009431658F16B9AF4200F0C9800135ADB2DA
:107F600094F8DD3013F0010731D1DDE90A130A4638
:107F7000002B40F0CC80002900F0BB801F46184643
:107F8000228EE4690694CDE9035603329A4D02909D
:107F9000CDE90017D2B20121002005950BF0FAFCC3
:107FA00010F0FD0F93D00CF053FD84428FD0934A14
:107FB000934994484FF4AE6324F0A6FB002383F367
:107FC0001188BFF36F8F0323184602DF7FE794F910
:107FD00043206FF30003002A84F8DD307FDB94F840
:107FE0008200C0F3C00100F0070016F027FAB4F8D1
:107FF0007A20B4F878301344628D03F23F131344AF
:108000000344814A81480721E3FB0021104678A3FD
:10801000D3E90023FFF774F8DDE90A1320F07F426B
:1080200020692261904235BF171A801A002000276C
:108030000A46002BA4D157EA010CA1D1002858D040
:1080400019461F469CE794F89A3003F01803182B42
:108050007FF405AFA18EB4F896218B1D9A42C4BF60
:10806000931F5B1AB4F89211CCBF9BB2134699428E
:1080700000F09C80A4F89231A4F89431A4F89821DF
:10808000EDE63D2684F86061314620460CB0BDE83F
:10809000F0410FF06FBD0023A4F89831A4F894319B
:1080A000DDE60126334634E7628E052A97BF0132AA
:1080B00040F2E2434FF4FA7392B203FB02F2B4F8D7
:1080C0009C3142F2107101FB0323013BB3FBF2F33D
:1080D0009BB2A4F89E31002B7FF4E1AE19E794F82F
:1080E0008300012100F0070016F0AAF97FE735466A
:1080F00036E7002D43D00027114638463B463FE780
:108100000023A4F89431204611F0E4FB21E738461F
:1081100036E70CF009FC0146A0B30023A4F898311F
:10812000238EC3801B23037100680CF0CFFB07E78D
:1081300094F885316BB3013B84F8853104F1E00894
:10814000404611F003F9B8B3404611F0FFF8B8B358
:108150000023638792E6082120460FF00BFDB6E668
:10816000A7B9D4F888315A0813F0010336D1C4F8FE
:108170008821A5E63E2120460FF0FCFCA7E6002E54
:10818000B9D1A4E60123A4F89831D9E61346012613
:10819000BFE60AAA0BA92846FFF72AFBDDE90A2356
:1081A0001343CBD0237884F88531C7E7B4F898110E
:1081B00000297FF454AE5FE7FF200FF09DFCC3E77A
:1081C0000246D4E921010AF03DF80028C0D194F814
:1081D00048301B0744BFA38E63874FE642F000423E
:1081E0001E46C4F888213B4693E600BFAFF30080EB
:1081F0008D49FD1A0700000081730300405F0500F0
:1082000080600500205A05008C49FD1A00CA9A3B7F
:108210002DE9F04F87B0CDE90423BDF84420037861
:108220000292BDF84820BDF840A0BDF84C90878F61
:10823000019104460392002B00F0D480013FBFB2AD
:10824000A368D4F81CB1A7EB090292B2002B0092EC
:108250000ADAE168626823F0004391422CBF8B4444
:108260009344A360ABEB030B94F88200C0F3C0010E
:1082700000F0070016F0E2F8658E052D40F2AA80A6
:10828000009B15FB03F5ADB240F2E248BAF1050FD1
:1082900040F29480B4F87A20B4F87830134403F2B2
:1082A000D51303447A4A7B480721E3FB00214FF0B2
:1082B0009613A36296231046A38573A3D3E90023E4
:1082C000FEF71EFF564620F07F4040F2E24308FBD7
:1082D00005F103FB06F6B1FBF6F81FFA88F52061FD
:1082E00006FB05F08142A8465AD2401A694966A3A6
:1082F000D3E90023A0FB0101FEF702FF20F07F403D
:108300008344E38EB4F824211344994494F8433011
:10831000A9EB0709C844DB09A4F8368069D15E4A95
:108320005E495F4840F6671324F0EEF9002585F3B7
:108330001188BFF36F8F0323184602DF3746029B75
:10834000A386039BA4F89C3131462046A4F832A0B2
:1083500011F05AFA534BA18E3344881DB3FBF6F348
:108360009AB29042A4F8962104D2C1F57F41FA3125
:108370000A4492B2019BA4F8922113B10023A4F8FD
:108380009E315B463A4629462046FFF7B5FC94F8F5
:10839000903143F0010384F8903107B0BDE8F08FCD
:1083A000091A3C4838A3D3E90023A1FB0001FEF7DA
:1083B000A7FE20F07F40ABEB000BA2E74FF0961337
:1083C0000AF10106A3629623A385B6B20A204FF4F0
:1083D000FA737CE7009B013515FB03F5ADB24FF452
:1083E000FA7853E7C38E1F44B0F824311F44BFB25C
:1083F00026E7E26C0099636D02FB1133636516F0AA
:1084000055FA074694F88401C0F3420016F050FA7A
:10841000074406FB07F7244B07F5742707F23F27AD
:10842000A3FB0737BF0C636DE76405FB07F0720819
:108430000344963A934228BF1346C4E91423049B8D
:10844000144D40F2E24808FB03F3E3650023A0FB70
:108450000501C4F88C310CA3D3E90023FEF750FECC
:10846000124B059AABEB000BA3FB0230800A08FB12
:1084700000F0A0FB050104A3D3E90023FEF740FEB2
:10848000F71B20F07F455AE78D49FD1A07000000D1
:108490008C49FD1A00CA9A3B405F0500F85A050056
:1084A000205A05007FC3C90183DE1B435917B7D18A
:1084B0002DE9F04F0B6891F81180D3F80090037FFD
:1084C000176895B00446C3F38013D0F81E008DF8EA
:1084D0003F30B8F1FF0F638C12900E461546ADF891
:1084E0004C300DF1480A4DD19AE803001090ADF8D8
:1084F00044102346E28D53F82EBB9B78AB722A8141
:10850000D4F82A306B60D4F83A30C5F8223005F13F
:10851000220094F83E30037105210AF019F895F80D
:10852000273000F03F0060F3050385F8273094F80A
:108530003F30C3F3040285F82820A28EEA82012886
:1085400003F01F0392B205D91B3303F01F030B2B5B
:1085500000D81ABB0022C9F8142095F82C3062F319
:10856000000385F82C30E56801265846214626711F
:108570000CF0A0F928682E7129460CF0A7F915B067
:10858000BDE8F08F10AA0DF13F01404614F06CFCDD
:108590009DF83F3002338DF83F30AAE73368002161
:1085A0005960E38EEA8A2B8340F2E24303FB02F236
:1085B0000B92628E0D92384611F03AF994F83F20F2
:1085C00097F88411520962F3430187F8841116F079
:1085D0006DF90C9097F88401C0F3420016F068F929
:1085E0000C9A0B99104401FB00F0BF4A00F574206F
:1085F00000F23F20A2FB00204A08800C963A286334
:108600006A6394F8312040F2E24302FB03F36B64A7
:10861000238FA7F89C31384611F0F6F80B99B34B2D
:10862000B34AC7F8A0210B44B3FBF1F39AB2A7F801
:108630009621298B881D824204DDC1F57F41FA31E4
:108640000A4492B2A7F892216B68C7F88831234692
:1086500013F81C2FC2F340120C92DA0700F10181CB
:108660004FF48073A38399F8260015F001F904F103
:108670002B03002800F0F180626AC4F82B20228DC1
:108680009A80B8F1FF0F00F00F81BAF80430129809
:10869000A4F82930C4F825009DF83F30A37710983E
:1086A000BDF84430C4F81F00A4F82330EB8A638679
:1086B0002B8BA386B7F89C31E38697F88431C3F3FC
:1086C000420384F8383038460EF0E8FEA882E08095
:1086D0002146584674680CF0EDF8AB8AE3801C2301
:1086E00023710C9BD4F80080002B40F0D1800C9BB0
:1086F0002377214640460CF0E9F895F86700B5F875
:108700005C80B5F85E40012100F0070015F098FE8E
:10871000444404F2D514DFF8E481044482467548E9
:108720004FF096130721C5E90333E4FB0801312319
:108730000024BB607C606AA3D3E90023FC60FEF7E1
:10874000DFFC20F07F4038610B9B2D6B0D995D1B8A
:10875000F36840F2E24202FB013303F2B341A1EBC2
:108760000A0A22460221012009F0A4FD48460EF023
:1087700047FB0246AAFB0801924659A3D3E900230E
:10878000FEF7BEFCCDF80490B3685B49009120F081
:108790007F480AF102023A3BD2B24344012120460B
:1087A0000BF052F9012800F0858099F82430DB079E
:1087B00066D438460EF072FE504BA5FB03A9044662
:1087C00047A3D3E9002350464946FEF799FC4C4B9A
:1087D000B6684C4A079220F07F45A5FB0331BAEBFF
:1087E0000300494B05934FF4F573069708933B69D3
:1087F0004FF0000BCDE903B34FF0070303FB051166
:1088000069EB01014FF47A720023FEF779FC03341F
:108810003A3EE4B2CDE90150CDF80080334622461D
:10882000012158460BF03AF810F0FD0F0DD0374AF1
:108830003749384840F2EB1323F066FF8BF3118879
:10884000BFF36F8F0323184602DF01220221104677
:1088500009F030FD15B0BDE8F08FC4F82B0098800A
:108860000FE72A4A2C492B48FD2323F04DFF002314
:1088700083F31188BFF36F8F0323184602DFEFE6FF
:10888000002301220093184611460BF09BF890E755
:1088900095F8273043F0400385F82730281D14F061
:1088A000EDF80123288523E70022C4F82520A4F849
:1088B0002920F1E60CF0CCF881453FF476AF134A5D
:1088C0001649144840F2922323F01EFF84F31188C6
:1088D000BFF36F8F0323184602DF66E7AFF3008014
:1088E0008D49FD1A0700000083DE1B437FC3C901C9
:1088F000404B4C008C49FD1A0DC8030000CA9A3B3E
:108900008D49FD1AD9C703004DC8030060650500F5
:1089100004600500205A0500145D0500BC650500D3
:1089200010B5334C3349002304F1FF3C14F83320D5
:10893000072A02EB820E05D811F83E206FF345128C
:1089400001F83E201CF833206FF300020CF83320AE
:108950000133082BEAD1284A284C002313700A78E7
:1089600063F300020A7091F8282063F3000281F893
:10897000282091F8502063F3000281F8502091F8EC
:10898000782063F3000281F8782091F8A02063F347
:10899000000281F8A02091F8C82063F3000281F85A
:1089A000C82091F8F02063F3000281F8F02091F8DC
:1089B000182163F3000281F81821114A9FED0A7B08
:1089C0001370104B83ED007B0F4B236028B1BDE883
:1089D00010400E490E482BF05BB8BDE810400C4823
:1089E0002BF062B8AFF30080FFFFFFFFFFFFFFFF38
:1089F0003D350020FC330020304F00200C33002098
:108A00002F4F002010180020A0BB0D0081D50300BF
:108A1000E0170020000000002DE9F04F8FB00DF1AD
:108A200037010446DFF8E0A0DFF8E0800DF1360002
:108A30000BF0BCFF9DF836309DF837B00B930BF070
:108A400047F8DAF80060A6FB085629A3D3E900230B
:108A50000027814631462846FEF752FBCDE90777CD
:108A6000069420F07F44DAF80400234B0593A0FB22
:108A700008011FA3D3E90023FEF742FB1F4B20F0A0
:108A80007F40A4FB0331072202FB0411CDE90370F0
:108A9000E81A66EB01014FF47A720023FEF730FB0F
:108AA0000097CDE901404B460B985A4603210AF046
:108AB000F5FE10F0FD0404D06FF08B000FB0BDE8A0
:108AC000F08F0F480F4A002320F0FEFD20B9DAF89E
:108AD0000C000FB0BDE8F08F9DF837209DF83600F0
:108AE0000094234603210AF06DFF6FF07300E5E761
:108AF0008D49FD1A070000002DDB03008D49FD1A8A
:108B0000B0350020447B0B00C835002000CA9A3BDA
:108B100038B50F4D04460AF0DBFFA9680AF0DAFF0A
:108B2000696803460B48B3FBF4F4A1FB00011C4445
:108B300005A3D3E90023FEF7E3FA20F07F40844247
:108B400094BF0020012038BD8D49FD1A07000000A8
:108B5000C835002000CA9A3BF0B5C468636883B08A
:108B60000546002B64D117F06FF9082017F092F931
:108B70000021084617F080F900222521082017F06F
:108B8000BDF9474B019301A817F0A4F9454940F2FC
:108B90005B6017F055FA237AC3F3420262F30613BF
:108BA0002046237216F0A0F814F03EFF58BB637AFB
:108BB0009B071FD127682E68384615F0DBFB06445B
:108BC0006A6806F10901012017F082FB17F040FCEA
:108BD00020460EF021F9811C3246C9B2384615F004
:108BE000D7FB054678BB204615F06CFB88B9002002
:108BF00003B0F0BD012014F085FB4178821C0078A1
:108C000017F006FBD6E7607A10F0030018BF0120CA
:108C1000F1E7254A2549264840F2294323F074FD0F
:108C200085F31188BFF36F8F0323184602DFDEE759
:108C300093F82C309A0796D01E48214617F0C2F8B8
:108C400017F0A8F9D3E7184A1B49194840F2114315
:108C500023F05AFD194B0721A5FB030301FB053146
:108C60000DA3D3E90023FEF74BFA15490246154838
:108C700023F04AFD002585F31188BFF36F8F03238E
:108C8000184602DF1048214617F09CF817F082F9C9
:108C90006FF08B00ACE700BF00CA9A3B00000000F9
:108CA000D6BE898E55555500B8690500F45B0500A0
:108CB000205A050021E50300F85A05008D49FD1AE8
:108CC000686A05003C6A0500BDE80300000000007A
:108CD0002DE9F041C468A28A4FF6FF739A4282B030
:108CE00000F0DF80054616F043FB2B89628B208C59
:108CF000A3831A4492B2104494F82730E28380B2DE
:108D0000411C21845E064FF00001618304F12201C1
:108D100000F1A18003F03F000B4694F8281000906A
:108D200004F1290013F062FE0646D4E90C31A28B4F
:108D300002FB0333A26B1344E26B8B4294BFD21845
:108D400052188A4228BF0A46E263616C226C94F88A
:108D500067301144616494F87E2094F82C10C3F3BA
:108D6000020363F3061112F004024FF0000384F8CB
:108D70002C10A363236478D017F066F8082017F04E
:108D800089F8201D17F0A6F82389A17A40F25B60CC
:108D900043EA014117F054F9304615F00BFB214628
:108DA000594817F00FF8A08917F086FA94F8662052
:108DB00094F86700C2F3C003002102F0070200F03C
:108DC000070017F0A3F9204616F07CFB27682E68F1
:108DD000384615F0CFFA06446A6806F1090100200A
:108DE00017F076FA804617F007FB002017F01EFBFD
:108DF000E36B94F8670003F12F02636C00F0070047
:108E0000012103EB420517F0B7F84544054494F8F7
:108E1000670000F00700022825D004280CBF4FF49B
:108E2000BC73282301211D4417F0A8F8284417F02B
:108E3000D5FAA18A03313246C9B2384615F0A8FAEC
:108E40000546002834D1204615F03CFAD0B9002060
:108E500002B0BDE8F0810A4603F03F03218D13F014
:108E600011FE064661E71823DCE7D4E91A0109F090
:108E7000E9F9002880D194F87E3043F0040384F8A7
:108E80007E3079E7214A224922484FF4B07323F01B
:108E90003BFC85F31188BFF36F8F0323184602DF75
:108EA000D5E71D48214616F08DFF17F073F8CEE781
:108EB000164A1A4917484FF4AB7323F025FC184B98
:108EC0000721A5FB030301FB05310DA3D3E9002313
:108ED000FEF716F913490246134823F015FC002546
:108EE00085F31188BFF36F8F0323184602DF0F4805
:108EF000214616F067FF17F04DF86FF08B00A7E7DB
:108F000000CA9A3B000000003DF70300F46A050028
:108F1000F45B0500205A050021E50300F85A05001E
:108F20008D49FD1A486B05003C6A0500FDE403000D
:108F3000014827F0CEBE00BF984A0500012B07B5B7
:108F40000FD112780848012A14BF002257228DF849
:108F5000072000210DF1070227F02EFE03B05DF877
:108F600004FB6FF08500F9E7984A0500012B13B563
:108F7000144611D10A480DF10702002127F041FEE5
:108F8000002807DB9DF80730A3F1570253425341F5
:108F90002370002002B010BD6FF08500FAE700BF1B
:108FA000984A0500014820F069BD00BFB8020020C2
:108FB000014820F063BD00BFA802002007B52AF0D9
:108FC000F2FE4FF47A72A0FB020302FB0131C00BE8
:108FD000074A40EA4140106000234FF40042054830
:108FE000CDE9002321F012FC002003B05DF804FB62
:108FF000C01D0020F0090020014B187800F004BAD1
:10900000424E0020044B1A78824202D01870FFF7BB
:10901000F3BF0020704700BF424E002008B52AF081
:10902000C2FE4FF47A72A0FB020302FB0131114A27
:10903000C30B126843EA41439B1A0F4A934214DD63
:1090400000F01AFE20B1BDE808400120FFF7DABFAA
:109050000220FFF7D7FF00F089F9002803DABDE806
:10906000084000F0BBB923F05CFB47F2305293425A
:10907000E9DC08BDC01D002040771B0008B52AF0C0
:1090800092FE4FF47A72A0FB020302FB0131C00B87
:10909000044A40EA41401060BDE808400020FFF764
:1090A000B1BF00BFC01D0020014B1878704700BF42
:1090B000424E0020F8B5044610B900252846F8BDF8
:1090C0000378002BF9D00F4E0F4FBE420FD30D4E39
:1090D000BE42F2D230682AF018FA30B13568214623
:1090E0002868FEF727F80028E8D00436F0E7306853
:1090F0002AF00BFA18B135682B68A342DED004368B
:10910000E3E700BF9C950500AC95050070B5194CD0
:10911000194D8CB00022002303A9204620F03EF90F
:1091200008B10CB070BD2B68059E5868DDE90312CC
:1091300022F06FFE0028EDDBFF238DF81830B6FA21
:1091400086F35B0907908DF820302AF02CFE4FF44F
:109150007A72A0FB020302FB0131C00B40EA4140DE
:10916000C90B8DE8030006ABCDE90A010FCB00F077
:1091700065F9CFE7280B0020741E00201FB50A4CAC
:109180002468A46884420DD183F00103CDE9011263
:10919000039306480022002301A920F0A1F8044807
:1091A00020F06CFC04B010BD741E0020280B0020C1
:1091B000641E00201FB50023CDE90233044B8DF857
:1091C0000C0001A8019322F04BFE05B05DF804FBF2
:1091D000D8520500044B1A68044B9A4214BF6FF032
:1091E00012000020704700BF741E0020C05205000E
:1091F00038B5044600282FD0194D2B68834229D05A
:1092000053B1986840B183685B6803B198472B6895
:109210000021986801F0B2F81249134B8C4214BF38
:10922000ED2100212822002022F00DFE002812DB73
:10923000A0682C6070B1012101F0A0F82B6898683B
:1092400083680A491B6898472B68986883689B68FD
:1092500003B19847002038BD6FF01200FBE700BF54
:10926000741E0020C0520500C41D00207D91020024
:1092700038B5054648B90648FFF7BAFF041E02DBB9
:109280002846FFF797FF204638BD6FF01504FAE730
:10929000C0520500F7B50C4615460D4901AA1E46F9
:1092A00024F06FF868B1019B6BB9012C0DD1094F07
:1092B000224639463046A847002802DD3878FFF7B5
:1092C000D7FF03B0F0BD0020FBE76FF01500F8E713
:1092D0005B7D0500930900200148FFF789BF00BFAF
:1092E000C052050008B50B480B492AF084FB0B4817
:1092F00023F090FF18B10948012123F05FFF084ACD
:10930000002342F8043B0133282BFAD1BDE8084082
:10931000FFF7E2BF641E00200D910200B04A050075
:10932000C41D0020F8B50F4D0F4E761B07460C46A6
:1093300005EBC105C6F3C706A64201DC00200CE020
:109340002A683B689A4209D13C716B6838461B68B1
:10935000984718B1431E012BF0D9F8BD01340835E8
:10936000EAE700BFD48705000488050037B501A8E7
:109370001FF0FAFD174D019C00232B601823584362
:1093800018380444019B9C4202D2002003B030BD37
:1093900020462AF0BAF8D0B1204623F0E7FEB0B953
:1093A000204623F02DFF014688B9204600F0E6FF55
:1093B00020F0200378330AD010F1860F07D0002860
:1093C000E4DB2B68044A42F8234001332B60183C4D
:1093D000D8E700BF781E0020EC09002070B5084DCA
:1093E000084E2C68013C002C02DA00232B6070BD73
:1093F00056F82400012100F0C1FF013CF3E700BF53
:10940000781E0020EC0900201FB50023CDE90233AF
:10941000044B8DF80C0001A8019322F021FD05B04A
:109420005DF804FBDC5205000268034B9A420CBF56
:1094300008300020704700BFDC52050084B030B512
:1094400089B00CAC84E80F00002301930CAD084BED
:1094500000930FCD02AC0FC495E8030084E803002D
:10946000684622F0FDFC09B0BDE8304004B070470A
:10947000E05205000268034B9A420CBF08300020FE
:10948000704700BFE05205001FB50023CDE902334D
:10949000044B8DF80C0001A8019322F0E1FC05B00B
:1094A0005DF804FBE852050082B038B504A981E8F4
:1094B0000C00054611481FF063FD0446A0B16B681F
:1094C000012B0CD0022B05D0A3B9BDE8384002B067
:1094D00022F0E6BC22F0EBFC00282046F5DCBDE8DB
:1094E000384002B022F0D5BC6FF00400BDE838402F
:1094F00002B070476FF08500F8E700BF197E0500E5
:1095000082B010B502A981E80C0004460B481FF098
:1095100037FD78B16368022B04D00020BDE810400D
:1095200002B0704722F0C3FC0028CCBF002001200D
:109530006060F2E76FF00400F0E700BF197E0500FD
:109540001FB50023CDE90233044B8DF80C0001A8B0
:10955000019322F085FC05B05DF804FB94530500EF
:109560000268034B9A420CBF08300020704700BFCE
:109570009453050008B500F0C7FBBDE80840014959
:109580002AF055BAD802002007B5084829F0BDFFD7
:1095900048B14FF4F0120023CDE900230448002223
:1095A000002321F033F903B05DF804FBF84A05000D
:1095B000280A002008B5FFF737FF10B96FF08500C3
:1095C00008BDFFF771FD38B10138C0B20128F5D8E8
:1095D00003482AF02FFC01E0FFF7D6FF0020EFE759
:1095E000280A002037B5104CA5683021EB682046CA
:1095F0009847B8B930212B696A462046984788B900
:109600000A4C00982378834204D0C0B22070FFF740
:1096100097FF38B901F0D2FD2378984202D018465E
:1096200001F0D2FD03B030BDF84A0500434E0020E2
:1096300008B5054829F069FF18B1FFF7A5FF00201C
:1096400008BD6FF01200FBE7F84A05001FB50023C4
:10965000CDE90233044B8DF80C0001A8019322F0F0
:10966000FFFB05B05DF804FB9C53050030B587B0E7
:109670008C89ADF815400724029404AC0194064D82
:10968000BDF828400495009401258DF8145026F06B
:1096900027FB07B030BD00BF1B0000271FB51024FB
:1096A0000294044C0194BDF81840009426F018FB75
:1096B00004B010BD594E002008B5BDF8081019447B
:1096C000012908DC3BB1054B127805481A7020F0DF
:1096D000D5F9012008BD6FF00600FBE7444E0020DD
:1096E00048030020014B1878FFF7C2BD444E00200C
:1096F00007B5064B00930649064805234FF4407210
:1097000020F0C2F9002003B05DF804FBA05305006F
:10971000804F0020980D002070B50F4D0F4E8AB07D
:1097200000220023694628461FF038FE044608B18F
:109730000AB070BD2146182204A82AF028FC102384
:109740000DEB030120460596CDF818D0ADF81C307E
:1097500007F092FAE4E700BF580B0020BC53050065
:109760001FB50E490E4840F6CD4200231FF0B8FD4C
:10977000044670B110F10B0F08D100220023694696
:1097800007481FF00BFEFFF7EBFF0446204604B02E
:1097900010BD044904482AF04AF9F7E7594E002061
:1097A000580B0020E8020020980D00202DE9F04F12
:1097B0000378022B91B01AD0032B10D0002B5FD16D
:1097C0004378314D03F00701DC0801238B40817899
:1097D0002A5DDBB239B113432B55FFF7C1FF0020DF
:1097E00011B0BDE8F08F22EA03022A55F5E743786D
:1097F000019390F80380B0F805A0D0F8099087781D
:10980000224C0D26224BD4F800C005AA03F1100B00
:10981000964618685968154603C508335B452A46BD
:10982000F7D11B782B707146604624F062F805462C
:10983000F8B994F83430019A9A421AD1003F18BF0F
:109840000127014618220AA88DF80C80ADF80DA05A
:10985000CDF80F908DF813702AF099FB03AB0C93A1
:109860000AA9082328460B94ADF8343007F004FA0F
:10987000B6E7013E04F11404C4D16FF01200AFE763
:109880006FF08500ACE700BF594E0020A8530500DB
:10989000FC4E0500014B1970704700BF6C4E002054
:1098A000014B1860002070477C1E0020084A094BBD
:1098B00012781B78002062F30700074A12785B00D9
:1098C00062F30F20DBB282B063F3174002B070473F
:1098D000694E00206D4E00206A4E002013B50C4BDF
:1098E0001C6894B1FFF7E2FF8DF80400C0F3072372
:1098F000C0F307408DF805308DF806000199054842
:10990000234602B0BDE81040184702B010BD00BFAA
:109910007C1E0020AC95050010B5002003F01AFB5A
:10992000044610B9024823F029FD204610BD00BFAF
:109930005803002010B5084805F05AF9074805F00B
:109940006DFA074B074800241C70074B01221A7060
:1099500020F094F8204610BD9403002084030020DA
:109960006B4E002074030020694E0020044B1B78CE
:109970002BB1044B044800221A7020F07FB87047C6
:109980006A4E00206B4E0020B80300200C4B07B538
:10999000187030B10B4820F071F8002003B05DF86A
:1099A00004FB01900849012001AA04F0DFFE0198A0
:1099B00010B1132124F05DFF04F080F9EDE700BF42
:1099C0006A4E0020B8030020A9C104000B4BB1FA75
:1099D00081F010B540090C461870FFF737FE3C2C9B
:1099E0000AD1074B1B783BB1064B074801221A707E
:1099F000BDE8104020F042B810BD00BF6D4E002001
:109A00006A4E00206B4E0020B803002070B503782A
:109A10008AB004460E4607AD032B20D8DFE803F0DA
:109A200002191B1D11492846FDF78EFB0595637829
:109A30000493A3780393E3780293237901936379E2
:109A40000093A3790A4A1E21304620F067FF0AB02E
:109A500070BD0849E7E70849E5E70849E3E7084A30
:109A60000A21284620F05AFFE0E700BFAF7F05003B
:109A7000D87F0500B67F0500BD7F0500C77F0500C4
:109A8000D17F050000B589B024F09EFF6946FFF73D
:109A9000BDFF044B00201870FFF7D8FD09B05DF83A
:109AA00004FB00BF6D4E002070B5204E204B306887
:109AB000B2881C781F49B3798AB003AD0390ADF822
:109AC000102000202A46AB7108F0B4F93146072275
:109AD00028462AF0E2FB184B0646D0B1ACB9032069
:109AE0002246214601241C700023CDE90602CDE95F
:109AF0000815ADF814308DF8163000931A46194643
:109B000005A804F0A9F80AB070BD1320A022F02126
:109B1000E8E70A4D18700FCD05AC0FC42B68236021
:109B20000749009633460322EAE700BFA5800500F7
:109B30006B4E0020459B02006C4E0020A04E05009D
:109B4000BC54050038B507220C46064905462AF0E4
:109B5000A4FB28B12B682360AB88A380AB79A371E9
:109B600038BD00BFA580050000487047AC950500D2
:109B700073B5194C194EB442254602D36FF012004A
:109B800008E02B689B68043433B9154C2368AB425A
:109B900011D1002002B070BD9847C0F307238DF8A3
:109BA00004008DF80530C0F30743C0B28DF80630CD
:109BB0000028E0D0E9E723B11B685B680BB1002007
:109BC00098472B6825605B68002BE2D0012002B02B
:109BD000BDE87040184700BFAC950500B095050082
:109BE000801E002007B5094B01911B68834207D1F5
:109BF0009DF8063033B903B05DF804EBFFF7B8BF4A
:109C0000FFF7B6FF002003B05DF804FB801E0020C4
:109C100070B5094C094D0A4EAC42234603D3BDE84A
:109C20007040FFF7A5BF1B68DB680434002BF3D03E
:109C300030469847F0E700BFAC950500B0950500A9
:109C4000E59B0200054B1B6823B11B6813B11B6821
:109C500003B118476FF01200704700BF801E00204C
:109C600008B5044800F0C4FF002818BF6FF01500C5
:109C700008BD00BFA19C0200084B1B780B2B4FF0C6
:109C800001000AD8984010F4CD6F05D110F4016F8F
:109C90000CBF01200020704702207047A809002057
:109CA0000A2808B5024613D00A4B0B491870FFF773
:109CB000E3FF02280AD10B78032A08BF43F001030F
:109CC0000B70BDE8084005481FF0D8BE0023F7E739
:109CD00008BD00BFA80900206E4E0020C803002068
:109CE00007B5064B0093064906480A234FF4407215
:109CF0001FF0CAFE002003B05DF804FBD854050035
:109D000000530020800E002000487047800E002085
:109D100010B5094C0A44914200D110BD11F8013B25
:109D2000584003090001E35CC0B2434018091B011D
:109D3000205CDBB25840EEE722800500014B1B6837
:109D4000184700BFD803002030B585B004460D4643
:109D50001022002168462AF01AF902238DF80230F9
:109D60002A46044B01932146684620F005FF05B0C2
:109D700030BD00BF3D9D020080B505460E4617462A
:109D8000984620F065FA03462AF09CFCDFF818900C
:109D9000044649F80030424630463946A84754F850
:109DA000090001F027FE00BF0800000008B50446C6
:109DB000EFF31183202383F31288BFF36F8F1AF020
:109DC0004BFF204601F004FE024822F090FC23F0F5
:109DD0002EFCFCE7328005002DE9F047058B044698
:109DE0002807904611D4022905F0070540F0CC80E1
:109DF000204622F034FD78B10138218B042811D897
:109E0000DFE800F0C2106D85950001290CBF45F018
:109E1000100545F02005258388F31188BFF36F8F67
:109E2000BDE8F08701F0070AAA4500F0A5800027E9
:109E3000B9463E46A368002B00F0BC8041F0080103
:109E4000218388F31188BFF36F8FA168002900F088
:109E5000BA800D68002900F0B680D1F8048033463E
:109E600052462046C047002D76D02B6829461D4615
:109E7000F0E701F007035A1F012A1BD8002221F046
:109E80000701062B276889B2C4E9002209D13B46A5
:109E900003E0628B013262831B68002BF9D141F031
:109EA00002012183204622F0DAFC00287AD041F01A
:109EB000200176E0042B0AD121F0070189B2218329
:109EC000204622F0CCFC10B141F020012183218BEF
:109ED00001F0070AAA454FD00027B946AAE723692F
:109EE00021F0070141F00601062DD3F800902183EF
:109EF0002DD1B9F1000F3FD041F00801218388F343
:109F00001188BFF36F8F3A492046C84729E021F0F6
:109F10000701236941F0040189B2042DD3F80490AC
:109F20002183E6D000273E464FF0040A82E721F065
:109F30000701236941F0050189B2052DD3F8089086
:109F40002183D6D000273E464FF0050A72E700274E
:109F50003E464FF0060A6DE72B4687E7B9F1000F42
:109F6000D1D1EFF31188202383F31288BFF36F8FD1
:109F7000238B23F008032383258BEA062ED525F0B7
:109F80001003238305F007056669218B002EBFF6B9
:109F900070AF00232768C4E9003321F0070141F0C6
:109FA00001012183218B01F0070AAA454FF0000926
:109FB0007FF440AF002F9CD041F00801218388F34B
:109FC0001188BFF36F8F002FC8D03D6839463346E4
:109FD0005246204622F06FFC2F46F4E7AB067FF591
:109FE0001BAF25F02003238305F0070500E700BF22
:109FF000E3C804002DE9F7430F4606460821C06A6E
:10A00000DFF8509022F0BAFD3C68241A80463C608C
:10A0100004EA0905AC4203D8002003B0BDE8F08390
:10A0200008236A462146304622F040FD0028F4D13C
:10A030006946304622F0ACFD40B1BDF80230BDF8B3
:10A0400004203C6005EA090513441D44A4EB080400
:10A05000E0E700BF0000FFFF73B504460821C06AB7
:10A06000124E22F08BFD4FF6FF726368ADF80020B0
:10A070008DF80620A289191833401344181A0025B8
:10A0800060606846ADF80210ADF8045022F06DFD36
:10A090006946204622F03CFE2046211D22F03FFD6D
:10A0A000636828463340A36002B070BD0000FFFF24
:10A0B0002DE9F047044688B000F11407384629F02E
:10A0C0002EFBA06A8368DB689847E06228B96FF0CE
:10A0D0001505284608B0BDE8F087A06A8368DB68EC
:10A0E00098470368013B1F2BF1D8A06A216805AA95
:10A0F00026F061FF0028EAD1A589002DE7D0069B54
:10A10000B5FBF3F203FB1255002DE0D1E389012BDF
:10A11000DDD9E36A009593F805904FF0FF334FF0D7
:10A12000FF3238461FF09CF9E06A082122F026FD34
:10A13000A8460646E3891FFA85FA534508D8E389FD
:10A14000434523D138461FF003FA6FF02C05C0E7D2
:10A15000A1892B04891B13FA81F14A460823204662
:10A16000009122F0B1FC78B16946204622F0D7FC7C
:10A1700008F10108009908234A4620461FFA88F88A
:10A1800022F0A2FC0028DAD00135D3E753450BD1E9
:10A19000009908234A46891B204622F095FC18B9ED
:10A1A0006946204622F0BBFC69462046FFF722FFA5
:10A1B000054618B138461FF0CBF98AE7009B63606B
:10A1C0004FEA13484FEA0848C4F80880D4E901135D
:10A1D00099420FD3082301AA204622F067FC0546C6
:10A1E0000028E7D101AB13F8012B914533D101359C
:10A1F000082DF8D163681B0C1B04694620460093A8
:10A2000022F08DFCA38900994A46204622F05CFC8E
:10A21000051ECFDB636876D006EB03084FF6FF79A7
:10A22000A389CDF800801FFA88F29B1B9A422ED397
:10A2300000236168002B43D0090C090400912046DB
:10A24000694622F06CFC0099204622F075FC054618
:10A25000002D74D0AEE701A9204622F099FC626877
:10A2600010B9921B6260B1E7BDF80850BDF8061046
:10A27000E06AC4F80880294422F080FC40449042FF
:10A28000A060EED1002DECD06FF01C0568E0082333
:10A2900003AA4146204622F009FC0546002889D140
:10A2A00003A9204622F074FC30B1BDF80C304B45B8
:10A2B00002D1BDF810300BB1B044B1E70123B8E7CB
:10A2C000204622F039FC054600287FF473AF63680E
:10A2D000264AA18913400B44A3EB46036360134055
:10A2E000A360204622F03CFDB1E75B1A4A462046B7
:10A2F00022F0EAFB051EFFF65DAF08D0E26AA36814
:10A3000012681344A360D4E901318B42EDD861682F
:10A31000A38901EB46029A429AD1DFF85080A268E5
:10A3200001EA08039A4293D0204622F005FC054634
:10A3300000287FF43FAF636803EA0803A360A389A2
:10A34000A288A3EB46039A4206D038461FF000F9D4
:10A35000012323740025BCE6204622F0EAFC0546D2
:10A3600038461FF0F5F8002DF2D0B2E60000FFFFEE
:10A37000014B036000207047E054050070B544694C
:10A380000D46002C3FD0244A2379565CB3423DD081
:10A39000224A525C9A423CD1A3689847002814DABA
:10A3A000022D10D0032D0FD110F1860F0BD0BFF36B
:10A3B0005B8F54E8003F43F0020344E80032002A78
:10A3C000F7D1BFF35B8F267170BD022D267101D0CE
:10A3D0000020F9E7BFF35B8F54E8003F23F004034C
:10A3E00044E80032002AF7D1BFF35B8FBFF35B8FE5
:10A3F00054E8003F23F0020344E80032002AF7D17A
:10A40000BFF35B8FE4E76FF05700DDE76FF0770095
:10A41000DAE76FF08500D7E75F8005005B80050015
:10A4200070B5104B1C680D46B4B10F4B1968002372
:10A430008B4202DB6FF0010070BD224612F8106BF8
:10A44000864202D001331446F2E7E06829F05DF855
:10A4500028B12C600020EFE76FF00C00ECE76FF004
:10A460001200E9E7DC030020E054050010B588B0D5
:10A47000436802938368C068CDE903320A68002309
:10A48000CDE906230C4601AA0449059326F097FD61
:10A49000079808B9059B236008B010BD73D204006B
:10A4A000F0B40C4B0C4E5F6A0C4BB34203D36FF00D
:10A4B0008500F0BC70475D68BD4209D31C693CB1A2
:10A4C00095F802C00579AC4502D12346F0BC184787
:10A4D0002433EAE7841E0020950D0020950D00200E
:10A4E0002DE9F047134CDFF85080DFF85090054617
:10A4F0000E461746444503D36FF08500BDE8F0874C
:10A500006268D9F824309A4212D3A36983B1907853
:10A510002979884205D13A4631462846BDE8F047B8
:10A5200018475279012A03D13A46314628469847BE
:10A530002434DFE7950D0020950D0020841E0020B7
:10A540002DE9F0410B4CDFF8308005460E461746EA
:10A55000444502D36FF0850009E063690BB92434E8
:10A56000F6E73A463146284698470028F7D1BDE835
:10A57000F08100BF950D0020950D002010B5044618
:10A5800026F0FFFB10F1780F00D050B9054A2046A5
:10A5900022F0AAFED2F8C43023EA0003C2F8C43085
:10A5A000002010BD841E0020024B00221A605A6059
:10A5B000704700BF3F1F002070B50B4B0B4CA342F0
:10A5C00001D3002070BD196A1E7F00220439D5B264
:10A5D000AE4201D82433F2E7013211F832508542FD
:10A5E000F5D10120EEE700BF950D0020950D00206C
:10A5F00008B509480378C3F341130A3350F82330F0
:10A600003BB100F1080200F110019847C043C00FB0
:10A6100008BD1846FCE700BF841E002004282DE971
:10A62000F14FDFF8A09004460F4616D001282DD137
:10A63000DFF88C8098F8B93043B300F061FD1F4D0E
:10A640004D4520D2D5F820B04FF0000A2B7F5FFA9D
:10A650008AF6B34204D82435F2E7FFF7A5FFE7E70F
:10A660000BEBC6060AF1010A307926F08AFB024696
:10A67000307922F039FED8F8C430002A23EA0003EA
:10A68000C8F8C430E2DA002388F8B9300B4D4D45E4
:10A6900008D30B4B1B6A6BB13946204601B0BDE8AD
:10A6A000F04F1847EB681BB13A46214628469847B9
:10A6B0002435ECE701B0BDE8F08F00BF950D002018
:10A6C000841E0020950D002073B5C4B263060D46AC
:10A6D0008DF8074007D02046FFF76EFF78B10D4B8D
:10A6E00093F8BA0058B10B4E204655B116F018FE3B
:10A6F000F3691BB10DF1070108209847012002B052
:10A7000070BD16F035FEF369002BF7D00DF107018F
:10A710000920F2E7841E002073B586788DF800606A
:10A72000037942791C4C43EA0223ADF80230C37826
:10A73000304603F003038DF8043022F0D5FDD4F841
:10A74000C430184205460BD0304600F0BBFC304602
:10A75000FFF714FF29F0F8F910B996201FF036FD25
:10A76000684616F0B9FD10F1780F03D010B1002043
:10A7700002B070BD9DF8000016F036FE10F1780FA3
:10A7800001D00028F3D1D4F8C43001202B4384F841
:10A79000B900C4F8C430EBE7841E00202DE9F0476F
:10A7A000A34EB36904460F461546FBB9237803F060
:10A7B0001F03012B00F09D80022B00F0048133BBAE
:10A7C00094F900002A686178002834DA062912D04A
:10A7D00008292BD0D9B901231370517096F8C330D2
:10A7E0005B0043F00103137002232AE1984700281D
:10A7F000DCD100200DE06288100A011F0129844687
:10A8000005D9072803D8716AD2B20C781CB96FF049
:10A810001500BDE8F0874E78664503D19A4200F0F6
:10A820000B8101332144F0E70B780AE196F8BA3046
:10A830001370012305E101390829E8D801A353F871
:10A8400021F000BFDDA802000FA80200EBA8020063
:10A850000FA8020069A802000FA802000FA80200BA
:10A860000FA8020075A80200A07816F023FD0028AA
:10A87000BFD0CCE76388756A63BBFFF795FE63883A
:10A8800086F8BA30F369002BB3D06A4903209847A1
:10A89000AFE76B78042B10D0052B11D0022B04D11D
:10A8A0006F796388BB4208BF01202B781D442B7849
:10A8B000002BEED10028AAD0DFE795F80380F4E75B
:10A8C0006388BB42F1D1B8F1000FEED12846FFF703
:10A8D00023FFEAE7FF270020B846E8E76388012B5B
:10A8E00095D1002386F8C33083E76388012B8ED18E
:10A8F000F8E796F8BA30D5F800C0002B87D0756A13
:10A90000A38894F804E02A46107800283FF47FAF2B
:10A910005178022904D192F80480F04500F2938026
:10A920000244F1E78CF800208CF80120396060E7E0
:10A93000154494E00B2A7FF46AAF00274FF0FF081C
:10A94000C146BA4606E06B78042B0FD0052B21D008
:10A950002B781D442B78002BF5D1F36913B15146A8
:10A9600007209847002F7FF444AF50E795F8028006
:10A97000A38895F803909845EAD163889945E7D173
:10A98000B8F1070F1CD806EB0803AA4683F8BB9062
:10A990000127DDE7A3884345DAD1A3784B450AD0E8
:10A9A000AF78384600F08EFB3846FFF7E7FDB0FA87
:10A9B00080F77F09CCE72846FFF7AEFE0746C7E7DA
:10A9C000AA460027C4E794F900206378002A18DA21
:10A9D000002B7FF41CAF24792D6863060AD0204633
:10A9E000FFF7EAFD00283FF412AF96F8BA30002BCB
:10A9F0003FF40DAF2946204616F0DAFC00236B70B9
:10AA0000F2E6012B08D0032B7FF401AF6388002B03
:10AA10007FF4FDAE012103E0618800297FF4F7AEE9
:10AA2000A088FFF751FE00287FF4E3AEEFE600BFF9
:10AA3000841E00203E1F0020022829607FF4F4AE0F
:10AA40004B883B60D5E694F9000062780028BFF699
:10AA500071AF002A3FF466AF0A2A7FF4D8AE2A7895
:10AA6000002A3FF4D4AE697804297FF461AFA97855
:10AA70008B427FF45DAF072B96BF9B19002393F8A1
:10AA8000BB308CF80030D4E613B5164C237DF3B9F7
:10AA9000E268A168019201AB802022F033FC019AA8
:10AAA000A3681344A360E3689B1AE3606BB962B1C7
:10AAB0002369E2889A4208DD94F8C82093FBF2F1FA
:10AAC00002FB11330BB90123237502B010BD002323
:10AAD0001A4619468020237502B0BDE8104016F0D2
:10AAE000ADBC00BF841E002030B585B000230246F7
:10AAF0000D460193002858D1002935D108220B4674
:10AB00000DEB020126F056F9002804DA802016F039
:10AB100007FC05B030BD2A4C029A2260039A62609D
:10AB200004F13802A2609DF90820BDF80E302575A9
:10AB3000002AC4E903550ADB802B04D9802016F0D3
:10AB4000EFFB0020E3E713B1C4E90333E1E7FFF7CC
:10AB50004FFD0028DAD0E28823699A42D4BFE26030
:10AB6000E360FFF791FFD4E7154CD4E90215002DFF
:10AB700001AB04DC26F01EF90028CADAC6E72A4633
:10AB800026F018F90028D9DB019AA3681344A360C2
:10AB9000E3689B1AE360002BBBD104F13803A36088
:10ABA000FFF726FD0028DCD1B0E78028B1D1044BA7
:10ABB000DA68002AD5D11B7D002BD2D1A9E700BFCE
:10ABC000841E0020054B064A9A62064ADA62064A4B
:10ABD0001A63064A58629A6100207047841E00205A
:10ABE0009DA70200A1A4020041A50200E1A4020069
:10ABF0002DE9F3410446474D47484FF0FF334FF0EE
:10AC0000FF321EF02DFC95F8B830002B7BD16B6A1B
:10AC100083B142482C62E8616E6A16F029FD16F095
:10AC200017FB041E10DA3C481EF092FC204602B0CE
:10AC3000BDE8F08100F0BEF8FFF7C4FF6B6A002B9F
:10AC4000E7D14FF0FF34EEE700F07CFA041EEADBB8
:10AC50007378012B5AD1F379002B57D00026684620
:10AC600085F8C830ADF802308DF804608DF80060CA
:10AC700016F032FB041ED6DB802768468DF8007084
:10AC800016F02AFB041ECEDB2549304616F0DCFC0C
:10AC9000041EC8DB2249384616F0D6FC041EC2DB6F
:10ACA000204CDFF8848044451AD3002016F09CFB2A
:10ACB000041EB8DBD5F8C430802043F00103C5F88A
:10ACC000C43016F091FB041EADDBD5F8C43043F45C
:10ACD0008033C5F8C430012385F8B8300024A2E7DA
:10ACE000276A0026227FF3B29A4201D82434DAE799
:10ACF00007EBC30257F83310107916F0A5FC0136A4
:10AD00000028EFD09DE76FF077048CE76FF0150413
:10AD100089E700BF841E0020E40A00201DA602006F
:10AD2000E9AA0200950D0020950D002030B51F4BBB
:10AD30008BB005AA03F1100518685968144603C4BE
:10AD40000833AB422246F7D11B7823701022002132
:10AD500001A829F01CF912220021154829F017F941
:10AD6000102101A826F09AFA00281BDD0828B8BF98
:10AD70000820093801AB0E491A18002012F8013FCB
:10AD80000AAC04EB131403F00F0328336B440130B7
:10AD900014F8144C13F8143C0C7008284B7001F193
:10ADA0000201EBD102480BB030BD00BF638005004B
:10ADB000704E00202DE9F04F724B93F800B087B031
:10ADC000BBF1000F03D0704807B0BDE8F08F6E4CA8
:10ADD00000264FF0011AB0463546B14623783BB9FC
:10ADE0006A4B02349C42F3D1664A01231370EAE7AE
:10ADF0006378052B1BD8DFE803F08E03C38E1D3963
:10AE0000402304A88DF810B0ADF812308DF814B0BE
:10AE100025F0A2FF40B1082304A8ADF8123025F0B8
:10AE20009BFF08B1ADF812B0BDF81230E371237882
:10AE30001C44D3E7E378002BF9D1A3786BB108F178
:10AE400001085FFA88F8F2E76B689C4207D0243566
:10AE50004F4B9D42F8D30020B6E74E4DF8E7AB6864
:10AE6000002BECD0414620469847E8E7002DF2D071
:10AE700000222B7F9A42EED2296AA07801EBC20110
:10AE80000B79984201D00132F3E70127E07800F016
:10AE900003008DF81400207994F805C040EA0C20D6
:10AEA000ADF8120094F902000028FBB228DA07F18D
:10AEB00010004FF0010C0CFA00F010EA0A0F26D136
:10AEC00043F080008DF8100004A8CDE90213019230
:10AED00025F042FFDDE90121039BC0B99DF8102058
:10AEE000A27012F0800F18BF10330A7118BFDBB2C6
:10AEF0004FF0010214BF9A40BA404AEA020A96E7AC
:10AF00000120B84010EA0A0F01D11846DAE70137EC
:10AF1000102FBBD1B7E7032E1AD1FFF707FF074663
:10AF200050B1FCF719F9024630B11028A8BF102221
:10AF30003946A01C29F003F823786FF00201E218CB
:10AF4000091B04EB5303D14213D50136F6B26EE769
:10AF5000002EF1D1B9F1000F3FF47DAFA4EB09034E
:10AF600089F80230C3F3072389F8033089F8048095
:10AF7000EBE702F801BC13F8010902F8020DE2E761
:10AF8000A14654E76F4E00201C0D0020950D0020B7
:10AF9000950D0020950D002010B5094B00211A4693
:10AFA0001C78844205D15C681CB1482303FB012056
:10AFB00010BD0131042903F14803F1D10020F7E766
:10AFC000501F00202DE9F34150F8303C10F8346C4C
:10AFD000103304460AD1036950F8282C980736D557
:10AFE000D2B9590715D5002344F8303C54F8303C09
:10AFF00010330BD054E9097554F81C8C28F0A4FDCB
:10B0000000284FD02E48214628F011FD02B0BDE89F
:10B01000F08143F00403236154F82C1C01AB30464B
:10B0200022F070F910B16FF01503DDE7019A54F8C2
:10B030002C3C134444F82C3C54F8283C9B1A44F80C
:10B04000283C54F8243C134444F8243CCEE754F8FC
:10B050002C1C01AB304616F06DFA0028E3D1019D9F
:10B0600054F82C3C2B4444F82C3C54F8283C5B1BF3
:10B0700044F8283C54F8243C2B4444F8243C002D4C
:10B08000B1D0304616F0FAFAB5FBF0F303FB1055D9
:10B09000002DA8D154F8283C002BA4D0304616F03F
:10B0A00091FAA3E744F8200CA4F118001EF0D2FA9C
:10B0B000002DABD0424639463046A847A6E700BF30
:10B0C000F01B002010B5EFF31184202383F31288C6
:10B0D000BFF36F8FFFF760FF50B14368103307D1A4
:10B0E0006FF08B03436000F13401044828F09FFCAB
:10B0F00084F31188BFF36F8F10BD00BFF01B0020D9
:10B10000F8B50E4C04252027EFF3118687F312883B
:10B11000BFF36F8F6368103307D16FF08B0308485C
:10B12000636004F1340128F082FC86F31188BFF3D8
:10B130006F8F013D04F14804E6D1F8BD501F002097
:10B14000F01B002070B50A4C0A4E002531462046FF
:10B1500028F051FC0122A4F118001146013528F015
:10B16000C7FB042D04F14804F0D1002070BD00BFDE
:10B17000841F0020C5AF02001FB507240294044CB1
:10B180000194BDF81840009424F0AAFD04B010BD4D
:10B19000A909002010B5084C86B024788DF8174016
:10B1A000012402940DF117040194BDF8204000948D
:10B1B00024F096FD06B010BDB0090020014B1878B0
:10B1C000704700BFB009002000B589B064288DF831
:10B1D000070019D80E4B18221870002102A828F079
:10B1E000D6FE0C4B03930DF10703049302A9012330
:10B1F0000020ADF8143005F03FFD10F1800F08BFBE
:10B20000002009B05DF804FB6FF01500F9E700BFFE
:10B21000B0090020C45505002DE9F0410F4B1C6812
:10B2200005460E461746ACB14FF0FF324FF0FF33E4
:10B230000B481EF015F963683246D3F8088029469A
:10B240003B462046C047044605481EF081F920468B
:10B25000BDE8F0816FF00104F9E700BF7020002025
:10B26000D00A002000230360044B5A6812B9C3E9D6
:10B270000000704710605860704700BF74200020C5
:10B28000014B1860704700BF7020002030B585B0BA
:10B2900000230546CDE9023301904FF0FF330C48FF
:10B2A0004FF0FF321EF0DCF80A4B1C684CB9284600
:10B2B00000F0D0F8044606481EF04AF9204605B0D2
:10B2C00030BD636820461B6801A998472468EDE7F4
:10B2D000D00A0020742000201FB5CDE9010103929F
:10B2E0004FF0FF330A484FF0FF321EF0B9F8094B18
:10B2F0001C682CB906481EF02BF9204604B010BD7E
:10B30000636820461B6801A998472468F1E700BFDD
:10B31000D00A002074200020024B0022C3E9002242
:10B32000704700BF74200020024B0022C3E90022B6
:10B33000FFF7F2BF7C200020F8B51C4C1C4E0546E0
:10B340000F46B44212D31B4E1B484FF0FF324FF052
:10B35000FF331EF085F834687CB1286854F8181C57
:10B36000183CFBF7E7FED0B1A469F5E7216828682F
:10B37000FBF7E0FEB0B11834E3E700226F60AA618A
:10B38000726805F118033AB9C6E9003300240A4887
:10B390001EF0DEF82046F8BD13607360F6E76FF02C
:10B3A0001004F4E76FF01004F4E700BFE04D05006F
:10B3B000884E05007C200020D00A00202DE9F743AC
:10B3C00007460C4609B100230B601F4DDFF8809043
:10B3D00000264D450FD31D4B1D6885B355F8188CBD
:10B3E00001AA41463846183D21F0CBFF10B3D6B92B
:10B3F00014BB2E461EE0D5F8008001AA414638460F
:10B4000021F0BFFF50B116B954B92E4606E031689D
:10B410000022404621F0B5FF0028F5D11835D8E7C5
:10B42000019B2360F1E731680022404621F0A9FF2B
:10B430000028DDD1AD69D0E7019B2360D9E7304614
:10B4400003B0BDE8F08300BFE04D05007C20002084
:10B45000884E05002DE9F047DFF8B090DFF8B0A086
:10B4600080464FF000470026274C3D464C450DD303
:10B47000DAF80040002C42D0183CB8F1000F25D17A
:10B4800022695ABBA469F5E72F46EDE7B8F1000F32
:10B4900003D122694AB91834E8E7206800224146FE
:10B4A00021F06FFF0028F4D1F5E76368BB4205DDAA
:10B4B000AF4209D09D42A8BF1D46ECE7EBD19047B3
:10B4C000002E08BF0646E6E71D46E4E72068002296
:10B4D000414621F056FF0028D2D1D3E76368BB4232
:10B4E00005DDBD4209D09D42A8BF1D46CAE7C9D1AE
:10B4F0009047002E08BF0646C4E71D46C2E7AF428C
:10B50000C2D13046BDE8F087E04D0500884E050009
:10B510007C20002038B50C4D0C484FF0FF334FF025
:10B52000FF321DF09DFF2B783BB9FFF7FDFE00F0C9
:10B530006DF8044610B901232B70002403481EF057
:10B5400007F8204638BD00BF824E0020D00A0020F8
:10B550002DE9F047048FDFF8B0A0013498B006461B
:10B560008946A4B200F10807651EADB2B5F5004FDB
:10B5700047D04A2305AA2946384621F0F0FD04F5B4
:10B580007F543F34A4B28046214601230DF10B02C3
:10B59000384621F0E4FDB8F1000F014610DC002828
:10B5A00010DC338FAB4209D132466B1E22F8383F94
:10B5B0004FF400410223384621F09FFC2C46D3E78C
:10B5C000002808DC2946384621F065FD214638462A
:10B5D00021F061FDE5E708F160030DEB03080023AE
:10B5E00008F84C3C5246CDF8009003AB05A80397F1
:10B5F000ADF8104021F0FBFE0028DFD018B0BDE808
:10B60000F0870020FAE700BF5DD404007FB5012376
:10B61000694602200193FEF703FF044660BB02AABD
:10B6200001A9022021F047FE044610B110F10C0FD1
:10B6300022D10399B1F5803F23D2009A0023946868
:10B640001846084484421AD30133082BF9D10E4D11
:10B65000A982EB825368AB602846D368EB6321F084
:10B6600095FF044640B9094E6E602846FFF7FAFD83
:10B6700028466E60FFF704FE204604B070BD9BB202
:10B68000E5E76FF02004F7E784200020180400208D
:10B6900030BFFFF7FDBF00BF2DE9F0410B4EDFF8D3
:10B6A000348006EB0807CC1B054632460849204685
:10B6B00028F045FCA01942460021083C28F067FC10
:10B6C0006C6707F10800BDE8F08100BF00000000D2
:10B6D000A04E050008000000054B9A699B689A423D
:10B6E0001FBF044A536843F080535360704700BF44
:10B6F000B04D002000ED00E070B5264B15469A6A6B
:10B7000012F0100F9A6A14BF1124102412F0080FBF
:10B710009A6A18BF1224920706460AD5586B9A6A8D
:10B72000140634D519B19A6A22F080029A62132461
:10B7300001E06FF01500174B9A6A12F0010F9A6A38
:10B7400018BF142412F0200F9A6A18BF1524D206CD
:10B7500002D49B6A9B070AD50E4B5B68190506D578
:10B76000314600F07DFA10B180F309880224094BBC
:10B770009A6A920642BF5A6A22F400525A629A6A40
:10B7800042F0FF029A6200232B70204670BD6FF0DA
:10B790001500CCE700ED00E0134B9A6A12F0007F31
:10B7A0009A6A14BF1E201D2012F0807F9A6A18BF6B
:10B7B0001F2012F4002F9A6A18BF212012F4802F44
:10B7C0009A6A18BF222012F4003F9A6A18BF2320F9
:10B7D00012F4803F9A6A6FEA02426FEA12429A625A
:10B7E00018BF2420704700BF00ED00E010B5194BD2
:10B7F0000246986A9C6A10F4805F14BF17201620D6
:10B8000014F4006F9C6A18BF1820A40509D5986B22
:10B81000986A000404D51AB19A6A22F400429A6226
:10B8200019200C4B9A6A12F4806F9A6A18BF1A207A
:10B83000D2050CD49B6A13F4005F18BF1C20054A84
:10B84000936A43F47F43936200230B7010BD1B2067
:10B85000F5E700BF00ED00E070B5454B5B689CB0BC
:10B860000546C3F30803002686F31188BFF36F8FE4
:10B8700002F07F40B0F17F4F11D102F00C00082898
:10B880000DD010074CBF0D4601260022033B8DF85A
:10B890000720032B05D8DFE803F01E5D615A35460B
:10B8A000F3E700249DF807309BB96822294602A8D7
:10B8B00028F045FB099B002E54D0C3F3080222B99F
:10B8C0006FEA53236FEA4323099302A9204621F02C
:10B8D00092FE1CB070BD264BDA6A9107E1D4DA6A99
:10B8E000002ADEDBDA6A5200DBD55A69A96942F424
:10B8F00080725A61BFF34F8FBFF36F8F5A6931F86F
:10B90000021C22F480725A61BFF34F8FBFF36F8F16
:10B910004DF6027291420AD09A6AD2B24AB10DF142
:10B92000070201212846FFF7E7FE0446BAE72C6824
:10B93000B8E79A6A12F47F4F05D00DF10701012094
:10B94000FFF754FFF1E79B6AB3F5803FA9D3FFF7F8
:10B9500023FFEAE70DF107020021E3E70DF10701FC
:10B960000020EDE723F4FF7323F00103ACE700BFF1
:10B9700000ED00E0044B5A6942F010025A615A6926
:10B9800022F008025A61704700ED00E0EFF30880F2
:10B99000EFF3098101B57246FFF75EFF01BD00BFFD
:10B9A00019F0A8FB202080F3118808484FF40861A3
:10B9B000401880F30988EFF314800221084380F3D4
:10B9C0001488BFF36F8F00F0D3F80000807500205B
:10B9D000BFF34F8F0549064BCA6802F4E062134378
:10B9E000CB60BFF34F8F00BFFDE700BF00ED00E06D
:10B9F0000400FA05084B9B6883420BD1EFF30583E3
:10BA000043B1064B5A6842F080525A605A6A22F497
:10BA100000425A621EF022BCB04D002000ED00E052
:10BA200023498A6882F8C1E04FF030001044EFF3F8
:10BA3000098C80E8F01F1EF0100F03D102F1800086
:10BA400080EC108A202080F31288BFF36F8F194F8B
:10BA50004FF000668A698A603E60506F164C206025
:10BA600092F9C1E0906F0023936780F311881EF074
:10BA7000100F03D00023E1EE103A03E002F1800042
:10BA800090EC108AEFF3148323F0040383F31488FB
:10BA9000BFF36F8F04B5104600F078F9BDE804409D
:10BAA00002F1300090E8F01F8CF309887047000025
:10BAB000B04D002004ED00E0C42000201EF0040F73
:10BAC0000CBFEFF30880EFF30980816911F8021CC5
:10BAD0000229FFD001B5724621F093FD01BD00BFE0
:10BAE00040B2002807DB044A4109012300F01F008F
:10BAF000834042F82130704700E100E040B2002866
:10BB00000CDB4309064900F01F002033012282406C
:10BB100041F82320BFF34F8FBFF36F8F704700BFF3
:10BB200000E100E0054B420900F01F0053F822201D
:10BB3000012303FA00F01040704700BF00E100E06D
:10BB400040B20028A8BF00F1604001F10101B8BF78
:10BB5000064B4FEA4111ACBF00F5614000F00F0009
:10BB6000C9B2B4BF195480F80013704714ED00E057
:10BB7000144A08B5144B22F07F029A60BFF34F8F2E
:10BB8000BFF36F8FD3F8882022F47002C3F88820A7
:10BB9000D3F8882042F4A002C3F888204FF0404236
:10BBA000C3F83422BFF34F8FBFF36F8F0023E1EE52
:10BBB000103A1DF099FA1EF089FC00F0BDF81DF056
:10BBC000D5FA00BF0070020000ED00E042F8203C12
:10BBD000009B42F81C3C019B42F8183C0A49029B1E
:10BBE00042F8143C4FF0807342F8043C21F001010C
:10BBF000002342F8081C203A83674FF47D43026516
:10BC0000C0F8C030704700BF799D0200037B13F07D
:10BC1000020F124B03D190F8C120D20611D45A6BF7
:10BC200042F080425A63D0F8C03019075CBF43F03D
:10BC30000803C0F8C030037B43F002030373802085
:10BC400070475A6B22F080425A63D0F8C0301A070E
:10BC500044BF23F00803C0F8C030F0E700EF00E075
:10BC6000094A0346906870B113F1160F406E05D073
:10BC7000A0F180029A4205D8834203D2814228BFB4
:10BC80000020704700207047B04D0020104B9B688B
:10BC900083421AD1EFF30580B8B9EFF31181202266
:10BCA00082F31288BFF36F8F1A7B22F002021A739D
:10BCB000EFF3148323F0040383F31488BFF36F8F2F
:10BCC00081F31188BFF36F8F70476FF015007047D5
:10BCD000B04D002008B515460E460022E1EE102AB0
:10BCE000EFF3148222F0040282F31488BFF36F8F03
:10BCF000BFF36F8F094A0A4B9060426F1A6000F0E1
:10BD000045F82C4686F309880020064B98472046C4
:10BD1000002100220023044C204700BFB04D00202A
:10BD2000C420002021D60400799D0200014B10227E
:10BD30001A61704700ED00E0044800232021C2187A
:10BD40000133302B82F80013F9D1704700E100E095
:10BD500008B5EFF30583064A103B02EBC30152F826
:10BD6000330049688847BDE80840FFF7B5BC00BF0D
:10BD7000104B0500024B034A0348012100F07CB838
:10BD800000000420000000201456050010B50446F1
:10BD9000FFF73CFF626E03460548D21AC0E9002354
:10BDA000044B8360BDE81040012100F06FB800BF74
:10BDB000C820002000000B15084AC2F898000B6844
:10BDC00023F01F03034343F01003C2F89C308B6839
:10BDD00043F00103C2F8A030704700BF00ED00E05F
:10BDE0002DE9F043DFF8608085B00E461F4604461B
:10BDF0004FF00009B14523DA6068D8B13FB1411E68
:10BE000008421BD17F2819D92368194216D123680B
:10BE1000019321F028FCA36803430393D8F89050C2
:10BE2000C5F30725D0B2013DA84207D801A9FFF705
:10BE3000C3FF421C09F101090C34DBE76FF0150266
:10BE4000104605B0BDE8F08300ED00E0044B05228C
:10BE5000C3F89420BFF34F8FBFF36F8F704700BFBD
:10BE600000ED00E0BFF35F8F024B0022C3F8942087
:10BE7000704700BF00ED00E010B5034C01232278AD
:10BE8000FFF7AEFF207010BD834E002008B50B4AAF
:10BE900000231278FFF7A4FF10F1160F07D0084A0D
:10BEA0000021D2F89030C3F30723984200DB08BD8D
:10BEB000C2F89800C2F8A0100130F2E7834E0020CB
:10BEC00000ED00E02DE9F043534B544CD3F8903093
:10BED0002568C3F307239D4285B000F29A80FFF7DF
:10BEE000C1FF00200C2685421AD14D4C4D4F2570C4
:10BEF0006846FEF73DFADFF82081DFF82C91064610
:10BF00000025AE4213D1237843490020D1F8902078
:10BF1000C2F30722934276DBFFF798FF002042E04E
:10BF2000616806FB0011FFF747FF0130DBE700986F
:10BF300000EB05114FEA051CCB683B40B3F5000F41
:10BF400048D00AD8B3F5001F30D0B3F5800F36D0F3
:10BF5000B3F5801F10D00135D3E7B3F1807F42D015
:10BF6000B3F1007FF7D150F80C3088684A6821F0AF
:10BF70007AFB40F4802009E050F80C3088684A6869
:10BF800021F071FB40F0885040F43020CDE90123CE
:10BF90000390D8F890302078C3F30723013B9842F0
:10BFA0002AD96FF0150005B0BDE8F08350F80C30C9
:10BFB00088684A6821F057FB40EA0900E6E750F834
:10BFC0000C3088684A6821F04EFB40F0007040F465
:10BFD0000030DBE750F80C3088684A6821F043FBFA
:10BFE00040F08270D2E750F80C3088684A6821F03F
:10BFF0003AFB40F08870C9E701A9FFF7DDFE23781E
:10C0000001332370A7E7C1F89830C1F8A0000133CD
:10C010007CE74FF0FF30C6E700ED00E0205605005A
:10C02000834E00200000F0FF0000081108B506490B
:10C03000064821F00701C1F1005202F5802220F0EC
:10C0400017FB002008BD00BF479D0020D420002022
:10C0500003484FF0FF324FF0FF331DF001BA00BF2D
:10C060002C04002001481DF073BA00BF2C040020EE
:10C0700038B50546FFF7ECFF08482A46082120F0AE
:10C080008FFA044628B925B128F01CFB044B0C227A
:10C090001A50FFF7E7FF204638BD00BFD42000202C
:10C0A0000C00000010B50446FFF7D2FF21460348FC
:10C0B00020F03EFABDE81040FFF7D4BFD4200020A6
:10C0C00070B5A0FB01543CB92846FFF7D1FF0646E6
:10C0D00040B90026304670BD28F0F4FA044B0C221B
:10C0E0001A50F6E72A46214627F051FFF2E700BF33
:10C0F0000C00000070B54169867A0B4D044659B1B9
:10C10000437ADB0706D42C2303FB06535B6A1B68C8
:10C110009B689847002363612C20214606FB005052
:10C12000BDE8704027F0D6BBE80B0020024B2C2264
:10C1300002FB0030704700BFE80B0020827A064BFC
:10C140002C2101FB02339A6A1B7F1B33801A23F0D8
:10C150000303B0FBF3F07047E80B002038B5074B42
:10C16000827A2C2404FB02335B6AD3E901240C603D
:10C170001568FFF7E3FF04FB005038BDE80B002013
:10C180002DE9F04385B005466846039190461C466C
:10C1900027F00BFEDDE90067EFF31189202383F31D
:10C1A0001288BFF36F8F6B8B002B41D02A8B9A4282
:10C1B00025D90022002328461DF01AFA0446F0B1C2
:10C1C00089F31188BFF36F8F039B002B41D0324658
:10C1D0003B46684627F00DFEA27A264B2C2101FB38
:10C1E000023320465B6A1B6803A91D68DDE9002352
:10C1F000A847606170BB2046FFF77CFF24E0698B95
:10C200004B1E6B8389F31188BFF36F8F2B7F2A8BB3
:10C21000AC6A1B3323F00303521A02FB0344154B91
:10C22000154AEB1A9B105343A3722B7FE372CBE7A3
:10C2300089F31188BFF36F8F2346424628461DF0CD
:10C24000D7F904460028BFD10024204605B0BDE838
:10C25000F0836361012300252381039B6382E27ADB
:10C260006560294604F1180027F091FE6369258274
:10C27000E360EAE7E80B0020A38B2EBA70B50C4C04
:10C280002C2500B970BD037A4668013BDBB203720E
:10C29000002BF7D1C3604360837A05FB03431B6A1D
:10C2A00013B198473046ECE7FFF724FFFAE700BFE9
:10C2B000E80B00200E4A0123C2F840354FF08042BF
:10C2C0004FF08051C2F87835D1F83001082808D1F4
:10C2D000D1F83411052904D80648415C09B1C2F8E7
:10C2E00038364FF080430122C3F880250020704784
:10C2F00000E001409F80050020B1034B800143F026
:10C3000001031847704700BF504F050008B50448A7
:10C3100027F0FBF800280CBF6FF01200002008BDCA
:10C32000B848050010B503460548826814688AB20B
:10C330001946A0470028B4BF6FF00400002010BDCC
:10C34000B84805002DE9F341254CBFF35B8F1F462C
:10C350002368BFF35B8F1646DA0705462BD520B955
:10C360006FF0010002B0BDE8F08101A921F02DF8C5
:10C370001C4980460246284627F09FFFE8B9BFF3D4
:10C380005B8F2368BFF35B8FC3F3C0081B0712D416
:10C39000A4F1D405072229463846B047062895BFA0
:10C3A00044F8D48C0723C5F80380B0FBF3F094BFA6
:10C3B00085F80780E8710020D4E728460A494246FC
:10C3C00027F07BFF05460028CAD1182204F19C0102
:10C3D0003846B0470028EEDB044484F89C50EAE776
:10C3E000D4000020C47F0500BF8005002DE9F04186
:10C3F00088B09C79DDF838805D791E79DF7893F814
:10C4000002C093F801E01B78B8F1000F0ED0CDE91F
:10C410000638CDE904CE1346CDE90267CDE90045E3
:10C42000084A1EF07BFA08B0BDE8F081CDE905E3CB
:10C43000CDE9037C1346CDE90156034A00941EF072
:10C440006DFAF0E7C4800500E880050070B5044689
:10C450008CB01E461546A2B129B10A4602A8042195
:10C4600020F069F902A900912B462246242103A855
:10C47000FFF7BCFF109A314603A8FEF7CDFE0CB0C3
:10C4800070BD0346044A242103A81EF047FA002881
:10C49000F0DA6FF01500F2E70981050007B5064BE9
:10C4A0000648DA79C2EBC202009200221146FFF779
:10C4B000CDFF03B05DF804FB00000020C47F050041
:10C4C00030B504468DB0154692B129B10A4602A88E
:10C4D000042120F030F902A900912B4622462421A4
:10C4E00003A8FFF783FF03A820F044FF0DB030BD81
:10C4F0000346054A242103A81EF010FA0028F2DAA8
:10C500006FF01500F2E700BF0981050007B5009341
:10C5100013460A4601460348FFF798FF03B05DF84B
:10C5200004FB00BF118305000A4601460148FFF7DE
:10C53000C7BF00BF1183050007B5009313460A4625
:10C5400001460348FFF782FF03B05DF804FB00BF1C
:10C550000B83050007B5009313460A4601460348BE
:10C56000FFF774FF03B05DF804FB00BFFC82050019
:10C5700007B500220346009103481146FFF766FF06
:10C5800003B05DF804FB00BF0383050007B500227C
:10C590000346009103481146FFF758FF03B05DF8CA
:10C5A00004FB00BFBF80050008B502481DF066FA15
:10C5B000002008BD4004002070B51D4CBFF35B8F08
:10C5C0002368BFF35B8F13F0010F254622D094F848
:10C5D0009C30A4F1D40613B9164800F021FBF3797E
:10C5E000D3B1BFF35B8F2368BFF35B8F5A0701D4CE
:10C5F00000F010FBBFF35B8F55E8003F23F40062AF
:10C6000045E800210029F7D1BFF35B8F1B0501D559
:10C61000FFF7CAFF002009E001F096F830B9F3797E
:10C62000002BDED101F0A0F80028DAD070BD00BFE9
:10C63000D40000200F81050007B5009313460A4679
:10C6400001460348FFF702FF03B05DF804FB00BF9B
:10C65000508305000A4601460148FFF731BF00BF7D
:10C660005083050030B50A4D0A4B85B0002428469A
:10C670000293039427F006FA02AB0093284606497A
:10C680000A234FF4B0621DF0FFF9204605B030BD1B
:10C69000680F0020218105008056002001460148D6
:10C6A0001DF030BA680F00200146014827F0BFB9DD
:10C6B000680F00200378012B30B513D0022B27D050
:10C6C0007BB9194B0A4603F1100453F8045B42F896
:10C6D000045BA342F9D11B78137043884B731B0A88
:10C6E0008B7330BD104B0A4603F1100453F8045B02
:10C6F00042F8045BA342F9D11B78137043684B7373
:10C70000C3F307221B0CCB731B0A8A730B74E8E775
:10C7100000F1100350F8042B41F8042B9842F9D192
:10C7200003780B70DDE700BF2A81050008B521F012
:10C730004BF91DF077FC044B1B680BB10A2098479E
:10C74000BDE808401DF082BCE020002038B5054659
:10C75000054820F09EFF044620B101210C3020F056
:10C76000F9FF2576204638BDC40C00200F2810B5EF
:10C770000ED80D280ED90B4820F08BFF044628B1A7
:10C7800001210C3020F0E6FF02232376204610BD65
:10C790001328F0D009B10448EEE7BDE810400220AC
:10C7A000FFF7D4BFF00C0020400C002070B5C66825
:10C7B0003378B6F8014083B90F21204601F0C2FF5B
:10C7C000F378054650B90A4A118831B96FEA045026
:10C7D0006FEA10501080074A137070BD0373012177
:10C7E00001F02CFF2846BDE8704001F0FDBE00BFFF
:10C7F000F04D0020844E002010B5084C0146062262
:10C8000094F86F0002F04EFA38B994F86F000449BA
:10C81000BDE81040052202F045BA10BD000000201E
:10C82000A580050010B5012104460C3020F0C4FF9E
:10C830002146034A0078BDE81040002321F0D6B914
:10C840001457050010B5012104460C3020F0B4FF48
:10C850002146034A0078BDE81040082321F0C6B9FC
:10C86000D456050070B52F4820F02CFF0446002850
:10C8700057D0017E022932D0082902D1038A032B26
:10C8800002D8FFF7FBFC20E004210C3020F094FFDD
:10C89000FF22438806886276228AC6F30B009A42FA
:10C8A000A08301D02046ECE70F2101F04BFF0546A5
:10C8B0000028F7D001F07AFF320B60762146284637
:10C8C00021F03BFF284601F08FFE174BD3F84C3187
:10C8D0003BB3BDE870401549154827F0A8B8038A56
:10C8E000012BCED90C3020F067FF0546007821F0EF
:10C8F000E0F810F002060DD10E4A0F490F4840F63D
:10C90000D3331FF001FF86F31188BFF36F8F03232A
:10C91000184602DF0A4A28780623214621F066F9E4
:10C92000C0E770BD4C010020000000206004002022
:10C93000501000203B8105006F8105009D8105009E
:10C94000A45605002DE9F047884616468246002881
:10C9500079D0BFF35B8FDFF8F890002359E8004FE0
:10C9600049E80032002AF9D1BFF35B8F002C6AD06E
:10C970002046FFF7E3FB354D0C2303FB0050274611
:10C980004388534511D0BFF35B8F59E8003F49E816
:10C990000072002AF9D1BFF35B8F002B53D01F46E2
:10C9A0003846BDE8F047FFF769BCA6420FD02046E5
:10C9B00020F06AFE04F10C09022301214846237687
:10C9C00020F0C8FE328AF168484620F0D4FE2046A6
:10C9D000FFF7B4FB0C2606FB00504368ABB1B8F17F
:10C9E000000F12D12046FFF7A9FB06FB00500121E2
:10C9F0004268D2E90003127A03F01F06B1405B09D6
:10CA0000DAB100EB830021F066F82046FFF796FBD1
:10CA10000C2606FB00508368002BC1D02046FFF790
:10CA20008DFB704305F800802046FFF787FB06FB6F
:10CA30000055A8681CF00EFEB2E7C94300EB830066
:10CA400021F0EBF8E1E7BDE8F08700BFE42000202B
:10CA50004801002010B5C1E900239DF808300B7291
:10CA60000C46FFF76BFB034B0C2202FB00335C60B0
:10CA700010BD00BFE42000202DE9F0474FF0FF3249
:10CA800006464FF0FF331848884620F002FE044661
:10CA900038B300F10C070121384620F05BFE01237A
:10CAA00023762046FFF74AFB104D4FF00C0909FB97
:10CAB00000504FF0000A46802046FFF73FFB09FB7D
:10CAC0000050C0F808A02046FFF738FB09FB0055CE
:10CAD00003213846C5F804A020F047FE068080F800
